28100009555SPLMKEMADR00100065Kemadrin                      tabletter           TAB           5 mg                0000005000MG 059300059300 N04AA04OR               D                
28100010554SPLMMARZIN00101348Marzine                       tabletter           TAB           50 mg               0000050000MG 258318258318 R06AE03OR      J        D                
28100011055SPLMKEFAMY00100934Kefamycin Vet.                intramamm‘r salve   INTMASA                           0000000000   254979259282QJ51RC  MA                                
28100020455SPLMELTROX00200077Eltroxin                      tabletter           TAB           100 mikrogram       0000100000RG 261560254657 H03AA01OR               D                
28100021255SPLMPOSTAF00100084Postafen                      tabletter           TAB           25 mg               0000025000MG 255816255816 R06AE05OR      J        D                
28100041255SPLMDIAMOX00200206Diamox                        tabletter           TAB           250 mg              0000250000MG 012565012565 S01EC01OR               D                
28100042755SPLMCALCIU00200177Calcium-Sandoz                inj.v‘ske, opl›sningINJVSKO       9 mg Ca/ml          0000009000MGM255483255483 A12AA02IMIV                              
28100042855SPLMMETHER00200223Methergin                     overtrukne tabletterTABOTR        0,125 mg            0000000125MG 011768011768 G02AB01OR               D                
28100049355SPLMHYDROC00200299Hydrocortison med Terramycin  salve               SALV          10 + 30 mg/g        0000000000   061800061800 D07CA01KU                                
28100049555SPLMHEPARI00300501Heparin "Leo"                 inj.v‘ske, opl›sningINJVSKO       5.000 IE/ml         0005000000IUM034800034800 B01AB01IV                                
28100052255SPLMTERRAM00400071Terramycin-Polymyxin B        salve               SALV          30+1 mg/g           0000000000   061800061800 D06AA03KU                                
28100074555SPLMPARAGH00100690Paraghurt                     tabletter           TAB                               0000000000   256939256939 A07FA01OR               D                
28100076255SPLMASPIRI00100708Aspirin                       tabletter           TAB           500 mg              0000500000MG 056800056800 N02BA01OR       G   0214D                
28100081155SPLMPENTOT00100739Pentothal-natrium             injektionssubstans  INJSUB        0,5 g               0000000500G  256231259247 N01AF03IV                                
28100082155SPLMSELSUN00100229Selsun                        shampoo             SHAM          25 mg/ml            0000025000MGM257766257766 D11AC03KU                                
28100096555SPLMNEO-ME00100864Neo-mercazole                 overtrukne tabletterTABOTR        5 mg                0000005000MG 255247255247 H03BB01OR               D                
28100103155SPLMHIRUDO00200920Hirudoid                      salve               SALV          3 mg/g              0000003000MGG147100250000 C05BA01KU                                
28100105055SPLMINOTYO00100892Inotyol                       salve               SALV                              0000000000   258403261976 D05AA  KU                                
28100107155SPLMBENYLA00200958Benylan                       oral opl›sning      ORALOPL       2,8 mg/ml           0000002800MGM258318258318 R06AA02OR      J                         
28100110949SPLMXYLOCA00200985Xylocain                      inj.v‘ske, opl›sningINJVSKO       10 mg/ml            0000010000MGM056100056100 N01BB02EDIRIVPE                          
28100111155SPLMXYLOCA00700986Xylocain-adrenalin            inj.v‘ske, opl›sningINJVSKO       10 mg/ml+5 mikrog/ml0000000000   056100056100 N01BB52EDIRPE                            
28100115155SPLMVETALG00100104Vetalgin Vet.                 inj.v‘ske, opl›sningINJVSKO       500 mg/ml           0000500000MGM031500262114QN02BB02IV                                
28100122055SPLMBUSCOP00201074Buscopan                      overtrukne tabletterTABOTR        10 mg               0000010000MG 013525205600 A03BB01OR               D                
28100123253SPLMMARCOU00101085Marcoumar                     tabletter           TAB           3 mg                0000003000MG 254766254766 B01AA04OR       G   0514D                
28100123355SPLMMESTIN00201086Mestinon                      overtrukne tabletterTABOTR        60 mg               0000060000MG 254766254766 N07AA02OR       G   0672D                
28100136355SPLMMACROD00101180Macrodex 60 mg/ml m. Natr.kl  inf.v‘ske, opl›sningINFVSKO                           0000000000   254766254766 B05AA05IV                                
28100137555SPLMSALAZO00101190Salazopyrin                   tabletter           TAB           500 mg              0000500000MG 061800061800 A07EC01OR       G   0505D                
28100142255SPLMPHENER00101215Phenergan                     oral opl›sning      ORALOPL       1 mg/ml             0000001000MGM257228257228 R06AD02OR      J                         
28100161255SPLMKONAKI00101088Konakion Novum                inj.v‘ske, opl›sningINJVSKO       10 mg/ml            0000010000MGM062700062700 B02BA01IMIVOR                            
28100161355SPLMHEPARI00400501Heparin "Leo"                 inj.v‘ske, opl›sningINJVSKO       25.000 IE/ml        0025000000IUM034800034800 B01AB01IV                                
28100165055SPLMSOLU-C00101328Solu-cortef                   pulv.og sol.t.inj.opINJPSO        100 mg              0000100000MG 061800061800 H02AB09IMIV                              
28100165654SPLMHIBITA00101630Hibitane                      vaginalcreme        VAGCREM       1 %                 0000001000PC 011231011231 D08AC02VA                                
28100174756SPLMATARAX00101632Atarax                        filmovertrukne tabl.TABFILM       10 mg               0000010000MG 255816255816 N05BB01OR      J        D                
28100185956SPLMARCOSA00101624Arcosal                       tabletter           TAB           500 mg              0000500000MG 254766254766 A10BB03OR               D                
28100186556SPLMSILAN 00101391Silan                         salve               SALV                              0000000000   254702254702 D02AA  KU                                
28100187056SPLMRITALI00101408Ritalin                       tabletter           TAB           10 mg               0000010000MG 011768011768 N06BA04OR      JG   0975D                
28100193656SPLMSTREPT00401398Streptocillin Vet.            inj.v‘ske,suspensionINJVSKS       200000 IE +250 mg/ml0000000000   205600205600QJ01RA01IM                                
28100223956SPLMDIHYDR00100258Dihydrostreptomycin Agrov. Vettabletter           TAB           500 mg              0000500000MG 205600205600QA07AA90OR                                
28100225957SPLMPERILA00101636Perilax                       enterotabletter     ENTTAB        5 mg                0000005000MG 012582257625 A06AB02OR               D                
28100230857SPLMULTRAC00101646Ultracortenol                 ›jensalve           OJSALV        0,5%                0000000500PC 262364262364 S01BA04CO                                
28100231857SPLMAKINET00201659Akineton                      tabletter           TAB           2 mg                0000002000MG 255906255906 N04AA02OR               D                
28100232757SPLMDULCOL00101603Dulcolax                      enterotabletter     ENTTAB        5 mg                0000005000MG 013525205600 A06AB02OR               D                
28100234057SPLMSTEMET00101717Stemetil                      tabletter           TAB           5 mg                0000005000MG 257228257228 N05AB04OR               D                
28100245657SPLMSYNTOC00101709Syntocinon                    inj.v‘ske, opl›sningINJVSKO       10 IE/ml            0000010000IUM261307010530 H01BB02IV                                
28100245757SPLMMEDROL00101708Medrol                        tabletter           TAB           4 mg                0000004000MG 061800061800 H02AB04OR       G   2093D                
28100249157SPLMAKINET00101659Akineton                      inj.v‘ske, opl›sningINJVSKO       5 mg/ml             0000005000MGM255906255906 N04AA02IV                                
28100257458SPLMPLEGIC00101750Plegicil                      tabletter           TAB           10 mg               0000010000MG 254979259282 N05AA04OR               D                
28100257658SPLMPLEGIC00201750Plegicil Vet.                 inj.v‘ske, opl›sningINJVSKO       10 mg/ml            0000010000MGM254979259282QN05AA04IMIV                              
28100259658SPLMPLAQUE00101756Plaquenil                     filmovertrukne tabl.TABFILM       200 mg              0000200000MG 257228257228 P01BA02OR       G   2537D                
28100268558SPLMFUNGIZ00101782Fungizone                     pulv.t.inf.v‘ske,oplINFPULO       50 mg               0000050000MG 249900254856 J02AA01IV       G   0453                 
28100270558SPLMSENDOX00401785Sendoxan                      overtrukne tabletterTABOTR        50 mg               0000050000MG 135400135400 L01AA01OR                                
28100272558SPLMGLYCIF00102034Glycifer                      orale dr†ber, opl›snORALDRO       30 mg/ml            0000030000MGM020800020802 B03AA01OR                                
28100280558SPLMNOACID00101828Noacid                        tabletter           TAB           400 mg              0000400000MG 011763011763 A02AB04OR               D                
28100286458SPLMTERRAM00300071Terramycin-Polymyxin B        ›jensalve           OJSALV        5 + 1 mg/g          0000000000   061800061800 S01AA30CO                                
28100289759SPLMANTABU00200599Antabus                       brusetabletter      BRUTAB        400 mg              0000400000MG 255237257213 N07BB01OR                                
28100290259SPLMSTREPS00101854Strepsils                     sugetabletter       SUGTAB                            0000000000   257628261916 R02AA03OR                                
28100290359SPLMSTREPT00301831Streptipenprokain Rosco Vet.  inj.v‘ske,suspensionINJVSKS       200 mg/ml +335 mg/ml0000000000   258503258503QJ01RA01IM                                
28100300959SPLMRESONI00101887Resonium                      pulv.t.oral/rekt.susPULORES                           0000000000   257228257228 V03AE01ORPR     G   0491                 
28100304259SPLMSERENA00201907Serenase                      orale dr†ber, opl›snORALDRO       2 mg/ml             0000002000MGM059900059900 N05AD01OR                                
28100310059SPLMGENABI00102018Genabil Vet.                  inj.v‘ske, opl›sningINJVSKO       100 mg/ml           0000100000MGM149500205600QA05AX90IV                20101227        
28100312259SPLMKLYX  00101941Klyx                          rektalv‘ske, opl›sn.REKVSKO       1 + 250 mg/ml       0000000000   011483011483 A06AG10PR       G   2401                 
28100315259SPLMSYNTOC00201709Syntocinon                    n‘sespray, opl›sningNASSPRO       6,7 mikrogram/dosis 0000006700RGD261307010530 H01BB02IN                                
28100320959SPLMDULCOL00201603Dulcolax                      suppositorier       SUP           10 mg               0000010000MG 013525205600 A06AB02PR                                
28100323959SPLMDEPO-M00101980Depo-medrol                   inj.v‘ske,suspensionINJVSKS       40 mg/ml            0000040000MGM061800061800 H02AB04IMIR     G   3822                 
28100327560SPLMCENTYL00101987Centyl med Kaliumklorid       overtrukne tabletterTABOTR        2,5+573 mg          0000000000   034800034800 C03AB01OR       G   0876D                
28100327860SPLMNOZINA00101996Nozinan                       tabletter           TAB           5 mg                0000005000MG 257228257228 N05AA02OR               D                
28100329660SPLMMARPLA00102035Marplan                       tabletter           TAB           10 mg               0000010000MG 261793261793 N06AF01OR               D                
28100330160SPLMREGENO00102008Regenon                       kapsler             KAP           25 mg               0000025000MG 049900261651 A08AA03OR      J                         
28100335260SPLMXYLOCA00500985Xylocain                      kutanspray, opl›sn. KUTSPRO       10 mg/dosis         0000010000MGD056100056100 N01BB02KU       G   0465                 
28100338960SPLMERCORI00101949Ercoril                       tabletter           TAB           15 mg               0000015000MG 192000192000 A03AB05OR               D                
28100340560SPLMBETOLV00102273Betolvex                      inj.v‘ske,suspensionINJVSKS       1 mg/ml             0000001000MGM255237257213 B03BA02IM       G   3662                 
28100342360SPLMFLAGYL00302048Flagyl                        filmovertrukne tabl.TABFILM       200 mg              0000200000MG 257228257228 P01AB01OR               D                
28100348960SPLMVILAN 00102078Vilan                         inj.v‘ske, opl›sningINJVSKO       10 mg/ml            0000010000MGM034200257625 N02AA04IMIVSC  J                         
28100366461SPLMVELBE 00102247Velbe                         pulv.t.inj.v‘ske,oplINJPULO       10 mg               0000010000MG 250000250000 L01CA01IV                                
28100368661SPLMSAROTE00202162Saroten                       tabletter           TAB           25 mg               0000025000MG 035800035801 N06AA09OR       G   0273D                
28100372861SPLMOTRIVI00102164Otrivin                       n‘sedr†ber, opl›sn. NASDRBO       0,5 mg/ml           0000000500MGM011768011768 R01AA07IN                20110307        
28100375161SPLMERCOQU00102107Ercoquin                      tabletter           TAB           250 mg              0000250000MG 192000192000 P01BA02OR               D                
28100385861SPLMPROCTO00102593Proctosedyl                   rektalsalve         REKSALV                           0000000000   257228257228 C05AA01PR       G   0426                 
28100388961SPLMSULFA-00102227Sulfa-Streptocillin Vet.      uteritorier, tabl.  UTETAB        4 g + 250 mg +500 mg0000000000   205600205600QG51BE  IU                                
28100389161SPLMVANQUI00101990Vanquin                       tabletter           TAB           50 mg               0000050000MG 259936254766 P02CX01OR               D                
28100389461SPLMINTRAL00102229Intralipid                    inf.v‘ske, emulsion INFVSKE       10%                 0000010000PC 012263256331 B05BA02IV                                
28100391161SPLMVIBEDE00102290Vibeden                       inj.v‘ske, opl›sningINJVSKO       1 mg/ml             0000001000MGM255483255483 B03BA03IM                                
28100396662SPLMTETRAL00102260Tetralysal                    kapsler, h†rde      KAPH          150 mg              0000150000MG 012238012238 J01AA04OR               D                
28100399462SPLMFUCIDI00502212Fucidin                       filmovertrukne tabl.TABFILM       250 mg              0000250000MG 034800034800 J01XC01OR       G   1114D                
28100400362SPLMZAROND00102116Zarondan                      oral opl›sning      ORALOPL       50 mg/ml            0000050000MGM061800061800 N03AD01OR      J                         
28100400562SPLMSYNALA00102278Synalar                       creme               CREME         0,025%              0000000025PC 011231011231 D07AC04KU                                
28100401662SPLMPRED-C00102546Pred-Clysma                   rektalvsk.,opl,endosREKVSOE       0,25 mg/ml          0000000250MGM258499056800 A07EA01PR                                
28100405762SPLMSOFRAD00102508Sofradex                      ›jen- og ›redr†ber  OODRB         0,5 + 5,0 +0,05 mg/g0000000000   257228257228 S03CA01AUOK     G   3626                 
28100406862SPLMHAEMAC00102288Haemaccel                     infusionsv‘ske      INFVSK                            0000000000   254921254921 B05AA06IV                                
28100408962SPLMMICROL00102300Microlax                      rektalvsk.,opl,endosREKVSOE       9 mg/ml + 90 mg/ml  0000000000   258318258318 A06AG11PR       G   0416                 
28100410862SPLMGLUCAG00102514GlucaGen                      pulv.og sol.t.inj.opINJPSO        1 mg                0000001000MG 039000039000 H04AA01IMIVSC                            
28100413062SPLMINTRAL00202229Intralipid                    inf.v‘ske, emulsion INFVSKE       20%                 0000020000PC 012263256331 B05BA02IV                                
28100413462SPLMTYLAN 00602512Tylan Vet.                    pulv. vandopl›seligtPULVAOP                           0000000000   234300234300QJ01FA90DM       G   1008                 
28100417072SPLMFUCIDI00302212Fucidin                       oral suspension     ORALSUS       50 mg/ml            0000050000MGM034800034800 J01XC01OR                                
28100420162SPLMLIPIOD00100866Lipiodol Ultra Fluid          inj.v‘ske, opl›sningINJVSKO       38 %                0000038000PC 029000255536 V08AD01IULY                              
28100420262SPLMFLORIN00101405Florinef                      tabletter           TAB           0,1 mg              0000000100MG 249900254856 H02AA02OR                                
28100421962SPLMLINK  00202550Link                          tyggetabletter      TYGTAB        700 mg              0000700000MG 255237257213 A02AD01OR               D                
28100423962SPLMHALDID00102558Haldid                        inj.v‘ske, opl›sningINJVSKO       50 mikg/ml          0000050000RGM059900059900 N01AH01IV                                
28100427563SPLMHYDROC00102566Hydrocortison m.Terram.+Polym.›jen- og ›redrb,suspOODRBS        15 + 5 + 1 mg/ml    0000000000   061800061800 S03CA04AUOK                              
28100430763SPLMSERENA00301907Serenase                      tabletter           TAB           2 mg                0000002000MG 059900059900 N05AD01OR       G   0234D                
28100435763SPLMPROVER00102627Provera                       tabletter           TAB           5 mg                0000005000MG 061800061800 G03DA02OR                                
28100437363SPLMDESFER00102607Desferal                      pul.t.inj.+inf.,opl.INPULVO       500 mg              0000500000MG 011768011768 V03AC01IMIVSC   G   0490                 
28100438963SPLMTYLAN 00202512Tylan Vet.                    inj.v‘ske, opl›sningINJVSKO       200 mg/ml           0000200000MGM234300234300QJ01FA90IM       G   1057                 
28100439163SPLMNORITR00202616Noritren                      tabletter           TAB           25 mg               0000025000MG 035800035801 N06AA10OR       G   0700D                
28100444263SPLMNORITR00102616Noritren                      tabletter           TAB           10 mg               0000010000MG 035800035801 N06AA10OR               D                
28100445563SPLMLYSANT00102645Lysantin                      filmovertrukne tabl.TABFILM       50 mg               0000050000MG 192000192000 N04AB02OR       G   0225D                
28100448264SPLMSENDOX00301785Sendoxan                      pulv.t.inj.v‘ske,oplINJPULO       500 mg              0000500000MG 135400135400 L01AA01IV                                
28100454364SPLMTEGRET00302689Tegretol                      tabletter           TAB           200 mg              0000200000MG 011768011768 N03AF01OR      JG   0623D                
28100457064SPLMBETNOV00102231Betnovat                      creme               CREME         1 mg/g              0000001000MGG059300059300 D07AC01KU       G   3671                 
28100458064SPLMCELEST00202171Celestonvalerat               creme               CREME         0,1%                0000000100PC 011716257309 D07AC01KU                                
28100464864SPLMLINK  00102550Link                          oral suspension     ORALSUS       150 mg/ml           0000150000MGM255237257213 A02AD01OR                                
28100466264SPLMCALCIU00100177Calcium-Sandoz                brusetabletter      BRUTAB        500 mg              0000500000MG 255483255483 A12AA06OR       G   0420                 
28100467764SPLMESTRAD00101743Estradurin                    pulv.og sol.t.inj.opINJPSO        80 mg               0000080000MG 061800253096 L02AA02IM                                
28100474065SPLMBURONI00102818Buronil                       overtrukne tabletterTABOTR        25 mg               0000025000MG 257570010530 N05AD03OR               D                
28100474265SPLMFUCIDI00402212Fucidin                       salve               SALV          2%                  0000002000PC 034800034800 D06AX01KU       G   1093                 
28100474965SPLMSYNALA00402732Synalar 0,025 % med Chinoform creme               CREME         0,25 + 30 mg/g      0000000000   011231011231 D07BC02KU                                
28100478565SPLMSTESOL00602738Stesolid                      tabletter           TAB           2 mg                0000002000MG 255237257213 N05BA01OR      JG   0242D                
28100478865SPLMSYNACT00102739Synacthen                     inj.v‘ske, opl›sningINJVSKO       0,25 mg/ml          0000000250MGM261307010530 H01AA02IMIV                              
28100480365SPLMOXYTOC00202731Oxytocin Vet. "Novartis"      injektionsv‘ske     INJVSK        10 IE/ml            0000010000IUM012666012666QH01BB02IMIV     G   2239                 
28100480965SPLMNEULAC00102747Neulactil                     tabletter           TAB           2,5 mg              0000002500MG 257228257228 N05AC01OR               D                
28100481265SPLMMYLICO00102746Mylicon                       orale dr†ber, emuls.ORALDRE       64 mg/ml            0000064000MGM258318258318 A03AX13OR                                
28100484765SPLMBETNOV00602752Betnovat med Chinoform        salve               SALV          1 + 30 mg/g         0000000000   059300059300 D07BC01KU                                
28100484865SPLMCITANE00102777Citanest Dental Octapressin   inj.v‘ske, opl›sningINJVSKO       30 mg/ml+0,54mikg/ml0000000000   013281013281 N01BB54PE       G   2295                 
28100485165SPLMCELEST00102171Celeston                      inj.v‘ske,suspensionINJVSKS       5,71 mg/ml          0000005710MGM011716257309 H02AB01BSIDIMIR                          
28100486665SPLMAEROPA00202768Aeropax                       tyggetabletter      TYGTAB        40 mg               0000040000MG 039800254657 A03AX13OR               D                
28100486965SPLMEGAZIL00102859Egazil                        depottabletter      DEPTAB        0,2 mg              0000000200MG 254940262525 A03BA03OR               D                
28100487965SPLMMAXIDE00102916Maxidex                       ›jendr†ber, susp.   OJDRBS        1 mg/ml             0000001000MGM012200132300 S01BA01OK       G   2204                 
28100488965SPLMMARCAI00502765Marcain-adrenalin             injektionsv‘ske     INJVSK        2,5 mg + 5 mikg/ml  0000000000   056100056100 N01BB51ILIRPE                            
28100489065SPLMLACRIL00102897Lacril                        ›jendr†ber          OJDRB         14 mg/ml            0000014000MGM012765258152 S01XA20OK                                
28100489665SPLMMUCOMY00202760Mucomyst                      inhalationsv‘ske    INHVSK        200 mg/ml           0000200000MGM254940262525 R05CB01IH       G   3805                 
28100493671SPLMKALEOR00102790Kaleorid                      depottabletter      DEPTAB        750 mg              0000750000MG 034800034800 A12BA01OR               D                
28100503566SPLMKENALO00101819Kenalog                       inj.v‘ske,suspensionINJVSKS       40 mg/ml            0000040000MGM249900254856 H02AB08IDIR                              
28100505166SPLMCONFOR00102789Confortid                     kapsler, h†rde      KAPH          25 mg               0000025000MG 255237257213 M01AB01OR               D                
28100508966SPLMSOLU-C00201328Solu-cortef                   pulv.og sol.t.inj.opINJPSO        250 mg              0000250000MG 061800061800 H02AB09IMIV                              
28100510166SPLMPROGYN00101349Progynon                      tabletter           TAB           2 mg                0000002000MG 258134056800 G03CA03OR       G   0025                 
28100511866SPLMABALGI00202708Abalgin Retard                depotkapsler, h†rde DEPKAPH       150 mg              0000150000MG 258338258338 N02AC04OR      J        D20101227        
28100515267SPLMBETNOV00302231Betnovat                      kutanopl›sning      KUTOPL        1 mg/ml             0000001000MGM059300059300 D07AC01KU       G   0549                 
28100519867SPLMANAFRA00102887Anafranil                     inj.-/inf.vsk.,opl. INVSKO        12,5 mg/ml          0000012500MGM011768011768 N06AA04IMIV                              
28100520967SPLMIMUREL00202740Imurel                        filmovertrukne tabl.TABFILM       50 mg               0000050000MG 261560254657 L04AX01OR       G   0171                 
28100521967SPLMPACISY00202836Pacisyn                       tabletter           TAB           5 mg                0000005000MG 258338258338 N05CD02OR      JG   0257D                
28100523967SPLMPENTRE00102601Pentrexyl                     pul.t.inj.+inf.,opl.INPULVO       1 g                 0000001000G  249900254856 J01CA01IMIV                              
28100524267SPLMBERIGL00102948Beriglobin                    inj.v‘ske, opl›sningINJVSKO       160 mg/ml           0000160000MGM258140258374 J06BA01IM                                
28100526567SPLMTAVEGY00202841Tavegyl                       tabletter           TAB           1 mg                0000001000MG 011768011768 R06AA04OR      J        D                
28100528167SPLMNOZINA00301996Nozinan                       tabletter           TAB           100 mg              0000100000MG 257228257228 N05AA02OR       G   0661D                
28100529867SPLMCARDOP00102853Cardopax                      tabletter           TAB           5 mg                0000005000MG 039800254657 C01DA08OR               D                
28100532167SPLMTERRAM00200707Terramycin Vet.               uteritorier, tabl.  UTETAB        500 mg              0000500000MG 259559254780QG01AA07IU                                
28100533567SPLMMETRON00502805Metronidazol "Actavis"        filmovertrukne tabl.TABFILM       250 mg              0000250000MG 255237257213 P01AB01OR       G   0286D                
28100535568SPLMRIMACT00102856Rimactan                      kapsler, h†rde      KAPH          150 mg              0000150000MG 016000255483 J04AB02OR               D                
28100537068SPLMESBETR00102847Esbetre Vet.                  pulver til oral opl.ORAPULO       30%                 0000030000PC 012666012666QP51AG04OR                                
28100539968SPLMSINQUA00102896Sinquan                       kapsler, h†rde      KAPH          25 mg               0000025000MG 061800061800 N06AA12OR               D                
28100540268SPLMLOCACO00102775Locacorten-Vioform            ›redr†ber, opl›sningORDRBO        0,2 + 10 mg/g       0000000000   255247255247 S02CA02AU                                
28100542868SPLMPRIMPE00402862Primperan                     tabletter           TAB           10 mg               0000010000MG 257228257228 A03FA01OR       G   0012D                
28100542968SPLMPRIMPE00102862Primperan                     inj.v‘ske, opl›sningINJVSKO       5 mg/ml             0000005000MGM257228257228 A03FA01IMIV                              
28100545868SPLMAEROPA00102768Aeropax                       oral emulsion       ORALEMU       1%                  0000001000PC 039800254657 A03AX13OR                                
28100546168SPLMANTIST00101222Antistina-privin              ›jendrb., opl›sning OJDRBO        0,25 mg/ml + 5 mg/ml0000000000   011768011768 S01GA51OK       G   0752                 
28100546368SPLMVOREN 00102951Voren Vet.                    inj.v‘ske,suspensionINJVSKS       1 mg/ml             0000001000MGM149500205600QH02AB02IMIV                              
28100547068SPLMPRIMPE00202862Primperan                     oral opl›sning      ORALOPL       1 mg/ml             0000001000MGM257228257228 A03FA01OR                                
28100549668SPLMSOLU-M00302858Solu-medrol                   pulv.og sol.t.inj.opINJPSO        40 mg               0000040000MG 061800061800 H02AB04IMIV                              
28100550668SPLMOXYTET00102860Oxytetral                     filmovertrukne tabl.TABFILM       250 mg              0000250000MG 255237257213 J01AA06OR               D                
28100552969SPLMTETRAL00202260Tetralysal                    kapsler, h†rde      KAPH          300 mg              0000300000MG 012238012238 J01AA04OR       G   0442D                
28100559669SPLMVENTOL00302935Ventoline                     inhal.spray, susp.  INHSPRS       0,1 mg/dosis        0000000100MGD059300059300 R03AC02IH       G   0289                 
28100560069SPLMBRICAN00202900Bricanyl                      inj.v‘ske, opl›sningINJVSKO       0,5 mg/ml           0000000500MGM056100056100 R03CC03IV                                
28100560369SPLMDIPIPE00102525Dipiperon                     tabletter           TAB           40 mg               0000040000MG 059900059900 N05AD05OR               D                
28100560469SPLMFERRO 00103070Ferro Duretter                depottabletter      DEPTAB        100 mg              0000100000MG 261261260227 B03AA07OR               D                
28100563869SPLMPENTRE00302601Pentrexyl                     pul.t.inj.+inf.,opl.INPULVO       500 mg              0000500000MG 249900254856 J01CA01IMIV                              
28100563969SPLMFLUANX00202901Fluanxol Depot                injektionsv‘ske     INJVSK        20 mg/ml            0000020000MGM035800035801 N05AF01IM                                
28100565269SPLMSYNALA00202278Synalar                       gel                 GEL           0,025%              0000000025PC 011231011231 D07AC04KU                                
28100565569SPLMFLAGYL00502048Flagyl                        vagitorier          VAG           500 mg              0000500000MG 257228257228 G01AF01VA                                
28100566969SPLMROMPUN00102921Rompun Vet.                   inj.v‘ske, opl›sningINJVSKO       2 %                 0000002000PC 260088056800QN05CM92IMIV                              
28100568970SPLMBLEOMY00102883Bleomycin "Baxter"            injektionssubstans  INJSUB        15.000 IE           0015000000IU 135400135400 L01DC01IMIV                              
28100570370SPLMSANDOM00103049Sandomigrin                   overtrukne tabletterTABOTR        0,5 mg              0000000500MG 011768011768 N02CX01OR               D                
28100570970SPLMSIQUAL00102949Siqualone dekanoat            injektionsv‘ske     INJVSK        25 mg/ml            0000025000MGM249900254856 N05AB02IM                20101227        
28100571270SPLMSTESOL00402738Stesolid                      suppositorier       SUP           5 mg                0000005000MG 255237257213 N05BA01PR      J                         
28100571370SPLMTAVEGY00102841Tavegyl                       inj.v‘ske, opl›sningINJVSKO       1 mg/ml             0000001000MGM011768011768 R06AA04IMIV                              
28100571570SPLMTOILAX00202931Toilax                        rektalvsk.susp.endosREKVSSE       2 mg/ml             0000002000MGM039800254657 A06AG02PR                                
28100571670SPLMTOILAX00102931Toilax                        enterotabletter     ENTTAB        5 mg                0000005000MG 039800254657 A06AB02OR               D                
28100572170SPLMMARCAI00102957Marcain                       inj.v‘ske, opl›sningINJVSKO       2,5 mg/ml           0000002500MGM056100056100 N01BB01EDIRPE                            
28100573870SPLMRIMACT00202856Rimactan                      kapsler, h†rde      KAPH          300 mg              0000300000MG 016000255483 J04AB02OR       G   0593D                
28100575570SPLMORAP  00102938Orap                          tabletter           TAB           1 mg                0000001000MG 059900059900 N05AG02OR       G   0658D                
28100575670SPLMORAP  00202938Orap                          tabletter           TAB           4 mg                0000004000MG 059900059900 N05AG02OR       G   0659D                
28100579370SPLMTEMEST00103040Temesta                       tabletter           TAB           1 mg                0000001000MG 061800262100 N05BA06OR      JG   0249D                
28100582070SPLMHIRUDO00100920Hirudoid                      gel                 GEL           3 mg/g              0000003000MGG147100250000 C05BA01KU                                
28100582370SPLMOVESTI00101702Ovestin                       tabletter           TAB           1 mg                0000001000MG 039500257309 G03CA04OR       G   0574                 
28100583070SPLMAPOZEP00102962Apozepam                      tabletter           TAB           2 mg                0000002000MG 255237257213 N05BA01OR      JG   0242D                
28100583470SPLMLEDERS00102946Lederspan                     inj.v‘ske,suspensionINJVSKS       20 mg/ml            0000020000MGM254766254766 H02AB08IRPT                              
28100583670SPLMHAIPRE00102979Haiprex                       tabletter           TAB           1 g                 0000001000G  254766254766 J01XX05OR               D                
28100583770SPLMBRENTA00302978Brentan                       creme               CREME         20 mg/g             0000020000MGG258318258318 D01AC02KU       G   0557                 
28100583870SPLMBRENTA00802978Brentan                       vaginalcreme        VAGCREM       20 mg/g             0000020000MGG258318258318 G01AF04VA                                
28100585571SPLMDIAMOX00100206Diamox                        tabletter           TAB           125 mg              0000125000MG 012565012565 S01EC01OR               D                
28100586171SPLMDUOPRI00103137Duoprim Vet.                  inj.v‘ske, opl›sningINJVSKO       200+ 40 mg/ml       0000000000   031500262114QJ01EW13IMIV                              
28100587871SPLMRESONI00202959Resonium Calcium              pulv.t.oral/rekt.susPULORES                           0000000000   257228257228 V03AE01OR                                
28100590071SPLMDALACI00203181Dalacin                       kapsler, h†rde      KAPH          150 mg              0000150000MG 061800061800 J01FF01OR       G   2063D                
28100590771SPLMDIMAZO00120766Dimazon Vet.                  inj.v‘ske, opl›sningINJVSKO       50 mg/ml            0000050000MGM031500262114QC03CA01IMIV                              
28100591171SPLMBORGAL00103052Borgal Vet.                   inj.v‘ske, opl›sningINJVSKO       200 + 40 mg/ml      0000000000   261182258503QJ01EW13IMIVSC   G   2133                 
28100591671SPLMPRIMPE00302862Primperan                     suppositorier       SUP           20 mg               0000020000MG 257228257228 A03FA01PR       G   0501                 
28100592071SPLMKEFLEX00102934Keflex                        tabletter           TAB           500 mg              0000500000MG 253096250000 J01DB01OR                                
28100594371SPLMBURINE00202996Burinex                       tabletter           TAB           1 mg                0000001000MG 034800034800 C03CA02OR       G   2421D                
28100597671SPLMPROVER00202627Provera                       tabletter           TAB           100 mg              0000100000MG 061800061800 L02AB02OR                                
28100599271SPLMMYDRIA00103020Mydriacyl                     ›jendrb., opl›sning OJDRBO        0,5%                0000000500PC 012200132300 S01FA06OK                                
28100599471SPLMLOCOID00203012Locoid                        kutanopl›sning      KUTOPL        0,1%                0000000100PC 256269256269 D07AB02KU       G   0696                 
28100599571SPLMLOCOID00303012Locoid                        salve               SALV          0,1%                0000000100PC 256269256269 D07AB02KU                                
28100599671SPLMLOCOID00103012Locoid                        creme               CREME         0,1%                0000000100PC 256269256269 D07AB02KU                                
28100599771SPLMSEPAN 00102194Sepan                         tabletter           TAB           25 mg               0000025000MG 258318258318 N07CA02OR      JG   0477D                
28100599871SPLMLITARE00103029Litarex                       depottabletter      DEPTAB        6 mmol Li+          0000006000MMO255237257213 N05AN01OR               D                
28100600471SPLMSAROTE00302162Saroten Retard                depotkapsler        DEPKAP        25 mg               0000025000MG 035800035801 N06AA09OR               D                
28100600571SPLMVENTOL00502935Ventoline                     inhalationsv‘ske    INHVSK        5 mg/ml             0000005000MGM059300059300 R03AC02IH       G   0351                 
28100602871SPLMURISPA00103017Urispadol                     tabletter           TAB           200 mg              0000200000MG 257843257843 G04BD02OR               D                
28100602971SPLMBRICAN00402900Bricanyl                      oral opl›sning      ORALOPL       0,3 mg/ml           0000000300MGM056100056100 R03CC03OR                                
28100604472SPLMMETOSY00103126Metosyn                       salve               SALV          0,05%               0000000050PC 011231011231 D07AC08KU                                
28100604872SPLMXENTO 00102999Xento Vet. Vaccine            inj.v‘ske,suspensionINJVSKS                           0000000000   031500262114QI09AB12SC                                
28100606772SPLMMINIRI00103019Minirin                       n‘sedr†ber, opl›sn. NASDRBO       0,1 mg/ml           0000000100MGM011483011483 H01BA02IN       G   2124                 
28100607472SPLMLIORES00503018Lioresal                      tabletter           TAB           10 mg               0000010000MG 011768011768 M03BX01OR      JG   0203D                
28100608472SPLMCANEST00103105Canesten                      creme               CREME         1%                  0000001000PC 056800056800 D01AC01KU                                
28100608672SPLMCANEST00303105Canesten                      vaginaltabletter    VAGTAB        100 mg              0000100000MG 056800056800 G01AF02VA       G   1003                 
28100609372SPLMIBARIL00103068Ibaril                        creme               CREME         0,25%               0000000250PC 257228257228 D07AC03KU                                
28100609972SPLMBETASE00103276Betaserc                      tabletter           TAB           8 mg                0000008000MG 262373261976 N07CA01OR       G   0475D                
28100611372SPLMANDROC00103046Androcur                      tabletter           TAB           50 mg               0000050000MG 258134056800 G03HA01OR       G   0577                 
28100612972SPLMMINDIA00103274Mindiab                       tabletter           TAB           5 mg                0000005000MG 061800061800 A10BB07OR       G   0512D                
28100613272SPLMSOLU-M00402858Solu-medrol                   pulv.og sol.t.inj.opINJPSO        125 mg              0000125000MG 061800061800 H02AB04IMIV                              
28100613372SPLMSOLU-M00502858Solu-medrol                   pulv.og sol.t.inj.opINJPSO        500 mg              0000500000MG 061800061800 H02AB04IMIV     G   2388                 
28100615172SPLMDIPROD00103078Diproderm                     creme               CREME         0,05%               0000000050PC 011716257309 D07AC01KU       G   0544                 
28100615372SPLMVENTOL00702935Ventoline                     oral opl›sning      ORALOPL       0,4 mg/ml           0000000400MGM059300059300 R03CC02OR       G   0288                 
28100615872SPLMCATAPR00102803Catapresan                    overtrukne tabletterTABOTR        25 mikg             0000025000RG 013525205600 N02CX02OR       G   2359D                
28100616272SPLMTREOSU00308354Treosulfan "Medac"            kapsler, h†rde      KAPH          250 mg              0000250000MG 012718012532 L01AB02OR                                
28100616672SPLMSERENA00401907Serenase                      tabletter           TAB           5 mg                0000005000MG 059900059900 N05AD01OR       G   0235D                
28100619272SPLMFLUANX00102743Fluanxol                      tabletter           TAB           5 mg                0000005000MG 035800035801 N05AF01OR               D                
28100620972SPLMABBOTI00400748Abboticin                     filmovertrukne tabl.TABFILM       500 mg              0000500000MG 255247255247 J01FA01OR       G   0149D                
28100622372SPLMHERACI00103033Heracillin                    filmovertrukne tabl.TABFILM       500 mg              0000500000MG 254766254766 J01CF05OR       G   3842                 
28100622672SPLMAVIPRO00503041AviPro MD LYO                 pulv.t.inj.v‘ske,oplINJPULO                           0000000000   012374062800QI01AD03IMSC              20101227        
28100625573SPLMVISINE00100245Visine Visiclear              ›jendrb., opl›sning OJDRBO        0,5 mg/ml           0000000500MGM258318258318 S01GA02OK                                
28100627873SPLMABBOTI00200748Abboticin                     gran. til oral susp.ORAGRAS       40 mg/ml            0000040000MGM255247255247 J01FA01OR       G   0146                 
28100631373SPLMFLAGYL00402048Flagyl                        filmovertrukne tabl.TABFILM       400 mg              0000400000MG 257228257228 P01AB01OR               D                
28100631773SPLMNITOMA00103850Nitoman                       tabletter           TAB           25 mg               0000025000MG 261793261793 N07XX06OR               D                
28100632573SPLMDERMOV00103768Dermovat                      creme               CREME         0,5 mg/g            0000000500MGG059300059300 D07AD01KU       G   0554                 
28100632673SPLMDERMOV00303768Dermovat                      salve               SALV          0,5 mg/g            0000000500MGG059300059300 D07AD01KU       G   0555                 
28100634973SPLMMYCOST00101375Mycostatin                    oral suspension     ORALSUS       100.000 IE/ml       0100000000IUM249900254856 A07AA02OR       G   0509                 
28100636073SPLMPANODI00103115Panodil                       filmovertrukne tabl.TABFILM       500 mg              0000500000MG 256647256647 N02BE01OR       G   0220D                
28100636173SPLMORUDIS00203206Orudis                        kapsler, h†rde      KAPH          50 mg               0000050000MG 257228257228 M01AE03OR       G   0197D                
28100636473SPLMDIPROD00203078Diproderm                     kutanopl›sning      KUTOPL        0,05%               0000000050PC 011716257309 D07AC01KU       G   0546                 
28100636573SPLMDIPROD00303078Diproderm                     salve               SALV          0,05%               0000000050PC 011716257309 D07AC01KU       G   0545                 
28100636673SPLMMADOPA00103147Madopar "125"                 kapsler, h†rde      KAPH          100+25 mg           0000000000   062700062700 N04BA02OR       G   0638D                
28100636773SPLMMADOPA00303147Madopar "250"                 kapsler, h†rde      KAPH          200+50 mg           0000000000   062700062700 N04BA02OR       G   0641D                
28100639173SPLMTERRAM00100707Terramycin Vet.               pulver til oral opl.ORAPULO       20%                 0000020000PC 259559254780QJ01AA06OR                                
28100639473SPLMAPODOR00103121Apodorm                       tabletter           TAB           5 mg                0000005000MG 255237257213 N05CD02OR      JG   0257D                
28100641874SPLMDALACI00103181Dalacin                       inj.v‘ske, opl›sningINJVSKO       150 mg/ml           0000150000MGM061800061800 J01FF01IMIV     G   2098                 
28100643374SPLMLEPONE00103125Leponex                       tabletter           TAB           25 mg               0000025000MG 011768011768 N05AH02OR       G   0363D                
28100643574SPLMLEPONE00203125Leponex                       tabletter           TAB           100 mg              0000100000MG 011768011768 N05AH02OR       G   0364D                
28100643674SPLMCANAUR00103209Canaural                      ›redr†ber           ORDRB                             0000000000   260458260458QS02CA01AU                                
28100644474SPLMTRIBRI00403089Tribrissen Vet.               tabletter           TAB           400 + 80 mg         0000000000   031500262114QJ01EW10OR                                
28100645874SPLMRIVOTR00203135Rivotril                      tabletter           TAB           0,5 mg              0000000500MG 062700062700 N03AE01OR      JG   0621D                
28100645974SPLMRIVOTR00303135Rivotril                      tabletter           TAB           2 mg                0000002000MG 062700062700 N03AE01OR      JG   0622D                
28100646174SPLMRIVOTR00103135Rivotril                      orale dr†ber        ORALDRB       2,5 mg/ml           0000002500MGM062700062700 N03AE01OR      J                         
28100647574SPLMRIMACT00302856Rimactan                      overtrukne tabletterTABOTR        450 mg              0000450000MG 016000255483 J04AB02OR               D                
28100649974SPLMFLAMAZ00103644Flamazine                     creme               CREME         1%                  0000001000PC 012861262764 D06BA01KU       G   2420                 
28100650074SPLMPORCIL01203691Porcilis T-Brand Vet.         inj.v‘ske,suspensionINJVSKS                           0000000000   031500262114QI09AB12SC                                
28100651774SPLMLEXOTA00103192Lexotan                       tabletter           TAB           3 mg                0000003000MG 062700062700 N05BA08OR      JG   0251D                
28100651874SPLMLEXOTA00203192Lexotan                       tabletter           TAB           6 mg                0000006000MG 062700062700 N05BA08OR      JG   0252D                
28100652874SPLMLINCOC00102683Lincocin Vet.                 injektionsv‘ske     INJVSK        100 mg/ml           0000100000MGM259559254780QJ01FF52IM                                
28100656374SPLMDIURAL00203585Diural                        tabletter           TAB           20 mg               0000020000MG 255237257213 C03CA01OR       G   0061D                
28100656474SPLMDIURAL00303585Diural                        tabletter           TAB           40 mg               0000040000MG 255237257213 C03CA01OR       G   0062D                
28100656574SPLMDIURAL00403585Diural                        tabletter           TAB           250 mg              0000250000MG 255237257213 C03CA01OR       G   0009D                
28100656774SPLMGAVISC00202864Gaviscon                      tyggetabletter      TYGTAB                            0000000000   012582257625 A02BX13OR               D                
28100657174SPLMCYCLOG00101350Cyclogyl                      ›jendrb., opl›sning OJDRBO        1%                  0000001000PC 012200132300 S01FA04OK                                
28100657875SPLMCINCAI00103159Cincain "Ophtha"              ›jensalve           OJSALV        0,5%                0000000500PC 256938256938 S01HA06CO                                
28100657975SPLMVENTOL00802935Ventoline                     tabletter           TAB           4 mg                0000004000MG 059300059300 R03CC02OR               D                
28100658675SPLMESTRAC00103145Estracyt                      kapsler, h†rde      KAPH          140 mg              0000140000MG 061800061800 L01XX11OR                                
28100659475SPLMMIACAL00103194Miacalcic                     inj.-/inf.vsk.,opl. INVSKO        100 IE/ml           0000100000IUM011768011768 H05BA01IMIVSC                            
28100660875SPLMFLUANX00302901Fluanxol Depot                injektionsv‘ske     INJVSK        100 mg/ml           0000100000MGM035800035801 N05AF01IM                                
28100661175SPLMFUCIDI00202212Fucidin                       pul.sol.t.konc.t.infINFKPSO       500 mg              0000500000MG 034800034800 J01XC01IV       G   2402                 
28100661375SPLMSOLU-M00102858Solu-medrol                   pulv.og sol.t.inj.opINJPSO        1 g                 0000001000G  061800061800 H02AB04IMIV     G   2389                 
28100665575SPLMNITROL00103627Nitrolingual                  sublingualspray     SUBLSPR       0,4 mg/dosis        0000000400MGD042000042000 C01DA02SL       G   1053                 
28100665775SPLMTREO  00103575Treo                          brusetabletter      BRUTAB        500+50 mg           0000000000   258318258318 N02BA51OR       G   0367                 
28100666975SPLMPANACU00403268Panacur Vet.                  oral suspension     ORALSUS       10%                 0000010000PC 031500262114QP52AC13OR                                
28100668675SPLMAVIPRO00303186Avipro IB H 120               pulv.t.opl.i drikkevPULOPDR                           0000000000   012374062800QI01AD07DM                                
28100668975SPLMBRUFEN00103006Brufen                        filmovertrukne tabl.TABFILM       400 mg              0000400000MG 262342259172 M01AE01OR       G   0186D                
28100669272SPLMBANMIN00102906Banminth Vet.                 oral pasta          ORALPAS       21,7 mg/g (hund/r‘v)0000021700MGG259559254780QP52AF02OR                                
28100669675SPLMBRENTA00702978Brentan                       vagitorier          VAG           100 mg              0000100000MG 258318258318 G01AF04VA                                
28100669775SPLMESTROF00203602Estrofem                      filmovertrukne tabl.TABFILM       2 mg                0000002000MG 039000039000 G03CA03OR       G   0190                 
28100669975SPLMTRISEK00103601Trisekvens                    filmovertrukne tabl.TABFILM                           0000000000   039000039000 G03FB05OR       G   0576                 
28100671575SPLMCOLINO00103214Colinovina Vet.               oral opl›sning      ORALOPL       20 %                0000020000PC 205600205600QA07AA01OR                                
28100672875SPLMPANACU00303268Panacur Vet.                  oralt pulver        ORALPUL       4%                  0000004000PC 031500262114QP52AC13OR                                
28100673275SPLMTOLVON00103797Tolvon                        filmovertrukne tabl.TABFILM       10 mg               0000010000MG 039500257309 N06AX03OR       G   0280D                
28100673375SPLMCISORD00403290Cisordinol Depot              inj.v‘ske, opl›sningINJVSKO       200 mg/ml           0000200000MGM035800035801 N05AF05IM       G   0657                 
28100674375SPLMSINQUA00202896Sinquan                       kapsler, h†rde      KAPH          50 mg               0000050000MG 061800061800 N06AA12OR               D                
28100675075SPLMGLUCOS00603629Glucos.100mg/ml Fresenius Kabiinf.v‘ske, opl›sningINFVSKO       100 mg/ml           0000100000MGM012263256331 B05BA03IV                                
28100675475SPLMMANNIT00203633Mannitol "Fresenius Kabi"     inf.v‘ske, opl›sningINFVSKO       150 mg/ml           0000150000MGM012263256331 B05BC01IV                                
28100675575SPLMNATRIU00203295Natriumklorid "Baxter" 9 mg/mlinf.v‘ske i viaflex.INFVSKV       9 mg/ml             0000009000MGM135400135400 B05BB01IV                                
28100675675SPLMRINGER00303635Ringer-lactat "Fresenius Kabi"inf.v‘ske, opl›sningINFVSKO                           0000000000   012263256331 B05BB01IV                                
28100676275SPLMAVIPRO00103257AviPro AE                     oral susp., drikkev.ORALSUV                           0000000000   012374062800QI01AD02DM                                
28100676975SPLMNITRAZ00103649Nitrazepam "DAK"              tabletter           TAB           5 mg                0000005000MG 020800020802 N05CD02OR      JG   0257D                
28100677375SPLMLINCO-00203183Linco-spectin Vet.            oralt pulver        ORALPUL       22+22 mg/g          0000000000   259559254780QJ01FF52FO       G   0484                 
28100677475SPLMLINCO-00103183Linco-spectin Vet.            inj.v‘ske, opl›sningINJVSKO       50+100 mg/ml        0000000000   259559254780QJ01FF52IM                                
28100680975SPLMTRIBRI00303089Tribrissen Vet.               inj.v‘ske,suspensionINJVSKS       400 + 80 mg/ml      0000000000   031500262114QJ01EW10IMIV     G   2055                 
28100685375SPLMDOGMAT00103998Dogmatil                      tabletter           TAB           200 mg              0000200000MG 257228257228 N05AL01OR       G   0236D                
28100688875SPLMBRENTA00103789Brentacort                    creme               CREME         20+10 mg/g          0000000000   059900059900 D01AC20KU       G   0432                 
28100689776SPLMDINOLY00103753Dinolytic Vet.                inj.v‘ske, opl›sningINJVSKO       5 mg/ml             0000005000MGM259559254780QG02AD01IM                                
28100689876SPLMADESAN00103614Adesan Vet.                   inj.v‘ske, opl›sningINJVSKO                           0000000000   205600205600QA11JA  IMSC                              
28100690176SPLMAETHOX00103277Aethoxysklerol                inj.v‘ske, opl›sningINJVSKO       5 mg/ml             0000005000MGM033500261793 C05BB02IV                                
28100690276SPLMAETHOX00203277Aethoxysklerol                inj.v‘ske, opl›sningINJVSKO       10 mg/ml            0000010000MGM033500261793 C05BB02IV                                
28100690576SPLMAETHOX00303277Aethoxysklerol                inj.v‘ske, opl›sningINJVSKO       30 mg/ml            0000030000MGM033500261793 C05BB02IV                                
28100690776SPLMBALANC00703272Balancid Novum                tyggetabletter      TYGTAB        449 mg + 104 mg     0000000000   254940262525 A02AD01OR               D                
28100690976SPLMTENORM00203593Tenormin                      filmovertrukne tabl.TABFILM       50 mg               0000050000MG 061800061800 C07AB03OR       G   0086D                
28100691076SPLMTENORM00303593Tenormin                      filmovertrukne tabl.TABFILM       100 mg              0000100000MG 061800061800 C07AB03OR       G   0087D                
28100693676SPLMAMPICI00103603Ampicillin "PCD"              filmovertrukne tabl.TABFILM       500 mg              0000500000MG 250000250000 J01CA01OR                                
28100695476SPLMAMITRI00103564Amitriptylin "DAK"            filmovertrukne tabl.TABFILM       10 mg               0000010000MG 020800020802 N06AA09OR       G   0272D                
28100695576SPLMAMITRI00203564Amitriptylin "DAK"            filmovertrukne tabl.TABFILM       25 mg               0000025000MG 020800020802 N06AA09OR       G   0273D                
28100695676SPLMAMITRI00303564Amitriptylin "DAK"            filmovertrukne tabl.TABFILM       50 mg               0000050000MG 020800020802 N06AA09OR       G   0274D                
28100695776SPLMSOLUVI00103280Soluvit                       pulver til inf.v‘skeINFPUL                            0000000000   012263256331 B05XC  IV                                
28100696076SPLMVITALI00103286Vitalipid Adult               konc.t.inf.vsk.,emulKONINFE                           0000000000   012263256331 B05XC  IV                                
28100697276SPLMVITALI00203286Vitalipid Infant              konc.t.inf.vsk.,emulKONINFE                           0000000000   012263256331 B05XC  IV                                
28100698876SPLMDIPROS00203552Diprosalic                    salve               SALV          0,5+30 mg/g         0000000000   011716257309 D07XC01KU       G   0558                 
28100699876SPLMBANMIN00302906Banminth Vet.                 oral pasta          ORALPAS       439 mg/g (hest)     0000439000MGG259559254780QP52AF02OR                                
28100699976SPLMTRANDA00203665Trandate                      filmovertrukne tabl.TABFILM       100 mg              0000100000MG 059300059300 C07AG01OR               D                
28100700076SPLMTRANDA00103665Trandate                      inj.v‘ske, opl›sningINJVSKO       5 mg/ml             0000005000MGM059300059300 C07AG01IV       G   2395                 
28100700476SPLMA-VITA00104000A-vitamin "Medic"             filmovertrukne tabl.TABFILM       50.000 IE           0050000000IU 192000192000 A11CA01OR                                
28100701476SPLMADRENA00104006Adrenalin "DAK"               inj.v‘ske, opl›sningINJVSKO       1 mg/ml             0000001000MGM020800020802 C01CA24ICIMIVSC                          
28100702376SPLMALMINO00104056Alminox "DAK"                 tyggetabletter      TYGTAB        500 mg + 100 mg     0000000000   020800020802 A02AD01OR               D                
28100704876SPLMATROPI00104021Atropin "DAK"                 inj.v‘ske, opl›sningINJVSKO       1 mg/ml             0000001000MGM020800020802 A03BA01IMIVSC                            
28100707376SPLMBORAKS00104035Boraks "Ophtha"               ›jenbadevand        OJBADV        1 %                 0000001000PC 256938256938 S01AX07OK                                
28100709276SPLMABALGI00102708Abalgin                       filmovertrukne tabl.TABFILM       65 mg               0000065000MG 258338258338 N02AC04OR      J        D                
28100709776SPLMDIGOXI00104043Digoxin "DAK"                 tabletter           TAB           62,5 mikg           0000062500RG 020800020802 C01AA05OR               D                
28100709876SPLMDIGOXI00204043Digoxin "DAK"                 tabletter           TAB           250 mikrogram       0000250000RG 020800020802 C01AA05OR               D                
28100711576SPLMERGOKO00104049Ergokoffin                    overtrukne tabletterTABOTR        1 + 100 mg          0000000000   011763011763 N02CA52OR               D                
28100713276SPLMFENEMA00104066Fenemal "DLF"                 tabletter           TAB           15 mg               0000015000MG 258338258338 N03AA02OR      J        D                
28100713376SPLMFENEMA00204066Fenemal "DLF"                 tabletter           TAB           50 mg               0000050000MG 258338258338 N03AA02OR      J        D                
28100713476SPLMFENEMA00304066Fenemal "DLF"                 tabletter           TAB           100 mg              0000100000MG 258338258338 N03AA02OR      J        D                
28100713876SPLMFENYLB00104069Fenylbutazon "OBA"            tabletter           TAB           200 mg              0000200000MG 011763011763 M01AA01OR               D                
28100714076SPLMFENYTO00104070Fenytoin "DAK"                tabletter           TAB           100 mg              0000100000MG 020800020802 N03AB02OR      J        D                
28100714576SPLMFERROP00104073Ferroplex-frangula "ERA"      tabletter           TAB                               0000000000   255694255694 B03AA08OR               D                
28100715276SPLMFOLIME00204077Folimet                       tabletter           TAB           5 mg                0000005000MG 261793261793 B03BB01OR               D                
28100716376SPLMPECTYL00104178Pectyl Brystdr†ber "DAK"      oral opl›sning      ORALOPL       1,7+1,7+1,2+164mg/ml0000000000   020800020802 R05FA02OR      J                         
28100716476SPLMPECTYL00204178Pectyl St‘rke Brystdr†ber DAK oral opl›sning      ORALOPL       2,7+2,7+1,8+45 mg/ml0000000000   020800020802 R05FA02OR      J                         
28100717276SPLMGLYOKT00104088Glyoktyl                      klysma              KLY           6 + 770 mg/ml       0000000000   192000192000 A06AG10PR       G   0741                 
28100718376SPLMHYDROK00104096Hydrokortison "Galderma"      creme               CREME         1%                  0000001000PC 012238012238 D07AA02KU                                
28100718476SPLMHYDROK00204096Hydrokortison "Galderma"      salve               SALV          1 %                 0000001000PC 012238012238 D07AA02KU                                
28100719276SPLMIMIPRA00104099Imipramin "DAK"               filmovertrukne tabl.TABFILM       10 mg               0000010000MG 020800020802 N06AA02OR               D                
28100719376SPLMIMIPRA00204099Imipramin "DAK"               filmovertrukne tabl.TABFILM       25 mg               0000025000MG 020800020802 N06AA02OR               D                
28100722776SPLMKININ 00104123Kinin "DAK"                   filmovertrukne tabl.TABFILM       100 mg              0000100000MG 020800020802 P01BC01OR               D                
28100723476SPLMKLOPOX00104126Klopoxid "DAK"                filmovertrukne tabl.TABFILM       5 mg                0000005000MG 020800020802 N05BA02OR      J        D                
28100723576SPLMKLOPOX00204126Klopoxid "DAK"                filmovertrukne tabl.TABFILM       10 mg               0000010000MG 020800020802 N05BA02OR      JG   0245D                
28100723676SPLMKLOPOX00304126Klopoxid "DAK"                filmovertrukne tabl.TABFILM       25 mg               0000025000MG 020800020802 N05BA02OR      JG   0246D                
28100724176SPLMKLORAM00104128Kloramfenikol "DAK"           ›jendrb., opl›sning OJDRBO        0,5%                0000000500PC 020800020802 S01AA01OK                                
28100724276SPLMKLORAM00204128Kloramfenikol "DAK"           ›jensalve           OJSALV        1%                  0000001000PC 020800020802 S01AA01CO                                
28100725676SPLMKLORZO00104133Klorzoxazon "DAK"             tabletter           TAB           250 mg              0000250000MG 020800020802 M03BB03OR      J        D                
28100725776SPLMKODAMI00104134Kodamid "DAK"                 tabletter           TAB           250 +9,6 +50 +150 mg0000000000   020800020802 N02BA75OR               D                
28100725976SPLMKODEIN00104136Kodein "DAK"                  oral opl›sning      ORALOPL       3 mg/ml             0000003000MGM020800020802 R05DA04OR      J                         
28100726076SPLMKODEIN00304136Kodein St‘rk "DAK"            oral opl›sning      ORALOPL       8 mg/ml             0000008000MGM020800020802 R05DA04OR      J                         
28100726176SPLMKODEIN00204136Kodein "DAK"                  filmovertrukne tabl.TABFILM       25 mg               0000025000MG 020800020802 R05DA04OR      J        D                
28100726476SPLMKODIMA00304138Kodimagnyl Ikke-stoppende DAK filmovertrukne tabl.TABFILM       500+9,6 mg          0000000000   020800020802 N02BA51OR               D                
28100726976SPLMKOFFEI00104141Koffein-fenazon "DAK"         tabletter           TAB           50 + 500 mg         0000000000   020800020802 N02BB51OR               D                
28100727576SPLMKOFFIS00104207Koffisal "DAK"                tabletter           TAB           250 + 50 + 250 mg   0000000000   020800020802 N02BB51OR               D                
28100731076SPLMLITIUM00104159Litiumkarbonat "OBA"          tabletter           TAB           300mg (8,1 mmol Li+)0000300000MG 011763011763 N05AN01OR               D                
28100732876SPLMMENADI00104183Menadion "Medic"              tabletter           TAB           10 mg               0000010000MG 192000192000 B02BA01OR               D                
28100734376SPLMMETADO00104172Metadon "DAK"                 inj.v‘ske, opl›sningINJVSKO       10 mg/ml            0000010000MGM020802020802 N07BC02SC      J                         
28100734576SPLMMETADO00304172Metadon "DAK"                 tabletter           TAB           5 mg                0000005000MG 020802020802 N07BC02OR      JG   3830D                
28100736376SPLMMORFIN00104333Morfin "DAK"                  inj.v‘ske, opl›sningINJVSKO       20 mg/ml            0000020000MGM020800020802 N02AA01IMSC    J                         
28100737676SPLMNATRIU00804217Natriumklorid Isotonisk "DAK" inj.v‘ske, opl›sningINJVSKO       9 mg/ml             0000009000MGM020800020802 V07AB  IV                                
28100739776SPLMNITROF00104229Nitrofurantoin "DAK"          tabletter           TAB           50 mg               0000050000MG 020800020802 J01XE01OR               D                
28100740376SPLMNITROG00104231Nitroglycerin "DAK"           resoribl., subling. RESOSUB       0,25 mg             0000000250MG 020800020802 C01DA02SL                                
28100740476SPLMNITROG00204231Nitroglycerin "DAK"           resoribl., subling. RESOSUB       0,5 mg              0000000500MG 020800020802 C01DA02SL                                
28100741176SPLMNOSKAP00104236Noskapin "DAK"                filmovertrukne tabl.TABFILM       25 mg               0000025000MG 020800020802 R05DA07OR               D                
28100742176SPLMPAPAVE00104242Papaverin "OBA"               tabletter           TAB           35 mg               0000035000MG 011763011763 A03AD01OR               D                
28100743176SPLMPETIDI00104247Petidin "DAK"                 inj.v‘ske, opl›sningINJVSKO       50 mg/ml            0000050000MGM020800020802 N02AB02IMSC    J                         
28100743376SPLMPETIDI00204247Petidin "DAK"                 suppositorier       SUP           100 mg              0000100000MG 020800020802 N02AB02PR      J                         
28100743476SPLMPETIDI00304247Petidin "DAK"                 tabletter           TAB           25 mg               0000025000MG 020800020802 N02AB02OR      J        D                
28100743576SPLMPILOKA00104248Pilokarpin "Ophtha"           ›jendr†ber          OJDRB         2%                  0000002000PC 256938256938 S01EB01OK                                
28100743676SPLMPILOKA00204248Pilokarpin "Ophtha"           ›jendr†ber          OJDRB         4%                  0000004000PC 256938256938 S01EB01OK                                
28100744276SPLMPREDNI00104252Prednisolon "DAK"             tabletter           TAB           2,5 mg              0000002500MG 020800020802 H02AB06OR       G   0346D                
28100744676SPLMPREDNI00704253Prednison "DAK"               tabletter           TAB           5 mg                0000005000MG 020800020802 H02AB07OR               D                
28100744776SPLMPRIMID00204254Primidon "ERA"                tabletter           TAB           250 mg              0000250000MG 255694255694 N03AA03OR      JG   0974D                
28100744876SPLMPROBEN00104255Probenecid "Medic"            tabletter           TAB           250 mg              0000250000MG 192000192000 M04AB01OR               D                
28100745876SPLMPROMET00404259Prometazin "ERA"              tabletter           TAB           25 mg               0000025000MG 255694255694 R06AD02OR      J        D                
28100745976SPLMPROPYL00104260Propyltiouracil "Medic"       tabletter           TAB           100 mg              0000100000MG 192000192000 H03BA02OR               D                
28100746876SPLMRESORC00104265Resorcinol "Ophtha"           ›jendr†ber          OJDRB         1%                  0000001000PC 256938256938 S01AX06OK                                
28100749176SPLMSKOPOL00104281Skopolamin "Ophtha"           ›jendr†ber          OJDRB         0,2%                0000000200PC 256938256938 S01FA02OK                                
28100750576SPLMSULFAM00204289Sulfametizol "Actavis"        tabletter           TAB           500 mg              0000500000MG 258171257213 J01EB02OR       G   0141D                
28100750676SPLMSULFAM00104289Sulfametizol "Actavis"        ›jendr†ber          OJDRB         4%                  0000004000PC 257213257213 S01AB01OK                                
28100753476SPLMTETRAC00304301Tetracyklin "DAK"             filmovertrukne tabl.TABFILM       250 mg              0000250000MG 020800020802 J01AA07OR               D                
28100753576SPLMTETRAC00404301Tetracyklin "DAK"             filmovertrukne tabl.TABFILM       333 mg              0000333000MG 020800020802 J01AA07OR               D                
28100758676SPLMJENSA00104329jensalve Neutral "Ophtha"    ›jensalve           OJSALV        200 mg/g            0000200000MGG256938256938 S01XA20CO                                
28100777276SPLMPREDNI00204252Prednisolon "DAK"             tabletter           TAB           5 mg                0000005000MG 020800020802 H02AB06OR       G   0347D                
28100777376SPLMPYRAZI00104417Pyrazinamid "Medic"           tabletter           TAB           500 mg              0000500000MG 192000192000 J04AK01OR               D                
28100786776SPLMDEPO-P00103221Depo-provera                  inj.v‘ske,suspensionINJVSKS       50 mg/ml            0000050000MGM061800061800 G03DA02IM                                
28100787776SPLMMICROG00103231Microgyn                      overtrukne tabletterTABOTR        0,15 + 0,03 mg      0000000000   258134056800 G03AA07OR       G   0107                 
28100789776SPLMMETADO00204172Metadon "DAK"                 oral opl›sning      ORALOPL       1 mg/ml             0000001000MGM020802020802 N07BC02OR      JG   2099                 
28100797177SPLMPRIMID00104254Primidon "ERA"                tabletter           TAB           50 mg               0000050000MG 255694255694 N03AA03OR      J        D                
28100797877SPLMVIRIGE00104466Virigen                       tabletter           TAB           5 mg                0000005000MG 256939256939 G04BE04OR               D                
28100798077SPLMSTRAD00104330stradiol "DLF"               filmovertrukne tabl.TABFILM       2 mg                0000002000MG 258338258338 G03CA03OR               D                
28100808477SPLMISONIA00104102Isoniazid "OBA"               tabletter           TAB           300 mg              0000300000MG 011763011763 J04AC01OR               D                
28100810078SPLMGLYCER00104085Glycerol "OBA"                suppositorier       SUP           1,2 g               0000001200G  011763011763 A06AX01PR                                
28100814078SPLMKALIUM00304113Kaliumklorid "PS"             oral opl›sning      ORALOPL       75 mg/ml            0000075000MGM010191010191 A12BA01OR                                
28100819278SPLMPREDNI00804253Prednison "DAK"               tabletter           TAB           25 mg               0000025000MG 020800020802 H02AB07OR               D                
28100821378SPLMKLORAM00304128Kloramfenikol Visk›se "DAK"   ›jendrb., opl›sning OJDRBO        0,5%                0000000500PC 020800020802 S01AA01OK                                
28100823178SPLMPROGES00104256Progesteron "DAK"             suppositorier       SUP           200 mg              0000200000MG 020800020802 G03DA04PR                                
28100830279SPLMVISKS00104620Visk›se jendr†ber "Ophtha"   ›jendr†ber          OJDRB                             0000000000   256938256938 S01XA20OK                                
28100833680SPLMVERUCI00104632Verucid                       gel                 GEL           110+40 mg/g         0000000000   012238012238 D11AF  KU                                
28100833780SPLMVERUCI00204632Verucid                       kutanopl›sning      KUTOPL                            0000000000   012238012238 D11AF  KU                                
28100834380SPLMDOLODE00104637Dolodent                      opl. til tandk›d    GINGOPL       5 mg/g+75 mg/g      0000000000   011763011763 A01AD11DE                                
28100838680SPLMPREDNI00304252Prednisolon "DAK"             tabletter           TAB           25 mg               0000025000MG 020800020802 H02AB06OR       G   0348D                
28100843083SPLMSESAL 00104775Sesal                         ›jendr†ber          OJDRB         0,25 mg/ml + 5 mg/ml0000000000   256938256938 S01GA51OK       G   0752                 
28100853284SPLMMICROT00108895Microtrast                    oral pasta          ORALPAS       70 %                0000070000PC 029000255536 V08BA02OR                                
28100862185SPLMALK 6000104787Alk 603 Appelsin              opl.t.prikt.(solup.)OPLPS         1:20 W/V            0000000050WV 012400012400 V04CL  ID                                
28100862585SPLMALK 6200104791Alk 620 Gulerod               opl.t.prikt.(solup.)OPLPS         1:20 W/V            0000000050WV 012400012400 V04CL  ID                                
28100862885SPLMALK 6500104794Alk 654 Tomat                 opl.t.prikt.(solup.)OPLPS         1:20 W/V            0000000050WV 012400012400 V04CL  ID                                
28100863085SPLMALK 7000104796Alk 701 H›nse‘g               opl.t.prikt.(solup.)OPLPS         1:100 W/V           0000000010WV 012400012400 V04CL  ID                                
28100863285SPLMALK 7000204798Alk 703 ’ggehvide             opl.t.prikt.(solup.)OPLPS         1:100 W/V           0000000010WV 012400012400 V04CL  ID                                
28100863385SPLMALK 7100104799Alk 713 Kom‘lk R†             opl.t.prikt.(solup.)OPLPS         1:20 W/V            0000000050WV 012400012400 V04CL  ID                                
28100863485SPLMALK 7100204800Alk 714 Kom‘lk Kogt           opl.t.prikt.(solup.)OPLPS         1:20 W/V            0000000050WV 012400012400 V04CL  ID                                
28100863685SPLMALK 7200104802Alk 724 R›dsp‘tte             opl.t.prikt.(solup.)OPLPS         1:20 W/V            0000000050WV 012400012400 V04CL  ID                                
28100863785SPLMALK 7200204803Alk 725 Sild                  opl.t.prikt.(solup.)OPLPS         1:20 W/V            0000000050WV 012400012400 V04CL  ID                                
28100863885SPLMALK 7200304804Alk 726 Torsk                 opl.t.prikt.(solup.)OPLPS         1:20 W/V            0000000050WV 012400012400 V04CL  ID                                
28100863985SPLMALK 7200404805Alk 729 Krabbe                opl.t.prikt.(solup.)OPLPS         1:20 W/V            0000000050WV 012400012400 V04CL  ID                                
28100864085SPLMALK 7300104806Alk 731 Reje                  opl.t.prikt.(solup.)OPLPS         1:20 W/V            0000000050WV 012400012400 V04CL  ID                                
28100864185SPLMALK 7400104807Alk 743 H›nsek›d              opl.t.prikt.(solup.)OPLPS         1:20 W/V            0000000050WV 012400012400 V04CL  ID                                
28100864385SPLMALK 7400204809Alk 748 Lammek›d              opl.t.prikt.(solup.)OPLPS         1:20 W/V            0000000050WV 012400012400 V04CL  ID                                
28100864485SPLMALK 7400304810Alk 749 Oksek›d               opl.t.prikt.(solup.)OPLPS         1:20 W/V            0000000050WV 012400012400 V04CL  ID                                
28100864585SPLMALK 7500104811Alk 750 Svinek›d              opl.t.prikt.(solup.)OPLPS         1:20 W/V            0000000050WV 012400012400 V04CL  ID                                
28100864685SPLMALK 7600104812Alk 761 Hasseln›d             opl.t.prikt.(solup.)OPLPS         1:20 W/V            0000000010WV 012400012400 V04CL  ID                                
28100864785SPLMALK 7600204813Alk 762 Jordn›d               opl.t.prikt.(solup.)OPLPS         1:20 W/V            0000000050WV 012400012400 V04CL  ID                                
28100865385SPLMALK 7700104819Alk 778 Sojab›nne             opl.t.prikt.(solup.)OPLPS         1:20 W/V            0000000050WV 012400012400 V04CL  ID                                
28100865485SPLMALK 7700204820Alk 779 Hvedemel              opl.t.prikt.(solup.)OPLPS         1:20 W/V            0000000050WV 012400012400 V04CL  ID                                
28100865585SPLMALK 7800104821Alk 780 Rugmel                opl.t.prikt.(solup.)OPLPS         1:20 W/V            0000000050WV 012400012400 V04CL  ID                                
28100865685SPLMALK 7800204822Alk 781 Havremel              opl.t.prikt.(solup.)OPLPS         1:20 W/V            0000000050WV 012400012400 V04CL  ID                                
28100866385SPLMALK (500806633Alk (504) Dermatoph. Farinae  opl.t.prikt.solu-SQ OPLPSQ        10 HEP              0000010000HEP012400012400 V04CL  ID                                
28100866585SPLMALK 1100104826Alk 117 Fraxinus Excelsior    opl.t.prikt.(solup.)OPLPS         1:100 W/V           0000000010WV 012400012400 V04CL  ID                                
28100871685SPLMALK 4000104847Alk 402 Alternaria Alternata  opl.t.prikt.(solup.)OPLPS         1:20 W/V            0000000050WV 012400012400 V04CL  ID                                
28100871985SPLMALK 4000204848Alk 405 Aspergillus Fumigatus opl.t.prikt.(solup.)OPLPS         1:20 W/V            0000000050WV 012400012400 V04CL  ID                                
28100873485SPLMALK 4100104853Alk 417 Cladosporium Herbarum opl.t.prikt.(solup.)OPLPS         1:20 W/V            0000000050WV 012400012400 V04CL  ID                                
28100874885SPLMALK 4300104857Alk 430 Penicillium Expansum  opl.t.prikt.(solup.)OPLPS         1:20 W/V            0000000050WV 012400012400 V04CL  ID                                
28100875185SPLMALK 4300204858Alk 433 Penicillium Notatum   opl.t.prikt.(solup.)OPLPS         1:20 W/V            0000000050WV 012400012400 V04CL  ID                                
28100880585SPLMALK 5200104846Alk 523 H›nsefjer             opl.t.prikt.(solup.)OPLPS         1:100 W/V           0000000010WV 012400012400 V04CL  ID                                
28100880785SPLMALK 5200204842Alk 524 Undulatfjer           opl.t.prikt.(solup.)OPLPS         1:100 W/V           0000000010WV 012400012400 V04CL  ID                                
28100880985SPLMALK 5500104867Alk 551 Gedeh†r               opl.t.prikt.(solup.)OPLPS         1:100 W/V           0000000010WV 012400012400 V04CL  ID                                
28100881185SPLMALK 5500204868Alk 554 Kaninh†r              opl.t.prikt.(solup.)OPLPS         1:100 W/V           0000000010WV 012400012400 V04CL  ID                                
28100881385SPLMALK 5500304869Alk 556 Koh†r                 opl.t.prikt.(solup.)OPLPS         1:100 W/V           0000000010WV 012400012400 V04CL  ID                                
28100881585SPLMALK 5500404870Alk 557 Marsvineh†r           opl.t.prikt.(solup.)OPLPS         1:100 W/V           0000000010WV 012400012400 V04CL  ID                                
28100881785SPLMALK 5600104871Alk 560 Rotteh†r              opl.t.prikt.(solup.)OPLPS         1:100 W/V           0000000010WV 012400012400 V04CL  ID                                
28100881985SPLMALK 5600204872Alk 561 Svineb›rster          opl.t.prikt.(solup.)OPLPS         1:100 W/V           0000000010WV 012400012400 V04CL  ID                                
28100882185SPLMALK 5600304873Alk 563 Hamsterh†r            opl.t.prikt.(solup.)OPLPS         1:100 W/V           0000000010WV 012400012400 V04CL  ID                                
28100883485SPLMALK (200106461Alk (218) Festuca Pratensis   opl.t.prikt.solu-SQ OPLPSQ        10 HEP              0000010000HEP012400012400 V04CL  ID                                
28100884085SPLMALK (200706458Alk (231) Secale Cereale      opl.t.prikt.solu-SQ OPLPSQ        10 HEP              0000010000HEP012400012400 V04CL  ID                                
28100884485SPLMALK (300406833Alk (312) Artemisia Vulgaris  opl.t.prikt.solu-SQ OPLPSQ        10 HEP              0000010000HEP012400012400 V04CL  ID                                
28100884685SPLMALK (501006543Alk (552) Hestesk‘l           opl.t.prikt.solu-SQ OPLPSQ        10 HEP              0000010000HEP012400012400 V04CL  ID                                
28100884885SPLMALK (501406542Alk (553) Hundeh†r            opl.t.prikt.solu-SQ OPLPSQ        10 HEP              0000010000HEP012400012400 V04CL  ID                                
28100885085SPLMALK (501806551Alk (555) Katteh†r            opl.t.prikt.solu-SQ OPLPSQ        10 HEP              0000010000HEP012400012400 V04CL  ID                                
28100886085SPLMALK (100606657Alk (113) Corylus Avellana    opl.t.prikt.solu-SQ OPLPSQ        10 HEP              0000010000HEP012400012400 V04CL  ID                                
28100900276SPLMVOLTAR00103588Voltaren                      enterotabletter     ENTTAB        25 mg               0000025000MG 011768011768 M01AB05OR       G   0177D                
28100901376SPLMDIPROS00303546Diprospan                     inj.v‘ske,suspensionINJVSKS       7 mg/ml             0000007000MGM011716257309 H02AB01IMIR     G   3796                 
28100902276SPLMPRIMCI00403551Primcillin                    filmovertrukne tabl.TABFILM       400 mg              0000400000MG 254766254766 J01CE02OR                                
28100902476SPLMPRIMCI00503551Primcillin                    filmovertrukne tabl.TABFILM       800 mg              0000800000MG 254766254766 J01CE02OR       G   2205                 
28100902576SPLMPRIMCI00203551Primcillin                    gra. oral sus.,endosORAGRSE       250 mg              0000250000MG 254766254766 J01CE02OR                                
28100902676SPLMPRIMCI00103551Primcillin                    gran. til oral susp.ORAGRAS       50 mg/ml            0000050000MGM254766254766 J01CE02OR                                
28100902976SPLMPANODI00603115Panodil Junior                oral suspension     ORALSUS       24 mg/ml            0000024000MGM256647256647 N02BE01OR       G   0219                 
28100903176SPLMLUDIOM00203150Ludiomil                      filmovertrukne tabl.TABFILM       75 mg               0000075000MG 255247255247 N06AA21OR       G   0277D                
28100903676SPLMDIAZEP00103607Diazepam "DAK"                tabletter           TAB           2 mg                0000002000MG 020800020802 N05BA01OR      JG   0242D                
28100903776SPLMDIAZEP00203607Diazepam "DAK"                tabletter           TAB           5 mg                0000005000MG 020800020802 N05BA01OR      JG   0243D                
28100905376SPLMDELEPS00709359Delepsine                     tabletter           TAB           300 mg              0000300000MG 039800254657 N03AG01OR      J                         
28100907676SPLMPANODI00403115Panodil Brus                  brusetabletter      BRUTAB        500 mg              0000500000MG 256647256647 N02BE01OR       G   0217                 
28100907876SPLMDEPO-M00201980Depo-medrol Vet.              inj.v‘ske,suspensionINJVSKS       40 mg/ml            0000040000MGM259559254780QH02AB04IMIR                              
28100907976SPLMLESTID00103703Lestid                        pul.t.oral sus.endosORAPUSE       5 g                 0000005000G  061800061800 C10AC02OR                                
28100911976SPLMLOMUST00103583Lomustine "Medac"             kapsler             KAP           40 mg               0000040000MG 036800012532 L01AD02OR                                
28100912176SPLMTRIBRI00203089Tribrissen Forte Vet.         premix t.foderl‘gem.PREFOD        333 + 67 mg/g       0000000000   031500262114QJ01EW10FO                                
28100913076SPLMESTRUM00103612Estrumat Vet.                 inj.v‘ske, opl›sningINJVSKO       0,25 mg/ml          0000000250MGM031500262114QG02AD90IM                                
28100913176SPLMSELEXI00203270Selexid                       tabletter           TAB           200 mg              0000200000MG 034800034800 J01CA08OR       G   0874                 
28100913877SPLMCANEST00203105Canesten                      vaginalcreme        VAGCREM       1%                  0000001000PC 056800056800 G01AF02VA       G   1023                 
28100915577SPLMDEXAFO00103862Dexafort Vet.                 inj.v‘ske,suspensionINJVSKS       3 mg/ml             0000003000MGM031500262114QH02AB02IMSC                              
28100915777SPLMCHORUL00106100Chorulon Vet.                 pulv.og sol.t.inj.opINJPSO        1.500 IE            0001500000IU 031500262114QG03GA01IM                                
28100916277SPLMSUIGON00103933Suigonan Vet.                 pulv.og sol.t.inj.opINJPSO        400 IE + 200 IE     0000000000   031500262114QG03GA99SC                                
28100916477SPLMANCOTI00103207Ancotil                       infusionsv‘ske      INFVSK        10 mg/ml            0000010000MGM254766254766 J02AX01IV                                
28100916877SPLMMASTIT00103980Mastitar Retard Vet.          intramamm‘r salve   INTMASA       500.000 IE +300 mg  0000000000   153100260372QJ51RC23MA                                
28100917477SPLMATAMIR00203897Atamir                        kapsler, h†rde      KAPH          250 mg              0000250000MG 016000010530 M01CC01OR               D                
28100917577SPLMAVIPRO00203878Avipro Gumboro Vac            pulv.t.opl.i drikkevPULOPDR                           0000000000   012374062800QI01AD09DM                                
28100918177SPLMSTESOL00202738Stesolid                      rektalvsk.,opl,endosREKVSOE       5 mg/dosis          0000005000MGD255237257213 N05BA01PR      JG   0730                 
28100918277SPLMSTESOL00302738Stesolid                      rektalvsk.,opl,endosREKVSOE       10 mg/dosis         0000010000MGD255237257213 N05BA01PR      JG   0731                 
28100918677SPLMANDROC00203046Androcur Depot                inj.v‘ske, opl›sningINJVSKO       100 mg/ml           0000100000MGM258134056800 G03HA01IM                                
28100918877SPLMETHACI00103928Ethacilin Vet.                inj.v‘ske,suspensionINJVSKS       300.000 IE/ml       0300000000IUM031500262114QJ01CE09IM                                
28100919477SPLMHALCIO00203668Halcion                       tabletter           TAB           0,25 mg             0000000250MG 061800061800 N05CD05OR      JG   0263D                
28100919977SPLMTRIBRI00303089Tribrissen Vet.               inj.v‘ske,suspensionINJVSKS       200 + 40 mg/ml      0000000000   031500262114QJ01EW10IMIVSC                            
28100920077SPLMETALPH00403647Etalpha                       kapsler, bl›de      KAPB          1 mikg              0000001000RG 034800034800 A11CC03OR       G   0419D                
28100920177SPLMADRIAM00203784Adriamycin                    pulv.t.inj.v‘ske,oplINJPULO       50 mg               0000050000MG 061800061800 L01DB01IV                                
28100920277SPLMADRIAM00103784Adriamycin                    pulv.t.inj.v‘ske,oplINJPULO       10 mg               0000010000MG 061800061800 L01DB01IV                                
28100920477SPLMTRIMOP00203653Trimopan                      filmovertrukne tabl.TABFILM       100 mg              0000100000MG 025200254657 J01EA01OR       G   0140D                
28100920977SPLMDRONCI00203700Droncit Vet.                  tabletter           TAB           50 mg               0000050000MG 260088056800QP52AA01OR                                
28100921177SPLMVENTOL00602935Ventoline                     injektionsv‘ske     INJVSK        0,5 mg/ml           0000000500MGM059300059300 R03CC02IMSC                              
28100921977SPLMBRENTA00602978Brentan                       pudder              PUDDER        20 mg/g             0000020000MGG258318258318 D01AC02KU                                
28100923577SPLMDACRIO00103974Dacriosol                     ›jendrb., opl›sning OJDRBO        1 + 3 mg/ml         0000000000   012200132300 S01XA20OK                                
28100924177SPLMLOMUDA00302902Lomudal                       ›jendrb., opl›sning OJDRBO        20 mg/ml            0000020000MGM257228257228 S01GX01OK       G   0693                 
28100924377SPLMLAXOBE00203854Laxoberal                     orale dr†ber, opl›snORALDRO       7,5 mg/ml           0000007500MGM013525205600 A06AB08OR       G   0013                 
28100925577SPLMDURAPH00103772Duraphat                      dentalsuspension    DENSUS        22,6 mg/ml          0000022600MGM257770257770 A01AA01DE                                
28100925773SPLMLUDIOM00103150Ludiomil                      filmovertrukne tabl.TABFILM       25 mg               0000025000MG 255247255247 N06AA21OR       G   0276D                
28100925977SPLMNEOGLE00103693NeoGletvax Vet.               inj.v‘ske,suspensionINJVSKS                           0000000000   259559254780QI09AB02SC                                
28100926053SPLMABBOTI00100748Abboticin                     pulv.t.inf.v‘ske,oplINFPULO       1 g                 0000001000G  255247255247 J01FA01IV                                
28100926477SPLMANDRIO00103684Andriol                       kapsler, bl›de      KAPB          40 mg               0000040000MG 039500257309 G03BA03OR       G   0437                 
28100927977SPLMPEVISO00203858Pevisone                      creme               CREME         10+1 mg/g           0000000000   059900059900 D01AC20KU       G   3602                 
28100928577SPLMDIPROS00103552Diprosalic                    kutanopl›sning      KUTOPL        0,5+20 mg/g         0000000000   011716257309 D07XC01KU       G   0559                 
28100946749SPLMXYLOCA00100985Xylocain                      gel                 GEL           2%                  0000002000PC 056100056100 N01BB02LO                                
28100946949SPLMXYLOCA00300985Xylocain                      inj.v‘ske, opl›sningINJVSKO       20 mg/ml            0000020000MGM056100056100 N01BB02EDIVPE                            
28100947049SPLMXYLOCA00600985Xylocain                      salve               SALV          5%                  0000005000PC 056100056100 D04AB01LO                                
28100948277SPLMBURINE00402996Burinex                       tabletter           TAB           5 mg                0000005000MG 034800034800 C03CA02OR       G   3629D                
28100948456SPLMATARAX00201632Atarax                        filmovertrukne tabl.TABFILM       25 mg               0000025000MG 255816255816 N05BB01OR      JG   3659D                
28100948557SPLMPERILA00201636Perilax                       suppositorier       SUP           10 mg               0000010000MG 012582257625 A06AB02PR                                
28100950170SPLMAPOZEP00202962Apozepam                      tabletter           TAB           5 mg                0000005000MG 255237257213 N05BA01OR      JG   0243D                
28100950377SPLMSERENA00501907Serenase                      tabletter           TAB           20 mg               0000020000MG 059900059900 N05AD01OR               D                
28100950477SPLMORUDIS00403206Orudis                        suppositorier       SUP           100 mg              0000100000MG 257228257228 M01AE03PR                                
28100950565SPLMSTESOL00702738Stesolid                      tabletter           TAB           5 mg                0000005000MG 255237257213 N05BA01OR      JG   0243D                
28100950767SPLMSTESOL00102738Stesolid                      inj.v‘ske, opl›sningINJVSKO       5 mg/ml             0000005000MGM255237257213 N05BA01IMIV    J                         
28100950870SPLMSTESOL00502738Stesolid                      suppositorier       SUP           10 mg               0000010000MG 255237257213 N05BA01PR      J                         
28100952977SPLMBRENTA00502978Brentan                       mundhulegel         MUHUGEL       20 mg/g             0000020000MGG258318258318 A01AB09OM                                
28100954976SPLMTRANDA00303665Trandate                      filmovertrukne tabl.TABFILM       200 mg              0000200000MG 059300059300 C07AG01OR               D                
28100962577SPLMDEXADR00106153Dexadreson Vet.               inj.v‘ske, opl›sningINJVSKO       2 mg/ml             0000002000MGM031500262114QH02AB02BSIMIRIV                          
28100963677SPLMSELEVI00103960Selevitan Vet.                inj.v‘ske, opl›sningINJVSKO       2 + 50 mg/ml        0000000000   205600205600QA12CE99IM                                
28100965264SPLMBETNOV00402231Betnovat                      salve               SALV          1 mg/g              0000000100MGG059300059300 D07AC01KU                                
28100965364SPLMBETNOV00202231Betnovat                      kutanemulsion       KUTEMUL       1 mg/ml             0000001000MGM059300059300 D07AC01KU                                
28100965465SPLMBETNOV00502752Betnovat med Chinoform        creme               CREME         1 + 30 mg/g         0000000000   059300059300 D07BC01KU       G   0434                 
28100966159SPLMSERENA00101907Serenase                      inj.v‘ske, opl›sningINJVSKO       5 mg/ml             0000005000MGM059900059900 N05AD01IM                                
28100966278SPLMMOTILI00206000Motilium                      filmovertrukne tabl.TABFILM       10 mg               0000010000MG 059900059900 A03FA03OR       G   1074D                
28100966678SPLMMOTILI00106000Motilium                      suppositorier       SUP           30 mg               0000030000MG 059900059900 A03FA03PR                                
28100970678SPLMPERSAN00101895Persantin                     overtrukne tabletterTABOTR        100 mg              0000100000MG 013525205600 B01AC07OR       G   2189D                
28100972778SPLMPONDOC00102909Pondocillin                   filmovertrukne tabl.TABFILM       500 mg              0000500000MG 253096250000 J01CA02OR                                
28100972864SPLMFLUANX00402743Fluanxol Mite                 tabletter           TAB           0,50 mg             0000000500MG 035800035801 N05AF01OR               D                
28100972964SPLMFLUANX00502743Fluanxol Mite                 tabletter           TAB           1 mg                0000001000MG 035800035801 N05AF01OR               D                
28100973378SPLMPRIODE00203853Prioderm                      shampoo             SHAM          10 mg/g             0000010000MGG148800148800 P03AX03KU                                
28100973478SPLMPRIODE00103853Prioderm                      kutanopl›sning      KUTOPL        5 mg/ml             0000005000MGM148800148800 P03AX03KU                                
28100973678SPLMZINACE00403875Zinacef                       pulv.t.inj.v‘ske,oplINJPULO       750 mg              0000750000MG 059300059300 J01DC02IMIV                              
28100973778SPLMZINACE00303875Zinacef                       pulv.t.inj.v‘ske,oplINJPULO       1,5 g               0000001500G  059300059300 J01DC02IMIV                              
28100974378SPLMENGEMY00106007Engemycin Vet.                inj.v‘ske, opl›sningINJVSKO       100 mg/ml           0000100000MGM031500262114QJ01AA06IMIV                              
28100974658SPLMSENDOX00201785Sendoxan                      pulv.t.inj.v‘ske,oplINJPULO       200 mg              0000200000MG 135400135400 L01AA01IV                                
28100974864SPLMSENDOX00101785Sendoxan                      pulv.t.inj.v‘ske,oplINJPULO       1 g                 0000001000G  135400135400 L01AA01IV       G   1037                 
28100975178SPLMETALPH00203647Etalpha                       kapsler, bl›de      KAPB          0,25 mikg           0000000250RG 034800034800 A11CC03OR       G   0418D                
28100975578SPLMEMOVAT00103767Emovat                        creme               CREME         0,05%               0000000050PC 059300059300 D07AB01KU                                
28100980178SPLMMETRON00602805Metronidazol "Actavis"        filmovertrukne tabl.TABFILM       500 mg              0000500000MG 255237257213 P01AB01OR       G   0287D                
28100980278SPLMMETRON00402805Metronidazol "Actavis"        suppositorier       SUP           500 mg              0000500000MG 255237256939 P01AB01PR       G   0749                 
28100980378SPLMMETRON00302805Metronidazol "Actavis"        suppositorier       SUP           1 g                 0000001000G  255237256939 P01AB01PR       G   0748                 
28100981278SPLMKODIMA00104138Kodimagnyl "DAK"              brusetabletter      BRUTAB        500+10 mg           0000000000   020800020802 N02BA51OR                                
28100982178SPLMMADOPA00503147Madopar "62,5"                kapsler, h†rde      KAPH          50 mg + 12,5 mg     0000000000   062700062700 N04BA02OR       G   0642D                
28100983067SPLMANAFRA00202887Anafranil                     overtrukne tabletterTABOTR        25 mg               0000025000MG 011768011768 N06AA04OR       G   0271D                
28100983278SPLMIMODIU00103203Imodium                       oral opl›sning      ORALOPL       0,2 mg/ml           0000000200MGM258318258318 A07DA03OR                                
28100983778SPLMHEPARI00100501Heparin "Leo"                 inj.v‘ske, opl›sningINJVSKO       100 IE/ml           0000100000IUM034800034800 B01AB01IV                                
28100985078SPLMSTESOL00802738Stesolid Emulsion             inj.v‘ske, emulsion INJVSKE       5 mg/ml             0000005000MGM255237257213 N05BA01IMIV    J                         
28100985178SPLMATAMIR00103897Atamir                        kapsler, h†rde      KAPH          150 mg              0000150000MG 016000010530 M01CC01OR               D                
28100988878SPLMKARBAM00103756Karbamazepin "DAK"            tabletter           TAB           200 mg              0000200000MG 020800020802 N03AF01OR      JG   0623D                
28100989878SPLMFURIX 00303743Furix                         tabletter           TAB           40 mg               0000040000MG 020800020802 C03CA01OR       G   0062D                
28100989978SPLMFURIX 00503743Furix                         tabletter           TAB           500 mg              0000500000MG 020800020802 C03CA01OR       G   0063D                
28100990078SPLMPROMON00103787Promon Vet.                   inj.v‘ske,suspensionINJVSKS       50 mg/ml            0000050000MGM205600205600QG03DA02SC                                
28100990562SPLMSYNALA00302278Synalar                       salve               SALV          0,025%              0000000025PC 011231011231 D07AC04KU                                
28100991168SPLMCYKLOK00202823Cyklokapron                   filmovertrukne tabl.TABFILM       500 mg              0000500000MG 254766254766 B02AA02OR       G   0911D                
28100991878SPLMORFIRI00103790Orfiril                       enterotabletter     ENTTAB        300 mg              0000300000MG 246300011593 N03AG01OR      J        D                
28100991978SPLMORFIRI00403790Orfiril                       oral opl›sning      ORALOPL       60 mg/ml            0000060000MGM246300011593 N03AG01OR      JG   0224                 
28100992678SPLMTEMGES00103549Temgesic                      inj.v‘ske, opl›sningINJVSKO       0,3 mg/ml           0000000300MGM262341262341 N02AE01IMIV    J                         
28100993070SPLMMARCAI00202957Marcain                       inj.v‘ske, opl›sningINJVSKO       5 mg/ml             0000005000MGM056100056100 N01BB01CEEDILIR G   3759                 
28100993371SPLMMYDRIA00203020Mydriacyl                     ›jendrb., opl›sning OJDRBO        1%                  0000001000PC 012200132300 S01FA06OK                                
28100993478SPLMVERMOX00103066Vermox                        oral suspension     ORALSUS       20 mg/ml            0000020000MGM059900059900 P02CA01OR                                
