28103023098000005005         20 stk. (blister)             00002000STBLI B         A      00000200002YA2000112720110124        AF  059900
28103010998000024005      1  5 stk. (blister)              00000500STBLI B                00000000003YA2002091620101227        A   262114
28103010998000037010      10 10 x 5 stk. (blister)         00005000STBLI B                00000000003YA2002120920101227        A   262114
28103089999000048005         10 ml                         00001000ML    HF               00001250030MT2000011020001211        A   020802
28103104999000054005         6 engangsspr›jter a 0,3 ml    00000180MLENS B                00002400002YH2000040320050815        A   062700
28101897297000125005         28 stk. (blister)             00002800STBLI B                00001400003YA1997111720110110        A   056100
28103105099000145005         6 engangsspr›jter a 0,3 ml    00000180MLENS B                00003600002YH2000040320050815        A   062700
28103087699000159005         28 stk. (blister)             00002800STBLI B         A      00001400003YL2000032020110110        AF  058300
28103064599000164005      1  10 ml                         00001000MLDBH B                00000000003YA2005101020040802        A   205600
28103087899000184005      1  28 stk. (blister)             00002800STBLI B         A      00004200003YL2002042920110110        AF  058300
28101258786000186005      1  500 IE                        00050000IU    B                00000023803YK20010122                A   135400
28100675575000189010      30 30 x 100 ml minibag plus      00300000MLPLP B                00000000001YB2000062620100405        A   135400
28103087999000193005      1  28 stk. (blister)             00002800STBLI B         A      00005600003YL2003102720110110        AF  058300
28103087799000198005      1  28 stk. (blister)             00002800STBLI B         A      00002800003YL2000032020110110        AF  058300
28103064599000209010      1  32 ml                         00003200ML    B                00000000003YA2001021920040802        A   205600
28103003898000223005      1  1 htgl. a 0,9 ml              00000100HTHTG BEGR             00000004102YH2000040320091228        A   011483
28103064599000225015      1  100 ml                        00010000MLDBH B                00000000003YA2001021920090810        A   205600
28103141100000237005         5 ml                          00000500MLHTG BEGR             00000022702YH2000040320091228        A   011483
2810172829400026100500517724 24 spr›jter a 5 g             00002400STIMS BP               00000000002YA2000032020070409        A   063100
28103090199000272005         100 doser                     00010000DOPBH B         A      00005000002YZ2010022220110307        AF  250000
28100843083000274005         10 ml (bott.pk)               00001000ML    HA        V PALKO00000000002YA2010122720101227        AF  256938
2810159779400027701000523512 12 x 100 ml                   00120000MLHTG BP               00000000002YK2000020720070409        A   063100
28100746876000279005         10 ml (bott.pk.)              00001000ML    HF        V PKRKO00000000002YK1999122720110110        A   256938
28101258786000288010      1  1000 IE                       00100000IU    B                00000047603YK20010122                A   135400
28103060799000290005      1  1 stk. (0,36 ml)              00000100STCAM NBS  GYNOBI      00000400003YH2001031920100111        AF  061600
28103235701000316005      1  1 stk. a  0,72 ml             00000100STCAM NBS  GYNOBI      00000800003YH2001031920100111        AF  061600
28103090099000328005      1  100 doser                     00010000DODSP B         A      00002500002YA2010020820110110        AF  250000
28103090099000339010      2  200 doser (2x100)             00020000DOPBH B         A      00005000002YA2008061620110221        AF  250000
28103090199000344010      2  200 doser (2 x 100)           00020000DO    B         A      00010000002YZ2008111720110110        AF  250000
28103008298000373015      1  6 stk. (blister)              00000600STBLI B         A      00000600003YB2002061020050718        AF  061200
28101401390000448020      1  100 ml                        00010000MLFLA B         A      00000000003YA2009061520090615        A   257309
28101027479000467005         30 stk. (blister)             00003000STBLI B         A      00000000004YA2000090420110110        AF  061800
28101195584000469005      1  30 stk. (blister)             00003000STBLI B         A      00000000004YA200110292010020820101227AF  061800
28103020598000475005      1  6 ml                          00000600MLDBH HF        V PALKO00000000030MA2006032720081103        A   254766
28101457491000493005      1  1 dosis + 1 solvens           00000100DS    B                00000000003YK2001100120070101        A   255801
28101027479000514010         100 stk. (blister)            00010000STBLI B         A      00000000004YA2000090420110110        AF  061800
28101195584000525010      1  100 stk. (blister)            00010000STBLI B         A      00000000004YA2001082020110110        AF  061800
28103170100000548005      1  5 ml                          00000500MLFLA HA        V PALKO00000000002YB2001041620100111        AF  011768
28103222101000552005      2  2 s‘t                         00000200SEKBP B                00000200000  2008042120110221        A   061800
28101958997000555005         60 stk.                       00006000STPBH B         A      00000300002YB2001101520110124        A   059900
28103170200000565005      1  20 x 0,4 ml                   00002000STEND HA        V PALKO00000000002YB2001041620100111        AF  011768
28103170200000573010      1  60 x 0,4 ml                   00006000STEND HA        V PALKO00000000002YB2002021820100111        AF  011768
28100742176000576005         100 stk.                      00010000STGLA B                00003500005YA2010051720110307        A   011763
28101959097000598005         60 stk.                       00006000STPBH B         A      00000500002YB2002012120110124        AF  059900
28101897297000612010         100 stk.                      00010000STGLA B                00005000002YA1997111720110110        A   056100
28101543293000626005         1 x 100 ml                    00010000ML    B                00000000005YA19991227                A   135400
28100389461000629005      12 12 x 500 ml                   00600000MLPOS B                00000000002YB20010305                A   256331
28100413062000641005      10 10 x 100 ml                   00100000MLPOS B                00000000002YB20010305                A   256331
28101333588000646005         30 stk.                       00003000ST    B         A      00006000004YB1991010120110110        AF  061800
28100413062000652010      10 10 x 250 ml                   00250000MLPOS B                00000000002YB20010305                A   256331
28100413062000663015      12 12 x 500 ml                   00600000MLPOS B                00000000002YB20010305                A   256331
28101337988000664005         100 stk. (blister)            00010000STBLI B         A      00003333305YA2000122520110110        AF  061800
28100690976000675005         100 stk. (blister)            00010000STBLI B         A      00006666705YA2000122520110110        AF  061800
28100691076000686005      1  100 stk. (blister)            00010000STBLI B         A      00013333305YA2001043020110110        AF  061800
28103065199000701005         1 x 15 g                      00001500G     B                00000000018MB2000111320060911        A   059300
28103222001000784005      2  2 engangsspr›jter             00000200STENS B                00000100003YA2001121020100111        A   061800
28101475291000799005      1  70 doser (10 ml)              00007000DOGFL HF        V PALRI00001750003YA2006032720081103        A   254766
28100107155000801005         125 ml                        00012500MLFLA HA               00000175003YB2001020520100809        A   258318
28103123099000814005         60 stk. (blister)             00006000STBLI BEGR             00000000002YT200102192009122820101213A   262282
28103117299000815005      1  125 ml                        00012500MLFLA HA               00000087503YA2001010820100809        A   257879
28100718376000875005         10 ml                         00001000ML    HA        V PPSOE00000000003YA20000807        20110207A   012238
28101543293000890010         1 x 250 ml                    00025000MLHTG B                00000000005YA20020121                A   135400
2810149339200089701000091410 10 x 5000 doser               05000000DOHTG BP               00000000002YK2000040320080211        A   262114
28100718476000898005         10 ml                         00001000ML    HA        V PPSOE00000000003YA20000918                A   012238
28103108599000957005      1  1 tokammerampul               00000100STTAM BEGR             00000750002YK2001012220091228        A   061800
28101295187001004015      25 25 x 0,2 ml                   00000100PKENS B         A      00002500003YA2000062620100111        AF  061800
28101124183001008005         100 stk.                      00010000ST    B         S SPAST00001666705YB1984102220110110        AF  011768
28101212185001009005         5 amp. x 4 ml                 00002000MLAMP B         A      00001000003YA2001021920110110        A   034800
28103132300001025005      1  28 stk. (blister)             00002800STBLI B         A      00000466703YA2001010820080114        AF  056100
28101124283001115005      1  100 stk.                      00010000ST    B         S SPAST00003333305YB1984102220110110        AF  011768
28101394190001123010      1  100 stk.                      00010000ST    B         A      00005000005YL1995013020050328        AF  259172
28103039498001167005      1  1 stk. a 0,5 ml               00000050MLFIN NBS  GYNOBI      00000100002YL2010112920101129        A   061600
28101866396001191010      1  100 stk. (blister)            00010000STBLI B         A      00003000003YA2000082120071203        AF  011593
28103127099001194005      1  10 stk. (blister)             00001000STBLI B                00001000003YT2001030520100111        A   061800
28103295501001225005         30 stk. (blister)             00003000STBLI B         S CHOL 00012000003YA2010101820110110        AF  061800
28103295501001239010      1  100 stk. (blister)            00010000STBLI B         S CHOL 00040000003YA2002042920110110        AF  061800
28103322401001296005      1  50 stk. (blister)             00005000STBLI HA               00002500005YB20030317                A   012780
28101866496001304010         100 stk. (blister)            00010000STBLI B         A      00006000003YA2000071020081103        AF  011593
28103040998001316005         10 stk. (blister)             00001000STBLI A                00000500005YA2000040320090209        A   260850
28103138700001326010      1  12 g                          00001200G TUB B         A      00000000003YA2007111920090921        AF  260850
28103144900001337015      10 10 x 30 ml                    00030000MLHTG A                00000000003YA2000121120070716        A   056800
28103040998001344010         30 stk. (blister)             00003000STBLI A                00001500005YA2006082820090209        A   260850
28103040998001350015         100 stk. (blister)            00010000STBLI A                00005000005YA2006082820090209        A   260850
28103736904001362005      1  5 ml                          00000500MLFLA B         A      00000000002YK2008012820100111        AF  011768
28103148900001394005      1  14 stk. (blister)             00001400STBLI B                00000933303YV2000091820110110        A   056100
28103039498001399010      5  5 stk. a 0,5 ml               00000250MLFIN NBS  GYNOBI      00000500002YL2007042320110110        A   061600
28103148900001408010      1  28 stk. (blister)             00002800STBLI B                00001866703YV2000100220110110        A   056100
28103148900001417015      1  56 stk. (blister)             00005600STBLI B                00003733303YV2000101620110110        A   056100
28103149000001450005      1  14 stk. (blister)             00001400STBLI B                00001866703YV2000091820110110        A   056100
28103149000001463010      1  28 stk. (blister)             00002800STBLI B                00003733303YV2000100220110110        A   056100
28103061999001490005         5 x 3 ml                      00001500MLAMP B         A      00003750018MH2002040120110110        A   039000
28101705394001503005         5 x 750 mg monovial           00000500HT    B                00000125002YA199510092010011120101227A   059300
28103149000001505015      1  56 stk. (blister)             00005600STBLI B                00007466703YV2000101620110110        A   056100
28101092381001511005      5  5 amp. a 1 ml                 00000500MLAMP B         A      00015151503YA2008012820110124        AF  059900
28103168300001512005      1  100 stk. (blister)            00010000STBLI B                00004000005YA2003081820110110        A   257228
28103148900001527020      1  100 stk.                      00010000ST    B                00006666703YV2000091820110110        A   056100
28103149000001549020      1  100 stk.                      00010000ST    B                00013333303YV2000091820110110        A   056100
28103088399001588005      4  4 x 1026 ml (4 x 900 kcal)    00410400MLPOS B                00000000001YB2001043020010611        A   256331
28103111199001599000      5  5 x 5 ml                      00002500MLAMP B                00000500003YC2001020520010723        A   253040
28101053180001602005         5 x 1,5 g monovial            00000500HT    B                00000250002YA1995100920100111        A   059300
28103088399001605010      4  4 x 1540 ml (4 x 1400 kcal)   00616000MLPOS B                00000000001YB20010514                A   256331
28103124999001696005      5  5 x 1000 doser                00500000DOHTG BP               00000000033WH2005071820090406        A   262114
28101535392001706005      1  100 stk. (blister)            00010000STBLI B         A      00006666703YA2011022120110221        AF  250000
2810190549700175500500214112 12 x 10 ml                    00012000MLIMS BP               00000000024MA2000080720051219        A   260372
28103124999001762010      5  5 x 5000 doser                02500000DOHTG BP               00000000033WH2005071820090406        A   262114
28103139800001786005      1  2,5 ml                        00000250MLDBH B         A      00002500000XH2010051720110307        AF  010189
28101740094001788010         100 ml                        00010000MLPFL B         A      00000666703YA2006032720110207        AF  010189
28101567393001815005      1  10 stk. (blister)             00001000STBLI B         A      00000500003YB2010111520101115        AF  250000
28103028198001817005      1  1 x 7,49 g (applikatorer)     00000749G OSP BP               00000000002YV2009121420091214        A   260372
28101905497001869010002164150150 x 10 ml                   00150000MLIMS BP               00000000024MA2000080720051219        A   260372
28101002855001874005         10 amp. a 1 ml                00001000MLAMP B         A      00001000003YK2001021920110110        A   011768
28103026698001878015      1  15 ml (3 x 5 ml)              00001500MLDBH B         A      00007500002YA2001012220110221        AF  132300
28103146400001905005         30 stk.                       00003000ST    B         A      00000020002YA2001080620050718        A   059300
28103139800001908010      1  7,5 ml                        00000750MLDBH B         A      00007500000XH2009030920110124        AF  010189
28103091299001916005      5  5 x 1250 ml                   00625000MLPLP B                00000000002YC2002112520101227        A   262246
28103091399001918005      5  5 x 1250 ml                   00625000MLPLP B                00000000002YC20021125                A   262246
28103091499001920010      5  5 x 1250 ml                   00625000MLPOS B                00000000002YC2009122820091228        A   262246
28101567393001926010      1  50 stk. (blister)             00005000STBLI B         A      00002500003YB2008032420080324        AF  250000
28101567493001937005         5 stk. (blister)              00000500STBLI B         A      00000500003YB2000111320100809        AF  250000
28101567493001950010         10 stk. (blister)             00001000STBLI B         A      00001000003YB2000111320100405        AF  250000
28101567493001959015      1  50 stk. (blister)             00005000STBLI B         A      00005000003YB2010061420101115        AF  250000
281035930030019940050196905  5 x 10 g                      00005000G ENS BP               00000000002YB2006022720070101        A   205600
28103110799002019015      5  5 x 10 ml                     00005000MLAMP A                00001666703YL2009042020090420        A   262097
28103091299002073010      5  5 x 1875 ml                   00937500MLPLP B                00000000002YC20021125                A   262246
28103091299002082015      5  5 x 2500 ml                   01250000MLPLP B                00000000002YC2002112520001225        A   262246
28103110799002085005      10 10 x 1 ml                     00001000MLAMP A                00000333303YL2007022620071231        A   262097
28103091399002095010      5  5 x 1875 ml                   00937500MLPLP B                00000000002YC2002112520101227        A   262246
28103091399002106015      5  5 x 2500 ml                   01250000MLPLP B                00000000002YC2002112520091228        A   262246
28103091499002119015      5  5 x 1875 ml                   00937500MLPOS B                00000000002YC2003021720091228        A   262246
28103110799002124010      5  5 x 3 ml                      00001500MLAMP A                00000500003YL2007091020071231        A   262097
28103035398002127005         30 stk.                       00003000STBOX B                00000000003YT2000082120101227        A   059800
28103091499002130020      5  5 x 2500 ml                   01250000MLPOS B                00000000002YC2009122820091228        A   262246
28103206300002140005      30 30 x 0,6 mg                   00001800MGEND HF        V PKEKO00000000002YC2003020320110110        A   011768
28101851196002145005      1  10 stk. (blister)             00001000STBLI B                00000000002YB20011015        20101213A   063100
28101863996002185005      1  250 ml                        00025000MLGFL BPK              00000000005YB2003070720110221        A   254780
28103146600002193005      1  40 g                          00004000G     B                00000060003YB2011030720110307        A   254766
28103149400002194005      4  4 x 1440 ml (4 x 1000 kcal)   00576000MLPOS B                00000000002YB20010709                A   256331
28103036498002208005         10 ml                         00001000MLHTG B         A      00002500030MH2002042920110110        A   039000
28101851096002244005      1  10 stk. (blister)             00001000STBLI B                00000000002YB20011015        20101213A   063100
28103110599002245005      10 10 x 5 ml                     00005000MLAMP A                00000333303YL2009111620091116        A   262097
28103146500002250005      1  100 stk.                      00010000ST    B         A      00062500005YA2007120320110110        AF  020802
28101533892002265005         120 g                         00012000G TUB B         A      00000000002YA2001031920110307        AF  034800
28103146500002271010      1  200 stk.                      00020000ST    B         A      00125000005YA2001010820110110        A   020802
28103176100002294005      1  28 stk. (blister)             00002800STBLI B         A      00001120002YL2001030520050912        A   061200
28103123799002312005      1  15 g                          00001500G     HF        V PHUDS00000000003YT2000122520070730        A   011768
28103357602002320005      1  12 stk. (blister)             00001200STBLI B                00000000005YT2004020220100111        A   059300
28103153100002325005      1  50 stk. (blister)             00005000STBLI NBS  DERM A      00001666703YL2001082020060828        AF  255483
28103176100002328010      1  98 stk. (blister)             00009800STBLI B         A      00003920002YL2001030520110207        AF  061200
28101940497002332010      1  1 x 50 ml                     00005000MLHTG BP               00000000002YK2007071620080211        A   262114
28103068299002342005      1  1 x 1000 IE                   00100000IUHTG BEGR             00000200023MH20001225                A   258374
28103153200002350005      1  50 stk. (blister)             00005000STBLI NBS  DERM A      00003333303YL2010061420100906        AF  255483
28103068199002356005      1  1 x 500 IE                    00050000IUHTG BEGR             00000100023MH20001225                A   258374
28103055899002367005      1  1 x 250 IE                    00025000IUHTG BEGR             00000050023MH20020722                A   258374
28103158700002391005         3 x 21 stk. (blister)         00006300STBLI B                00000000003YC2001030520040927        A   056800
28103158600002413005      3  3 x 28 stk. (blister)         00008400STBLI B                00000000003YC2008022520080225        A   056800
28100552969002422005      1  20 stk. (blister)             00002000STBLI B                00001000003YT20010903                A   012238
28101940597002432005      1  1 x 50 ml                     00005000MLHTG BP               00000000002YK2009040620090406        A   262114
28103106899002439015      4  4 x 2500 ml (system)          01000000ML    B                00000000018MA20011224                A   181800
28103106899002458025      2  2 x 5000 ml (system)          01000000MLPOS B                00000000018MA20011126                A   181800
28103106899002491005      4  4 x 2000 ml (gemini)          00800000MLPOS B                00000000018MA20000724                A   181800
28103106899002502010      4  4 x 2500 ml (gemini)          01000000MLPOS B                00000000018MA20000724                A   181800
28103150800002520005      1  30 stk.                       00003000ST    BEGR             00001875002YB2001072320091228        A   254856
28103107299002557015      4  4 x 2500 ml (system)          01000000ML    B                00000000018MA20011224                A   181800
28103107299002579025      2  2 x 5000 ml (system)          01000000MLPOS B                00000000018MA20011126                A   181800
28103107299002612005      4  4 x 2000 ml (gemini)          00800000MLPOS B                00000000018MA20000724                A   181800
28103080799002616005         1 htgl.                       00000100HTHTG NBS  OFTALA      00000000003YC2000090420100111        A   011768
28103107299002623010      4  4 x 2500 ml (gemini)          01000000MLPOS B                00000000018MA20000724                A   181800
28101327388002627010         100 stk. (blister)            00010000STBLI B         A      00000000003YA2000080720110110        AF  061800
28103062299002754005         204 stk. (blister)            00020400STBLI HF               00000680002YC2001090320070730        A   011768
28101020079002793010      1  1500 g                        00150000G DSE BP               00000000004YA2001040220100405        A   254780
28103134600002830005      1  5 g                           00000500G FLA B         A      00005000000  2010122720101227        AF  012009
28101756595002831005      10 10 eng.spr. x 0,25ml (2.500 IE00000100PKENS B         A      00000714302YB200103192010011120110124A   034800
28103135000002853005      1  1 stk.                        00000100STHTG NBS  DVNOP       00000000003YK2000071020081229        A   258152
28103332901002943005      1  1 stk. (blister)              00000100STBLI B                00000000002YH2009022320090223        A   011415
28101947997002993005      1  50 tubuler a 1,7 ml           00005000STFIN B                00000000002YC2001010820110221        A   256897
28103038198003001010      12 12 x 500 ml                   00600000MLPOS B                00000000002YB20010319                A   256331
281019479970030160100030494  4 x 50 tubuler a 1,7 ml       00020000STTUL B                00000000002YC2001031920110221        A   256897
281019478970030220100030824  4 x 50 tubuler a 1,7 ml       00020000STTUL B                00000000002YC2001031920110221        A   256897
28103290501003023010      1  98 stk. (blister)             00009800STBLI B         A      00000000003YA2002080520100322        AF  061200
281019479970030330150030608  8 x 50 tubuler a 1,7 ml       00040000STTUL B                00000000002YC2001031920110221        A   256897
28101929897003036005      10 10 x 1 dose                   00001000DOHTG BP               00000000002YH2005041120070409        A   063100
281019478970030470150030938  8 x 50 tubuler a 1,7 ml       00040000STTUL B                00000000002YC2001031920110221        A   256897
28103131000003051010         20 stk. (blister)             00002000STBLI HA18      V PKRON00000333303YA2000122520100906        A   256647
28103034298003064005      1  50 stk. (blister)             00005000STBLI B         A      00000833303YB2001041620030512        AF  255816
28101947897003071005      1  50 tubuler a 1,7 ml           00005000STFIN B                00000000002YC2001010820110221        A   256897
28103034298003078010      1  100 stk. (blister)            00010000STBLI B         A      00001666703YB20040412                AF  255816
28100669675003079005         15 stk.                       00001500ST    B         A      00001500003YA1978072420050523        A   258318
28103115499003087010      1  6 stk. (blister)              00000600STBLI B         A      00000600000XT2007050720110124        AF  010189
28103034198003099005      2  2 s‘t                         00000200SEHTG BEGR             00000000018MK2006021320060213        A   258008
28103070199003112005      1  100 stk. (blister)            00010000STBLI B         A      00003333303YB2001030520030512        AF  255816
28103070199003123030      1  200 stk. (blister)            00020000STBLI B         A      00006666703YB2000122520030623        AF  255816
28103070299003140005      1  100 stk. (blister)            00010000STBLI B         A      00005000003YB20050314                AF  255816
28103070399003158010      1  100 stk. (blister)            00010000STBLI B         A      00006666703YB2001021920030512        AF  255816
28103332601003164005      1  1 stk. (blister)              00000100STBLI B                00000000003YH20040301                A   011415
28103070399003173030      1  200 stk. (blister)            00020000STBLI B         A      00013333303YB2000122520030512        AF  255816
28103332701003175005      1  1 stk. (blister)              00000100STBLI B                00000000030MH20040301                A   011415
28103035498003189005      1  1 x 100 ml                    00010000MLHTG BP               00000000002YT2001021920050103        A   099300
28101958897003192005      1  10 ml                         00001000MLHTG B                00000000003YH2000103020110307        A   063100
28103109899003195005      4  4 x 0,4 ml                    00000160MLFIN BEGR             00000888902YH2001070920091228        A   255791
28101879297003228005      1  100 doser                     00010000DO    B         A      00002500002YT2010032220110307        AF  010189
28103144900003298010      10 10 x 15 ml                    00015000ML    A                00000000003YA2003091520070716        A   056800
28103141000003310005      1  120 doser                     00012000DO    B         A      00000000002YT2001040220110110        AF  056100
28103179600003325005      1  120 doser                     00012000DOPIH B         A      00000000002YT2002091620110110        AF  056100
28103250401003353005      1  100 stk. (blister)            00010000STBLI BEGR             00003333302YL2002052720091228        A   254817
28101935097003355005      1  15 ml                         00001500MLSPB HF        V PHUDS00000000003YA200202042007073020101213A   011768
28103262401003395005      1  1 x 0,6 ml                    00000060MLFIN BEGR             00006666702YH2002122320091228        A   255791
28103052198003423005      1  28 stk. (blister)             00002800STBLI B         A      00001400003YA2010030820100308        A   263101
28101197884003455005      1  60 stk. (blister)             00006000STBLI A                00001500003YL2001100120110110        A   061800
28103115799003493005         1 x 250 ml                    00025000MLFLA AP4              00000333304YT2001111220110124        A   148800
28101783895003578010      1  28 stk. (blister) (Orifarm)   00002800STBLI B         A      00002800003YL200012112011022120110221AF  010189
28103115899003593005      1  1 x 120 ml                    00012000MLFLA AP4              00001600002YT2001111220110124        A   148800
28101436491003660005      1  30 stk. (blister)             00003000STBLI B         A      00003000005YA2011020720110221        AF  262135
28103002998003687005         100 stk.                      00010000STPBH BEGR             00000000003YT2001070920070507        A   010530
28101783795003722010      1  56 stk. (blister) (Orifarm)   00005600STBLI B         A      00004200003YL2007073020110307        AF  010189
28101783695003733010      1  28 stk. (blister) (Orifarm)   00002800STBLI B         A      00001400003YL200704232010121320110110AF  010189
28103143900003746005         30 g                          00003000G TUB B         A      00000000002YA201008232010111520110307AF  012562
28101896497003751005         20 ml (10 doser)              00002000MLHTG BP               00000000002YH200101222008042120110110A   001200
28103223300003755005      1  200 doser (10 ml)             00020000DO    B         A      00000000002YA2001021920110110        A   205600
28103143900003769010      1  60 g                          00006000G TUB B         A      00000000002YA201011152011022120110307AF  012562
28103081899003775010      3  3 x 1,5 mg                    00000450MGHAM BEGR             00000032103YK2001101520091228        A   257228
28103052198003800010      1  98 stk. (blister)             00009800STBLI B         A      00004900003YA2010030820100308        AF  263101
28103089399003809005      1  28 stk. (blister)             00002800STBLI B         A      00002800003YA2010030820100308        A   263101
28103089399003831010      1  98 stk. (blister)             00009800STBLI B         A      00009800003YA2010030820100308        AF  263101
28101783595003860015      1  28 stk. (blister) (Paranova)  00002800STBLI B         A      00000700002YL2011030720110307        AF  083200
28103153300003861005      56 56 amp. a 5 ml                00028000MLAMP B                00005600003YH2001090320060102        A   011768
28101715494003869005         10 stk (blister)              00001000STBLI B                00001000003YA20010205                A   257309
28103139399003916005      2  360 doser (2x180)             00036000DO    B         A      00003150002YB200102052010090620110207AF  262135
28101010979003939005         20 stk.                       00002000ST    B         A      00001000003YA1979082020110110        AF  011768
28101141783003954005         20 stk. (blister)             00002000STBLI B                00000000003YA1998040620110110        A   257213
28103172500003974005      5  5 x 60 ml                     00030000MLFLA BEGR             00003000002YK2001061120091228        A   055600
28103221701003983005      1  30 stk. (blister)             00003000STBLI HA        V PANGP00004500003YA2007032620110307        AF  255483
28101010979003988010         100 stk.                      00010000ST    B         A      00005000003YA1979082020110110        AF  011768
28103221701003995010      1  100 stk. (blister)            00010000STBLI HA        V PANGP00015000003YA2009032320110307        AF  255483
28101109682004002010         10 amp. a 5 ml                00005000MLAMP A                00001000004YA1984031220110110        A   011768
28103160100004003010      4  4 x 50 ml                     00020000MLHTG BPK              00000000003YA2000100220110307        A   063100
28103221601004006005         30 stk. (blister)             00003000STBLI HA        V PANGP00002250003YA2001052820050815        AF  255483
28101141783004010015         100 stk. (blister)            00010000STBLI B                00000000003YA2001082020110110        A   257213
28103174300004014005         250 ml                        00025000MLGFL B         A      00001500003YA2001090320110110        AF  011768
28103221601004017010      1  100 stk. (blister)            00010000STBLI HA        V PANGP00007500003YA2007110520110124        AF  255483
28101115082004045015      1  100 stk.                      00010000STDSE B         A      00005000005YA2008012820110207        AF  256939
28103214600004086005      1  7 stk. (blister)              00000700STBLI B         A      00000350003YA2003101320110110        A   061800
28103019598004171005      1  100 stk.                      00010000STTBH B         A      00003333303YA2008110320110207        AF  259743
28103164000004172005      1  1 htgl. a 25 doser            00002500DOHTG BP               00000000018MK2005121920070101        A   205600
28101328288004184005      1  1 stk.                        00000100STHTG BEGR             00000672202YK2007040920091228        A   011768
28103019698004193010      1  100 stk.                      00010000STTBH B         A      00006666703YA2006121820110207        AF  259743
28101115082004205005         250 stk.                      00025000STDSE B         A      00012500005YA2001020520100809        AF  256939
28103183300004209005         120 doser                     00012000DOAER B         A      00005000002YA201008232011012420110207AF  010189
28101062281004213020         250 stk.                      00025000STDSE B         A      00008333305YA2001020520110207        AF  256939
28103019798004215010      1  100 stk.                      00010000STTBH B         A      00013333303YA2007073020110207        AF  259743
28101115082004222010         30 stk. (blister)             00003000STBLI B         A      00001500005YA2001020520101101        AF  256939
28101783595004231010      1  28 stk. (blister) (Orifarm)   00002800STBLI B         A      00000700002YL2007040920110307        AF  010189
28101115082004233015         50 stk.                       00005000STDSE B         A      00002500005YA2011022120110307        AF  256939
28103170800004236005      1  30 stk. (blister)             00003000STBLI B         A      00001500002YB2010020820100208        AF  260850
28101940097004241005      1  100 stk.                      00010000STBOX NBS  NEUPSA      00003333305YA2010061420110307        AF  257213
28101062281004244005         30 stk. (blister)             00003000STBLI B         A      00001000005YA2001020520101129        AF  256939
28101256286004247010      1  5000 g                        00500000G     BP               00000000004YB2000122520050103        A   063100
28101062281004255010      1  50 stk. (blister)             00005000STBLI B         A      00001666705YA2010072620110207        AF  256939
28103037098004258005      1  1 stk.                        00000100ST    B                00000100018MK2009113020091130        A   254766
28103296001004259005      1  14 stk. (blister)             00001400STBLI B         A      00000700004YT2002102820110110        A   061800
28101062281004266015         100 stk.                      00010000STDSE B         A      00003333305YA2009100520110207        AF  256939
28103180400004282005      1  120 doser                     00012000DOTRB B         A      00000000002YB2001021920100111        A   059300
28103170800004292010      1  60 stk. (blister)             00006000STBLI B         A      00003000002YB2010092020110124        AF  260850
28103180500004293005      1  120 doser                     00012000DOTRB B         A      00000000002YB2001021920100726        AF  059300
28101947297004294005      1  1 x 200 ml                    00020000MLHTG BP               00000000002YB2001040220050425        A   011596
28103120999004298005         10 stk. (blister)             00001000STBLI B         A      00001000002YV2001041620040816        A   257309
28103167800004301005         66 ml                         00006600MLGFL B         A      00003300002YB2001051420100111        A   257309
28103170800004303015      1  180 stk. (blister)            00018000STBLI B         A      00009000002YB2006082820110124        AF  260850
28103182500004316010      25 25 x 1 ml                     00002500MLHTG B         S ENSST00000000003YK2001112620100111        A   059300
28103037098004327005      1  6 x 1 stk.                    00000600ST    B                00000600018MK2003070720091228        A   254766
28103218401004345005         5 x 0,5 ml                    00000250MLFIN BEGR             00000428630MK2001111220091228        A   255791
28103206600004352005      1  1 stk.                        00000100STHTG A                00000050002YA2002091620100111        A   061800
28103037198004360005      1  1 stk.                        00000100ST    B                00000200002YK2008021120080211        A   254766
28103218501004367005         5 x 0,5 ml                    00000250MLFIN BEGR             00000685730MK2001111220091228        A   255791
28103037198004369005         6 x 1 stk.                    00000600ST    B                00001200002YK2008021120080211        A   254766
28103120999004370010         30 stk. (blister)             00003000STBLI B         A      00003000002YV2001041620040816        AF  257309
28103120999004378015         100 stk. (blister)            00010000STBLI B         A      00010000002YV2001040220040816        AF  257309
28103037298004385005         1 stk.                        00000100ST    B                00000400002YK2003060920030915        A   254766
28101061081004386010         50 stk.                       00005000STPBH B         A      00001666705YA2001041620110124        AF  020802
28103037298004391010         6 x 1 stk.                    00000600ST    B                00002400002YK2003060920030915        A   254766
28103406702004434005      1  16 stk. (blister)             00001600STBLI B                00000000005YA2003111020110221        A   254780
28103163900004456005         50 ml (25 doser)              00005000MLHTG BP               00000000018MK2001090320080421        A   001200
28103169700004458005      1  3,5 g                         00000350G TUB B                00000000002YT2002101420100308        A   132300
28101061181004480015         50 stk.                       00005000STPBH B         A      00002500005YA2001041620110124        AF  020802
28101061181004488025         200 stk.                      00020000STPBH B         A      00010000005YA2001041620100222        AF  020802
28100417072004498005         90 ml                         00009000MLGFL B         A      00000300003YA2001062520110110        A   034800
28103182400004502005      1  1 x 0,5 ml                    00000050MLFIN B         S ENSST00000000003YK2002061020100111        A   059300
28103170700004560005         30 stk. (blister)             00003000STBLI B         A      00001500002YT2006073120110124        AF  253032
28101317587004569005         10 stk. (blister)             00001000STBLI HX18      V PKRON00000166705YA20011001                A   020802
28100726476004573005      1  10 stk. (blister)             00001000STBLI HX18             00000000022MB20011001                A   020802
28101688594004586005         90 stk. (blister)             00009000STBLI B         A      00018000003YV2001051420110110        AF  257228
28101192084004612005         25 g                          00002500G TUB B         A      00000000002YA2002031820110221        AF  257213
28103182600004613005      1  1 ml                          00000100MLFIN B         S ENSST00000000003YK2001082020100111        AF  059300
28103801177004655015      100100 x 0,35 ml                 00003500MLEND HA        V PALKO00000000003YA1988020120110110        A   257228
28103164400004659005         40 stk.                       00004000STTBH HF               00000666703YA2001020520040105        A   192000
28103164400004676015         200 stk.                      00020000STTBH HF               00003333303YA2001020520040105        A   192000
28103164400004687010         100 stk.                      00010000STTBH HF               00001666703YA2001020520040105        A   192000
28103206100004690005      1  50 stk. (blister)             00005000STBLI B         S EPIL 00000833303YA2008060220110307        AF  061800
28103166400004699005      28 28 x 0,67 ml                  00001876MLFIN BEGR             00002800018MH2004092720090112        A   260557
28103406702004712010      1  80 stk. (blister)             00008000STBLI B                00000000005YA2003111020110221        A   254780
28103178900004736005         30 stk.                       00003000ST    BEGR             00003000003YT200202182009122820101213A   262282
28103159600004738005         180 ml                        00018000MLFLA BEGR             00000900003YA2002080520091228        A   061200
28103065399004746005      5  5 x 3 ml                      00001500MLCAM B         A      00003750003YH2004052420110307        AF  257228
28100980278004767005      1  10 stk. (blister)             00001000STBLI B         A      00000250003YA2005060620100906        AF  256939
28100980378004800005      1  10 stk. (blister)             00001000STBLI B         A      00000500003YA2008121520081215        A   256939
28103206100004834010      1  100 stk. (blister)            00010000STBLI B         S EPIL 00001666703YA2008060220110307        AF  061800
28103206200004845005      1  100 stk. (blister)            00010000STBLI B         S EPIL 00002222203YA2008060220110307        AF  061800
28100533567004855005         24 stk. (blister)             00002400STBLI B         A      00000300005YA2010110120110110        A   257213
28103706904004863005      1  1 ampul                       00000100STAMP BEGR             00000937504YH2005120520091228        A   011768
28103056098004864005      1  50 ml                         00005000MLHTG BP               00000000002YH2011030720110307        A   059800
28103177400004876005      1  20 stk.                       00002000STPBH B         A      00002000005YT200804212010110120110110AF  012720
28103212300004880005      1  1 htgl.                       00000100HTHTG B                00000100003YA2003021720100111        A   061800
28100980178004888005         8 stk.                        00000800STBOX B         A      00000200005YA2010092020100920        AF  257213
28101783895004903040      1  56 stk. (blister) (Paranova)  00005600STBLI B         A      00005600003YL200912142010121320101227AF  083200
28100980178004921010         14 stk.                       00001400STBOX B         A      00000350005YA2010092020110110        A   257213
28101891697004955005      1  10 stk. (blister)             00001000STBLI HA        V PKRAL00001000003YA2001041620110307        AF  257228
28100980178004976015         30 stk.                       00003000STBOX B         A      00000750005YA2010121320101213        AF  257213
28101891797004981005      1  10 stk. (blister)             00001000STBLI B         A      00001500003YA2001041620110207        AF  257228
28103682004004986005      10 10 x 2 ml                     00002000MLAMP B                00000166718MB2007011520070115        A   257349
28103150300005005005         30 stk. (blister)             00003000STBLI B         A      00001125003YB2001031920040705        A   257625
28101263286005025020         100 stk.                      00010000ST    HF               00004000003YA1988032820081020        A   255483
28103150400005028010      1  30 stk. (blister)             00003000STBLI B         A      00001500003YB20010319                A   257625
28103682004005033010      10 10 x 4 ml                     00004000MLAMP B                00000333318MB2007011520070115        A   257349
28103150300005037010         100 stk. (blister)            00010000STBLI B         A      00003750003YB20010319                A   257625
28103150400005039015      1  100 stk. (blister)            00010000STBLI B         A      00005000003YB20010319                A   257625
28103391802005048010      1  36 stk. (blister)             00003600STBLI HF               00000240003YC2003092920070730        A   011768
28103391802005059005      1  96 stk. (blister)             00009600STBLI HF               00000640003YC2002122320070730        A   011768
28103016298005066005      1  28 stk. a 0,4 ml              00002800STEND B         A      00005600003YV1999020820101227        A   059300
28103391802005070015      1  204 stk. (blister)            00020400STBLI HF               00001360003YC2004021620070730        A   011768
28103176900005089005      1  1 stk.                        00000100STHTG B         S PNSST00000000002YK201010182010121320110207A   255801
28101673694005108010         90 stk.                       00009000STBOX B         A      00009000004YA1997090820100111        AF  256269
28101196884005155005         100 stk.                      00010000STGLA B         A      00000000005YA2005081520110307        AF  011763
28101412090005225005      1  15 stk.                       00001500ST    HF               00001500003YA2002081920100111        A   059300
28103141000005241010      3  3 x 120 doser                 00036000DO    B         A      00000000002YT2001040220110110        AF  056100
28103114099005292005      5  5 x 20 ml                     00010000MLAMP B                00000000002YC2001090320101227        A   262246
28103260001005296010      1  100 stk. (blister)            00010000STBLI B         A      00007500003YT2004060720110110        AF  056100
28101839196005336005         10 ml                         00001000MLSPB HF               00000625003YA2001101520060605        A   011768
28101212585005355005      12 12 engangspipetter a 0,2 g    00000240G END B                00000000002YT1993011820110110        A   034800
28103260001005357005      1  30 stk. (blister)             00003000STBLI B         A      00002250003YT2004060720110110        AF  056100
28101709294005363005         1 stk.                        00000100STENS A         A      00008372103YA1996010120100111        AF  056100
28103238101005390005      1  200 doser                     00020000DOAER B         A      00003333303YA2002102820110110        AF  205600
28103171800005480015      1  1 x 5 ml                      00000500MLHTG BEGR             00000000002YF2007073020070730        A   012688
28101949797005494010      3  3 x 10 g                      00003000G TUB HF        V PKEKO00000000030MC2008050520080505        A   011685
28101308287005501005      1  14 stk. (blister)             00001400STBLI HF        V PKRAL00001400005YA20010723                A   255816
28103130599005503005      1  28 stk. (blister)             00002800STBLI B         A      00004200003YL2002041520110110        AF  058300
28103208900005507005      1  4 stk. (blister)              00000400STBLI B                00002800003YA2001090320100920        A   061200
28103130699005526005      1  28 stk. (blister)             00002800STBLI B         A      00005600003YL2003102720110110        AF  058300
28100787776005538005         63 stk. (3x21)                00006300ST    B                00000000005YT1980010120060227        A   056800
28103208900005565010      1  12 stk. (blister)             00001200STBLI B                00008400003YA2001090320100920        A   061200
28103327901005588005      1  30 stk. (blister)             00003000STBLI B         A      00003000002YB2002062420110207        AF  205600
28103327901005600010      1  30 stk blister + handihaler   00003000STBLI B         A      00003000002YB2002062420110207        AF  205600
28103215200005606005      1  1 x 0,5 ml                    00000050MLFIN B                00000000042MH2006010220101227        A   135400
28103118399005615005      1  1 x 5 ml                      00000500MLHTG BEGR             00000000002YA2002021820091019        A   260176
28103164200005624005         30 stk. (blister)             00003000STBLI B         A      00001500003YL2001051420060814        AF  056000
28103129499005635005      1  28 stk. (blister)             00002800STBLI AP4       A      00000186703YT2001090320100125        A   148800
28103212400005639005      1  56 stk. (blister)             00005600STBLI AP4       A      00000364002YC2002081920110124        A   148800
28103164200005641010      1  60 stk. (blister)             00006000STBLI B         A      00003000003YL2001051420080602        AF  056000
28103115499005645015      1  18 stk. (blister)             00001800STBLI B         A      00001800000XT200902092011012420110221AF  010189
28103164200005672020         180 stk. (blister)            00018000STBLI B         A      00009000003YL2001051420080714        AF  056000
28103164200005674015         90 stk. (blister)             00009000STBLI B         A      00004500003YL2001051420080602        AF  056000
28103129499005685010      1  98 stk. (blister)             00009800STBLI AP4       A      00000653303YT2001090320110124        A   148800
28103129599005700005      1  28 stk. (blister)             00002800STBLI AP4       A      00000373303YT2001122420110124        A   148800
28103129599005711010      1  98 stk. (blister)             00009800STBLI AP4       A      00001306703YT2001122420110124        A   148800
28103129699005722005      1  28 stk. (blister)             00002800STBLI AP4       A      00000746703YT2001122420110124        A   148800
28103129699005733010      1  98 stk. (blister)             00009800STBLI AP4       A      00002613303YT2001122420110124        A   148800
28103212500005741005      1  56 stk. (blister)             00005600STBLI AP4       A      00000728002YC2002081920110207        A   148800
28103340702005757005         28 stk. (blister)             00002800STBLI B         A      00001400003YA2002080520110124        AF  035800
28103011698005766005      1  1 htgl.                       00000100HTHTG NBS  GYNOBI      00000100002YC2002012120110221        A   262349
28103131000005775005         10 stk. (blister)             00001000STBLI HX18      V PKRON00000166703YA2001100120100726        A   256647
28103041198005776010      1  1000 ml                       00100000MLPFL BP               00000000002YA2001080620060911        A   099300
28103264701005782005         15 stk. (blister)             00001500STBLI A                00000000003YL20020722                A   056800
28103011798005789005      1  1 htgl.                       00000100HTHTG NBS  GYNOBI      00001200002YC20011015                A   262349
28103340702005790010         100 stk.                      00010000STPBH B         A      00005000003YA2002080520110124        AF  035800
28101375189005792010      10 10 x 20 ml                    00020000MLHTG B                00000000002YA200810202010072620101227A   262114
28101397890005793010      1  100 stk.                      00010000ST    B         A      00003333305YA2008082520110124        AF  020802
28103220901005806005      1  1 htgl.                       00000100STHTG A                00000142902YK2009042020110307        A   010189
28103340802005812005         28 stk. (blister)             00002800STBLI B         A      00002800003YA2002080520110124        AF  035800
28100636073005813005      1  10 stk. (blister)             00001000STBLI HX18      V PKRON00000166705YA2001100120100726        A   256647
28100907676005814005         10 stk.                       00001000ST    HX18      V PKRON00000166705YA2001100120100726        A   256647
28103340802005823010         56 stk. (blister)             00005600STBLI B         A      00005600003YA2002080520110124        AF  035800
28103264701005836010         20 stk. (blister)             00002000STBLI A                00000000003YL20020722                A   056800
28103340802005845015         100 stk.                      00010000STPBH B         A      00010000003YA2002080520110124        AF  035800
28103340902005867005         28 stk. (blister)             00002800STBLI B         A      00004200003YA2002080520110124        AF  035800
28103005998005868005      1  250 stk.                      00025000STTBH NBS  PAED        00000625002YT2006052220060522        A   010530
28103249501005872005      1  28 stk. (blister)             00002800STBLI B                00000000003YL2006082820101115        A   205600
28101333888005884005         8 stk.                        00000800ST    B                00000200003YA1992092119950410        A   062700
28103163500005885005      1  1 htgl.                       00000100STHTG A                00000100003YC2006022720110110        A   058300
28103249501005894010      1  98 stk. (blister)             00009800STBLI B                00000000003YL2006082820101115        A   205600
28103244201005899005      1  100 stk.                      00010000STBOX B         A      00002500003YA2002020420101018        AF  257213
28103340902005902010         100 stk.                      00010000STPBH B         A      00015000003YA2002080520110124        AF  035800
28103275101005910005      1  2 x 14 stk. (blister)         00002800STBLI B                00002800003YV2001122420110110        A   011768
28103341102005922005         28 stk. (blister)             00002800STBLI B         A      00005600003YA2002080520110124        AF  035800
28103275101005932010      1  7 x 14 stk. (blister)         00009800STBLI B                00009800003YV2001122420110110        A   011768
28103341102005933010         56 stk. (blister)             00005600STBLI B         A      00011200003YA2002080520110124        AF  035800
28103275201005954005         2 x 14 stk. (blister)         00002800STBLI B                00005600003YV2001122420110110        A   011768
28103275201005976010         7 x 14 stk. (blister)         00009800STBLI B                00019600003YV2001122420110110        A   011768
28101557193005984035      6  6 x 500 ml                    00300000MLGFL B                00000000005YL20020218                A   256582
28103244301005988005      1  100 stk.                      00010000STBOX B         A      00004250003YA2006112020110124        AF  257213
28101557293005996030      6  6 x 500 ml                    00300000MLGFL B                00000000005YL20020218                A   256582
28101503492006000005         1,5 ml                        00000150MLHTG BEGR             00000075015MK2001101520091228        A   020802
28103198800006008010      5  5 x 10 ml                     00005000MLFLA A                00000000003YA2008032420080324        A   056800
28103359500006024005      5  5 x 3 ml                      00001500MLINP B         A      00003750002YK2002040120110307        AF  039000
28101867496006046010      1  250 ml                        00025000ML    BP               00000000002YK2001041620100531        A   259129
28103005898006049005      1  266 g                         00026600G PBH NBS  PAED        00001330002YK20060522                A   010530
28101896997006069005      1  60 ml                         00006000MLPFL B         A      00000000003YA2001051420101227        AF  010189
28103199000006079005         1 stk.                        00000100STHTG BEGR             00000140002YH2002080520100111        A   061200
28103143900006087015      3  90 g (3x30)                   00009000G TUB B         A      00000000002YA2011012420110207        AF  012562
28101870997006091005      1  60 g                          00006000G TUB B         A      00000000003YA200105142010112920110207AF  010189
28103310301006102005         5 x 3 ml                      00001500MLFIN B         A      00003750002YH2001111220110307        AF  039000
28101503492006111010         3 ml                          00000300MLHTG BEGR             00000150015MK2001101520091228        A   020802
28103198900006115005         1 stk.                        00000100STHTG BEGR             00000100002YH2002080520100111        A   061200
28103131000006121015         60 stk. (blister)             00006000STBLI HA18      V PKRON00001000003YA2001100120100906        A   256647
28103205500006134005      1  60 ml                         00006000MLFLA B         A      00000400003YA2010090620110307        AF  012562
28103298101006152005      1  10 stk. (blister)             00001000STBLI A                00001000005YA2010020820100920        A   027501
28103205700006215005      1  200 doser                     00020000DO    B         A      00005000002YA2010050320101227        AF  012562
28103298101006224015      1  100 stk. (blister)            00010000STBLI A                00010000005YA2010011120110207        A   027501
28103091999006242030      4  4 x 2500 ml Duo B5285VC       01000000ML    B                00000000002YB2003030320040105        A   135400
28103092099006249035      4  4 x 2500 ml B5296RC           01000000ML    B                00000000002YB2003030320040105        A   135400
28103091899006264030      4  4 x 2500 ml B5291RC           01000000ML    B                00000000002YB2003030320040105        A   135400
28103092099006283040      4  4 x 2500 ml Duo B5287C        01000000ML    B                00000000002YB2003030320091005        A   135400
28103091899006292035      4  4 x 2500 ml Duo B5284C        01000000ML    B                00000000002YB2003030320091005        A   135400
28103231701006328010      1  30 stk. (blister)             00003000STBLI AP4              00001000003YT2009071320090713        A   010530
28103091899006345040      4  4 x 2500 ml Duo B5284VC       01000000ML    B                00000000002YB2003030320091005        A   135400
28103231801006369005      1  30 stk. (blister)             00003000STBLI AP4              00002000003YT2009082420090921        A   010530
28103091999006375020      4  4 x 2500 ml B5293RC           01000000ML    B                00000000002YB2003030320040105        A   135400
28103091999006406020      4  4 x 2500 ml Duo B5285C        01000000ML    B                00000000002YB2003030320040105        A   135400
28103231901006413010      1  30 stk. (blister)             00003000STBLI AP4              00003000003YT2007120320071203        A   010530
28103066299006443005      1  50 ml                         00005000MLHTG BP               00000000003YA2002041520070101        A   205600
28101882497006497010      1  90 stk. (blister) (Paranova)  00009000STBLI B         A      00002250005YL2011030720110307        AF  083200
28103232101006499010      1  30 stk. (blister)             00003000STBLI AP4              00006000003YT2009050420090504        A   010530
28103244401006542005      1  2 stk. (blister)              00000200STBLI B                00000000003YA2003090120110221        A   056800
28103232201006543010      1  30 stk. (blister)             00003000STBLI AP4              00008000003YT2007091020070910        A   010530
28103235201006558005      20 20 x 0,5 ml                   00002000STFIN B                00002000003YA20020429                A   059300
28103244401006559015      1  10 stk. (blister)             00001000STBLI B                00000000003YA2003090120110221        A   056800
28100797877006568005      1  100 stk.                      00010000ST    HF               00003333303YA2008021120080211        A   256939
28103160200006579015      1  60 g                          00006000G     B         A      00000000002YB1992091720110110        AF  034800
28100717276006590010         4 x 7,5 ml                    00003000ML    HF               00000000005YA2001090320040105        A   192000
28100901376006595005      25 25 htgl. a 2 ml               00005000MLHTG B         A      00087500002YB2009072720100208        A   257309
28101720894006603005      1  60 ml                         00006000MLPFL HF               00000000002YB2001090320030915        A   258318
28103207600006606010      1  100 stk.                      00010000STDSE B         S EPIL 00001666702YB2010012520110207        AF  256939
28103207700006617005         100 stk.                      00010000STDSE B         S EPIL 00002222202YB2001112620101213        AF  256939
28103185700006623005         10 stk. (blister)             00001000STBLI B         A      00000500002YA2001112620110307        AF  013086
28103160200006637020      1  120 g                         00012000G     B         A      00000000002YB2001091720110110        AF  034800
28101432791006650005         10 x 5 ml                     00005000ML    A                00001000003YA199309272000032020110207A   011768
28103286601006653010      1  100 stk.                      00010000STPBH B         A      00010000003YB2007102220090629        AF  257213
28103286601006678005      1  30 stk. (blister)             00003000STBLI B         A      00003000003YB2008061620090629        AF  257213
28101594294006681005         10 stk.                       00001000ST    HX18             00000166703YA2001100120100726        A   256647
28103161500006732005         1 htgl.                       00000100HTHTG BEGR             00000700003YK20011126                A   014011
28101940697006742005      5  5 doser                       00000500DOHTG B                00000000002YK2002111120110110        A   262114
28103185700006778010         30 stk. (blister)             00003000STBLI B         A      00001500002YA2010092020110307        AF  013086
28103240101006787010      1  100 stk.                      00010000ST    B         A      00005000002YB2009122820110221        AF  256939
28103185700006789015         100 stk. (blister)            00010000STBLI B         A      00005000002YA2001112620110307        AF  013086
28103097299006794005      1  30 stk. (blister)             00003000STBLI B         A      00001500003YT200803102009121420110110AF  250000
28103097299006811005      1  100 stk. (blister)            00010000STBLI B         A      00005000003YT2011020720110207        AF  250000
28103258201006814010      1  100 stk.                      00010000STDSE B         A      00005000003YA2009012620110110        AF  240500
28103097399006819005      1  30 stk. (blister)             00003000STBLI B         A      00003000003YT200803102010111520110110AF  250000
28103171500006821005      5  5 x 3 ml penne                00001500MLINP B                00000750002YB2007022620070226        A   258056
28103049998006827010      4  4 x 2500 ml StaySafe balance  01000000MLPOS B                00000000002YA20040202                A   011660
28103097399006828010      1  100 stk. (blister)            00010000STBLI B         A      00010000003YT2011020720110207        AF  250000
28103071299006837005      1  7 stk. (blister)              00000700STBLI HF        V PKRAL00000700005YA20020218                A   258318
28101256286006847005      1  250 g                         00025000G POS BP               00000000004YB2001100120050103        A   063100
28101029379006848005         100 stk.                      00010000STTBH B         A      00000666703YA2001090320110124        AF  254657
28103049998006849015      4  4 x 3000 ml SleepSafe balance 01200000MLPOS B                00000000002YA20040202                A   011660
28103097499006850005      1  100 stk. (blister)            00010000STBLI B         A      00020000003YT2011020720110207        AF  250000
28103049998006860005      4  4 x 2000 ml StaySafe balance  00800000MLPOS B                00000000002YA20040202                A   011660
28101029479006865005      1  100 stk.                      00010000STTBH B         A      00002000003YA2004020220110124        AF  254657
28100115155006867005         1 htgl. a 100 ml              00010000MLHTG AP               00000000005YA2002021820080211        A   262114
28100590771006869005      1  10 ml                         00001000MLHTG BPK              00000000005YA2003010620101227        A   262114
2810322150100687000500690610 10 x 2 ml                     00002000MLFIN BP               00000000002YH2005060620080211        A   262114
28101029579006880005      1  100 stk.                      00010000STGLA B         A      00003333303YA2001090320110124        AF  254657
28101536392006890005         10 x 250 ml                   00250000ML    B                00000000005YL1993020120100125        A   056800
28103171600006899005      1  50 stk. (blister)             00005000STBLI B         A      00001666703YB2005050920080825        A   254766
28103284201006914005         28 stk. (blister)             00002800STBLI B         A      00005600003YA2002080520100322        AF  061200
28103050198006915010      4  4 x 2500 ml StaySafe balance  01000000MLPOS B                00000000002YA20040202                A   011660
28103171600006921010      1  100 stk. (blister)            00010000STBLI B         A      00003333303YB2005050920080825        A   254766
28103284201006928010         98 stk. (blister)             00009800STBLI B         A      00019600003YA2002080520100322        AF  061200
28103050198006937005      4  4 x 2000 ml StaySafe balance  00800000MLPOS B                00000000002YA20040202                A   011660
28103050198006948015      4  4 x 3000 ml SleepSafe balance 01200000MLPOS B                00000000002YA20040202                A   011660
28103130799006966005         60 stk. (blister)             00006000STBLI B         A      00003000005YA2001111220100823        AF  254766
28103050098006970010      4  4 x 2500 ml StaySafe balance  01000000MLPOS B                00000000002YA20040202                A   011660
28103194200006985010      5  5 x 10 ml                     00005000MLAMP AP4              00000000003YC2010121320101213        A   262097
28103050098006992005      4  4 x 2000 ml StaySafe balance  00800000MLPOS B                00000000002YA20040202                A   011660
28103194300006996005      5  5 x 1 ml                      00000500MLAMP AP4              00000000003YC2010121320101213        A   262097
28103050098007003015      4  4 x 3000 ml SleepSafe balance 01200000MLPOS B                00000000002YA20040202                A   011660
28103151500007007005      10 10 x 2 ml                     00002000MLAMP AP4              00000000005YL2010121320101213        A   262097
28103071299007008010      1  21 stk. (blister)             00002100STBLI HF        V PKRAL00002100005YA20020513                A   258318
28103194300007015010      5  5 x 5 ml                      00002500MLAMP AP4              00000000003YC2003120820101213        A   262097
28103151500007016005      10 10 x 10 ml                    00010000MLAMP AP4              00000000005YL2010121320101213        A   262097
28100650074007067005      1  50 ml                         00005000ML    BP               00000000003YK2001072320080211        A   262114
28101882597007092015      1  90 stk. (blister) (Paranova)  00009000STBLI B         A      00004500005YL2010112920101129        AF  083200
28100726176007095005         30 stk.                       00003000STPBH A         A      00000750005YA2001091720110110        A   020802
28103240101007098005      1  30 stk.                       00003000ST    B         A      00001500002YB2009122820091228        AF  256939
28103453602007099005      1  28 stk. (blister)             00002800STBLI B         S CHOL 00002800003YV2003060920110110        AF  056100
28100327860007104010         100 stk.                      00010000ST    B         A      00000166705YA1978052920110110        A   257228
28103240201007107010      1  100 stk.                      00010000ST    B         A      00010000002YA201002222010092020110221AF  256939
28103240201007118005      1  30 stk.                       00003000ST    B         A      00003000002YA2009122820091228        AF  256939
28101013660007120005         30 stk.                       00003000ST    B         A      00000250005YA1979031220110110        A   257228
28103151700007123005      1  180 stk.                      00018000STTBH B                00002250002YB20020107                A   014011
2810104068000712601000711520 20 htgl.                      00002000STHTG BP               00000000003YA2002081920070101        A   205600
28103240301007129010      1  100 stk.                      00010000ST    B         A      00020000002YA200912282010122720110307AF  256939
28103453602007133010      1  98 stk. (blister)             00009800STBLI B         S CHOL 00009800003YV2003060920110110        AF  056100
2810104068000713700500649810 10 htgl. + solvens            00001000STHTG BP               00000000003YA2002081920070101        A   205600
28101013660007138010         100 stk.                      00010000ST    B         A      00000833305YA1978052920110110        A   257228
28103240301007140005      1  30 stk.                       00003000ST    B         A      00006000002YA2008122920081229        AF  256939
28103453702007144005      1  28 stk. (blister)             00002800STBLI B         S CHOL 00005600003YV2003060920110110        AF  056100
28103453702007155010      1  98 stk. (blister)             00009800STBLI B         S CHOL 00019600003YV2003060920110110        AF  056100
28100650074007156010      1  100 ml                        00010000ML    BP               00000000003YK2001072320080211        A   262114
28100528167007161005         100 stk.                      00010000ST    B         A      00003333305YA1978052920110110        AF  257228
28103453802007166005      1  28 stk. (blister)             00002800STBLI B         S CHOL 00011200003YV2003060920110110        AF  056100
28101133883007179015      6  6 x 1000 ml                   00600000ML    B                00000000002YA1985100719950410        A   256331
28103453802007186010      1  98 stk. (blister)             00009800STBLI B         S CHOL 00039200003YV2003060920110110        AF  056100
28101133983007195010         6 x 1000 ml                   00600000ML    B                00000000002YA1985100719950410        A   256331
28101403490007278005         30 stk.                       00003000ST    B         S HTCAA00001500003YT1991060320110110        A   011768
28103134600007290010      3  3 x 5 ml                      00001500MLDBH B         A      00015000018MB2010020820110221        AF  012009
28103275901007297020      1  204 stk. (blister)            00020400STBLI HF               00001360030MB2002090220060605        A   011768
28103205300007303005      1  3 ml                          00000300MLDBH B         A      00003000002YA2002041520050328        AF  013805
28103240401007306005      1  250 ml                        00025000MLFLA BP               00000000002YA2001072320100628        A   011596
28103240401007317010      1  1000 ml                       00100000MLFLA BP               00000000002YA2001072320060717        A   011596
28103266201007330005      60 60 x 4 ml                     00024000MLPAM B         A      00000000003YA2002042920110124        AF  010189
28103216200007337005      1  60 mg forfyldt i en 0,3 ml spr00000100STFIN B                00002000002YH20020902                A   258628
28103216400007360005      1  1 stk.                        00000100STFIN B                00004000002YH20020902                A   258628
28103216300007363005      1  1 stk.                        00000100STFIN B                00003000002YH20020902                A   258628
28103276001007375020      1  204 stk. (blister)            00020400STBLI HF               00002720002YB2002090220060605        A   011768
28103232401007378005         10 x 300 ml                   00300000MLPOS B                00000500003YL2001111220100111        A   061800
28103232601007424010         30 stk. (blister)             00003000STBLI B                00001500003YA2002012120100111        A   061800
28103231101007434005         2,5 ml                        00000250ML    B         A      00000000002YK2001111220110110        AF  061800
28103270301007448005      10 10 X 5 ML                     00005000MLHTG B                00000000002YC20050815                A   135400
28101697994007462010         250 ml                        00025000MLPFL B                00000000003YA2002010720030512        A   259172
28103271401007494005         6.67 g                        00000667G     BP               00000000002YA2002042920110221        A   056800
28103261201007495005         50 stk.                       00005000STGFL HF               00002500003YA20011112                A   205600
28103246701007505005      1  30 stk.                       00003000STGLA B         A      00001500002YV2001121020110110        AF  061800
28103238401007515005      1  5 ml                          00000500MLFLA B         A      00000000002YA2002122320110110        A   011768
28103291301007516005      1  60 doser                      00006000DO    B         A      00003000000  2009122820091228        A   257309
28101488092007529005      1  1 x 0,5 ml                    00000050MLHTG A                00000000003YK2007031220070312        A   255801
28101791895007535015         100 stk.                      00010000STDSE A         A      00001666705YA2009071320110307        AF  260850
28103292601007540010      12 12 x 100 ml                   00120000MLHTG B                00000400002YV20030623                A   254856
28103291401007549010      1  60 doser                      00006000DOPIH B         A      00006000002YV2011020720110207        AF  257309
28103054998007566005      1  50 stk. (blister)             00005000STBLI A         A      00000833303YL2004030120090810        AF  013086
28103237301007568005      1  10 stk. (blister)             00001000STBLI HF        V PKRAL00001000002YA2007021220100322        A   013086
28103171900007601005         1 x 3,5 mg                    00000350MGHTG BEGR             00000350002YK20011112                A   257941
28103055098007605005      1  50 stk. (blister)             00005000STBLI A         A      00001666703YL2004031520110307        AF  013086
28103237301007616015      1  50 stk. (blister)             00005000STBLI HF        V PKRAL00005000002YA2007021220100322        A   013086
28100950477007625005         10 stk.                       00001000ST    B         A      00000666703YB1978100220110110        A   257228
28103237301007638020      1  90 stk. (blister)             00009000STBLI HF        V PKRAL00009000002YA2007021220100322        A   013086
28103237301007645010      1  20 stk. (blister)             00002000STBLI HF        V PKRAL00002000002YA2007021220100322        A   013086
28103055098007649010      1  100 stk. (blister)            00010000STBLI A         A      00003333303YL2009121420110124        AF  013086
28103222201007693005         10 ml                         00001000MLDBH B                00000000002YA2002080520100308        A   132300
28103231101007721010      3  3 x 2,5 ml                    00000750ML    B         A      00000000002YK2001111220110110        AF  061800
28100524267007732005      1  2 ml                          00000200ML    B                00000000030MK1994050920061204        A   258374
28103271901007735010         30 stk. (blister)             00003000STBLI B         A      00003000004YA2002020420050328        AF  255816
28100524267007740010      1  5 ml                          00000500ML    B                00000000030MK1994050920061204        A   258374
28103246901007760005      1  30 stk.                       00003000STGLA B         A      00003000002YV2001121020110110        AF  061800
28103246901007769010      1  100 stk.                      00010000STGLA B         A      00010000002YV2001121020110110        AF  061800
28103086999007775005      1  20 ml                         00002000MLHTG BP               00000000002YL2003041420060116        A   063100
28103220201007797005      1  30 g                          00003000G TUB B         A      00000000002YA201011152010121320110110AF  012562
2810195159700781400500778910 10 x 10 x 1 dose              00010000DOHTG B                00000000024MK2003042820101101        A   001200
28101773695007847005      8  8 x 1000 ml                   00800000MLPLP B                00000000002YA2003070720091005        A   135400
28103237201007852010      1  3 x 1 stk.                    00000300STKAR B                00000000040MH2002101420101129        A   257309
28103248701007859005      6  6 x 1000 ml (6 x 1200 kcal)   00600000MLPLP B                00000000002YL2002122320040426        A   135400
28101289386007872005         60 stk.                       00006000ST    B                00000000005YA1993011820110110        A   205600
28103304701007878005      50 50 x 50 ml minibag            00250000MLPOS HA               00000000018MA2011020720110207        A   135400
28103304701007889010      50 50 x 100 ml minibag           00500000MLPLP HA               00000000030MA2011020720110207        A   135400
28101773295007892005      8  8 x 1000 ml                   00800000MLPLP B                00000000002YA20030707                A   135400
28103271901007908005         10 stk. (blister)             00001000STBLI B         A      00001000004YA2002020420050328        AF  255816
28103220201007910010      1  60 g                          00006000G TUB B         A      00000000002YA201009202010121320110207AF  012562
28103206800007920005         2,5 ml                        00000250MLDBH B         A      00002500003YA2001122420110110        AF  132300
28103235801007921005      1  5 ml                          00000500MLDBH B         A      00000000003YA2003012020100308        AF  132300
28103271901007923015      1  90 stk. (blister)             00009000STBLI B         A      00009000004YA2003041420050328        AF  255816
28103248701007926010      4  4 x 1500 ml (4 x 1800 kcal)   00600000ML    B                00000000002YL2002120920040426        A   135400
28103248701007937015      4  4 x 2000 ml (4 x 2400 kcal)   00800000MLPLP B                00000000002YL2002122320040426        A   135400
28103206800007952015      3  3 x 2,5 ml                    00000750MLDBH B         A      00007500003YA2001122420110221        AF  132300
28103235801007957015      3  3 x 5 ml                      00001500MLDBH B         A      00000000003YA2003012020100308        AF  132300
28100076255007976005      1  10 stk. (blister)             00001000STBLI HX18      V PKRON00000166705YT20011015                A   056800
28103227801007978005      1  1 htgl.                       00000100HTHTG BEGR             00000050003YH2002112520091228        A   058300
28101315887007986005         15 g                          00001500G     HA        V PPSOE00000000003YA2002040120050103        A   256269
28103144500007995005      1  10 l cylinder    pris pr. time00001000LT    BEGR             00000000002YL20011210                A   013139
28103227701008010005      1  1 htgl.                       00000100HTHTG BEGR             00000012503YH2002102820091228        A   058300
28103194200008021005      5  5 x 2 ml                      00001000MLAMP AP4              00000000003YC2010121320101213        A   262097
28103234101008028005      1  30 g (100 ml)                 00010000MLFLA A                00000800002YT2002120920090615        A   062700
28103248101008047005      6  6 x 1000 ml (6 x 610 kcal)    00600000MLPLP B                00000000002YL2002120920040426        A   135400
28103426802008055005      1  28 stk.                       00002800STPBH B         A      00002800002YB2006032720100906        AF  013086
28103248101008058010      4  4 x 1500 ml (4 x 910 kcal)    00600000ML    B                00000000002YL2002102820040426        A   135400
28103248101008069015      4  4 x 2000 ml (4 x 1215 kcal)   00800000MLPLP B                00000000002YL2002122320040426        A   135400
28100457064008086005         Tube a 30 g                   00003000G TUB B         A      00000000003YA1978121120070101        A   059300
28103008198008097015      1  6 stk. (blister)              00000600STBLI B         A      00000300003YT2002061020050718        A   061200
28103008298008099005      1  2 stk. (blister)              00000200STBLI B         A      00000200003YB2002061020050718        A   061200
28103079999008101005      4  4 penne + 4 kanyler + 8 serv. 00000400STINP BEGR             00002666703YK2002101420091228        A   257309
28100457064008102010         100 g                         00010000G TUB B         A      00000000003YA1978121120110221        AF  059300
28103080199008108005      1  4 penne + 4 kanyler + 8 serv. 00000400STINP BEGR             00005333318MK2002101420091228        A   257309
28103008298008130020      1  18 stk. (blister)             00001800STBLI B         A      00001800003YB2002061020050718        AF  061200
28103080099008131005      4  4 penne + 4 kanyler + 8 serv. 00000400STINP BEGR             00004266718MK2002112520091228        A   257309
28103228601008134005      4  4 penne + 4 kanyler + 8 serv. 00000400STINP BEGR             00006400001YK2003090120091228        A   257309
28103080399008145005      4  4 penne + 4 kanyler + 8 serv. 00000400STINP BEGR             00008000018MK2002101420091228        A   257309
28101447291008152005         30 stk. (blister)             00003000STBLI A         A      00003000005YA2010092020100920        AF  262135
28101560693008176010      1  60 g                          00006000G TUB B         A      00000000000XA2011030720110307        AF  083200
28101315887008194010         30 g                          00003000G     HA        V PPSOE00000000003YA2002040120050103        A   256269
28101315887008196015         100 g                         00010000G     HA        V PPSOE00000000003YA2002040120100111        A   256269
28103248501008223010      6  6 x 1000 ml (6 x 1015 kcal)   00600000ML    B                00000000002YL2002112520040426        A   135400
28103248501008234015      4  4 x 1500 ml (4 x 1525 kcal)   00600000ML    B                00000000002YL2002112520040426        A   135400
28100965364008235005         50 ml                         00005000ML    B         A      00000000003YA1978121120070101        A   059300
28103248501008245005      4  4 x 2000 ml (4 x 2030 kcal)   00800000ML    B                00000000002YL2002102820040426        A   135400
28100515267008326010         100 ml                        00010000ML    B         A      00000000002YB1978121120100111        AF  059300
28103245201008346005      1  20 stk. (blister)             00002000STBLI A                00002000003YL2010071220110207        A   257213
28101863496008381005         120 stk. (blister)            00012000STBLI B         A      00012000003YB200203182008021120110221AF  250000
28100965264008383005         Tube a 30 g                   00003000G     B         A      00000000003YA1978121120070101        A   059300
28103298101008395010      1  20 stk. (blister)             00002000STBLI A                00002000005YA2010020820110221        A   027501
28103260901008404005      1  50 stk. (blister)             00005000STBLI A         A      00001000003YB2002020420101115        AF  250000
28103081899008414005      1  1 x 7,5 mg                    00000750MGHAM BEGR             00000053603YK2002111120091228        A   257228
28103261001008415005         50 stk. (blister)             00005000STBLI A         A      00002000003YB2002020420101227        AF  250000
28103596403008424005      1  98 stk.                       00009800ST    B         A      00004900004YA2010092020110221        AF  262661
28103192400008451005      1  10 stk.                       00001000ST    B                00000250005YA2009030920100726        A   257213
28103596503008452015      1  98 stk.                       00009800ST    B         A      00009800004YA2010082320110124        AF  262661
28103176800008453005      1  100 stk. (d†se)               00010000STTBH B         A      00002216703YA2002040120040510        A   256647
28103280901008455005      3  3 x 21 stk. (blister)         00006300STBLI B                00000000002YB2010061420060911        A   255483
28103281301008457005         3 x 21 stk. (blister)         00006300STBLI B                00000000005YA2002091620110307        A   255483
28100965264008466010         Tube a 100 g                  00010000G     B         A      00000000003YA1978121120100111        A   059300
28101946697008479005      1  1000 doser                    00100000DOAMP BP               00000000003YF2001102920080211        A   262114
28103105999008488010         100 stk. (blister)            00010000STBLI B         A      00005000003YA2002090220110124        AF  250000
28101595194008498015      1  10 stk.                       00001000ST    HF        V PKRAL00001000003YL20050117                A   262104
28101484191008506005      1  10 ml                         00001000MLHTG BP               00000000002YK2002051320080211        A   262114
28101595194008523035      1  100 stk.                      00010000ST    HF        V PKRAL00010000003YL20050117                A   262104
28100965465008524005      1  30 g                          00003000G TUB B                00000000003YA2008111720110221        A   059300
28101595194008534025      1  30 stk.                       00003000ST    HF        V PKRAL00003000003YL20050117                A   262104
28103274501008545010         84 stk. (3 x 28)              00008400ST    B         A      00000000003YC2002042920110110        A   039000
28103259101008580005      1  7 stk. (blister)              00000700STBLI HF        V PKRAL00000700002YA2004051020030414        A   257213
28103308101008598010      4  4 x 2500 ml                   01000000MLTKS B                00000000002YA20021014                A   011660
28103308101008600005      4  4 x 2000 ml                   00800000MLTKS B                00000000002YA2002051320020708        A   011660
28103308001008611005      4  4 x 2000 ml                   00800000MLTKS B                00000000002YA2002051320020708        A   011660
28103259101008612010      1  20 stk. (blister)             00002000STBLI HF        V PKRAL00002000002YA2004010520081117        A   257213
28100484765008631005         Tube a 30 g                   00003000G     B                00000000003YA2008111720110124        A   059300
28103308001008637010      4  4 x 2500 ml                   01000000MLTKS B                00000000002YA20021014                A   011660
28103259101008647010      1  50 stk. (blister)             00005000STBLI HF        V PKRAL00005000002YA2002061020081117        A   257213
28101484191008666010      1  40 ml                         00004000MLHTG BP               00000000002YK2002051320080211        A   262114
28101560293008672005         60 g                          00006000G TUB B         A      00000000005YA2010110120110221        AF  262135
28103308201008675005      4  4 x 2000 ml                   00800000MLTKS B                00000000002YA2002051320020708        A   011660
28103192400008707010      1  20 stk.                       00002000ST    B                00000500005YA2009030920110124        A   257213
28103192500008718005      1  10 stk.                       00001000ST    B                00000500005YA2010080920110124        A   257213
28103192500008740010      1  20 stk.                       00002000ST    B                00001000005YA2009030920110221        A   257213
28103275901008745010      1  24 stk. (blister)             00002400STBLI HF               00000160030MB2003092920060605        A   011768
28103228101008767005      4  4 x 0,5 ml                    00000200MLFIN BEGR             00002076903YH2002081920091228        A   062700
28103276001008768010      1  24 stk. (blister)             00002400STBLI HF               00000320002YB2003092920060605        A   011768
28103228201008782005      4  4 x 0,5 ml                    00000200MLFIN BEGR             00002769203YH2002081920091228        A   062700
2810316010000879802005464212 12 x 50 ml                    00060000MLHTG BPK              00000000003YA2002062420110307        A   063100
28103270001008831005      1  15 g                          00001500G TUB A         A      00000000002YB2002081920110110        A   011768
28103188300008855005      10 10 x 1 htgl.                  00001000HTHTG B                00000250000XT2002030420100920        A   010189
28103247601008856005      1  1 x 10 ml                     00001000MLPFL B                00000000024MT2006112020071217        A   260278
28103247601008867010      12 12 x 10 ml                    00012000MLPFL B                00000000024MT2006112020071217        A   260278
28103252601008903005         30 x 0,35 ml                  00003000STAMP B         A      00000000002YT2002080520100308        A   132300
28101103282008904010      1  60 ml                         00006000ML    B         A      00000000030MB2009051820110110        AF  061800
28103274801008927005      1  4 stk. (blister)              00000400STBLI B                00000800003YV2003020320110110        A   058300
28103274801008950035      1  8 stk. (blister)              00000800STBLI B                00001600003YV2003020320110110        A   058300
28103270001009065010      1  30 g                          00003000G TUB A         A      00000000002YB2002081920110110        AF  011768
28101213885009071005      2  2 x 112 doser                 00022400DODSP B         A      00002800030MA2003031720110110        A   257228
28103201100009075005         60 ml                         00006000MLFLA HF               00000000003YA2002081920031027        A   256009
28103204400009113010      4  4 x 2500 ml StaySafe balance  01000000MLPOS B                00000000002YA20040202                A   011660
28100997778009119005         600 g                         00060000G DSE BP               00000000005YA2001121020070409        A   063100
28103246001009150005      1  20 stk. (blister)             00002000STBLI A                00002000003YL2003020320110207        A   250000
28103196300009192005      5  5 htgl. + solvens             00000500HTHAM A                00000500003YA2002051320100111        A   061800
28103312001009201005         1 x 100 ml                    00010000MLHTG BP               00000000001YK2002042920050718        A   205600
28103204600009213010      4  4 x 2500 ml StaySafe balance  01000000MLPOS B                00000000002YA20040202                A   011660
28103365002009214005      10 10 htgl.                      00001000HTHTG A                00001000003YA2002051320100111        A   061800
28103204500009216010      4  4 x 2500 ml StaySafe balance  01000000MLPOS B                00000000002YA20040202                A   011660
28103206400009278005      1  30 stk. (blister)             00003000STBLI A                00000375002YA2002091620100111        A   061800
28101792795009282015      20 20 amp. x 20 ml               00040000MLAMP B                00000000002YA20000918                A   256331
28103160900009285010      1  30 g                          00003000G TUB A         A      00000000003YB2002072220100111        A   256269
28103282401009321005         30 ml                         00003000MLPFL HF               00004500002YA2002040120040105        A   192000
28103132300009326010      1  100 stk.                      00010000STTBH B         A      00001666703YA2002122320110110        AF  056100
28101792695009340015      20 20 amp. x 20 ml               00040000MLAMP HA               00000000003YB20000918                A   256331
28103231301009375005      1  20 stk. (blister)             00002000STBLI HF               00001000002YA2006042420090309        A   013086
28103360602009379005      1  1 x 1000 doser                00100000DOGFL BP               00000000003YH20030526                A   062800
28103231301009386010      1  60 stk. (blister)             00006000STBLI HF               00003000002YA2006021320090309        A   013086
28103231401009397005      1  10 stk. (blister)             00001000STBLI HF               00001000002YA2006100920070507        A   013086
28103231401009408010      1  30 stk. (blister)             00003000STBLI HF               00003000002YA2003101320090309        A   013086
28103285201009409005         8 stk.                        00000800ST    B         A      00002100002YA2002080520110110        A   011768
28103405702009414005      1  10 ml                         00001000MLFIN B                00000000003YA2009121420091214        A   255536
28103360602009418010      1  1 x 5000 doser                00500000DOGFL BP               00000000003YH20030526                A   062800
28103285301009443005      1  8 stk.                        00000800ST    B         A      00002800002YA2007123120110110        AF  011768
28103246301009462005      1  20 stk. (blister)             00002000STBLI B         A      00001000005YT2011030720110307        AF  250000
28103285401009465005         8 stk.                        00000800ST    B         A      00004200002YA2002080520110110        AF  011768
28103246401009483005      1  7 stk. (blister)              00000700STBLI B         A      00000700005YT2008110320110307        AF  250000
28103285501009489005         8 stk.                        00000800ST    B         A      00005600002YA2002080520110110        AF  011768
28103246401009494010      1  10 stk. (blister)             00001000STBLI B         A      00001000005YT2010050320110307        AF  250000
28103204400009525005      4  4 x 2000 ml StaySafe balance  00800000MLPOS B                00000000002YA20040202                A   011660
28103204500009560005      4  4 x 2000 ml StaySafe balance  00800000MLPOS B                00000000002YA20040202                A   011660
28103204600009591005      4  4 x 2000 ml StaySafe balance  00800000MLPOS B                00000000002YA20040202                A   011660
28101783795009606020      1  56 stk. (blister) (Europharma)00005600STBLI B         A      00004200003YL201012272010122720110124AF  012562
28103206500009609005      1  30 stk. (blister)             00003000STBLI A                00001500002YA2002091620100111        A   061800
28103246001009615010      1  100 stk. (blister)            00010000STBLI A                00010000003YL2009061520110110        A   250000
28103204600009618015      4  4 x 3000 ml SleepSafe balance 01200000MLPOS B                00000000002YA20040202                A   011660
28103204500009624015      4  4 x 3000 ml SleepSafe balance 01200000MLPOS B                00000000002YA20040202                A   011660
28103171800009625010      1  1 x 2 ml                      00000200MLHTG BEGR             00000000002YF2007073020070730        A   012688
28103204400009635015      4  4 x 3000 ml SleepSafe balance 01200000MLPOS B                00000000002YA20040202                A   011660
28103171800009641005      1  1 x 1 ml                      00000100MLHTG BEGR             00000000002YF2007073020070730        A   012688
28103176400009649010      1  30 g                          00003000G TUB A         A      00000000002YB2002072220100111        AF  256269
28103176400009660020      1  60 g                          00006000G TUB A         A      00000000002YB2002072220100111        AF  256269
28101519492009672005      1  55 stk. (blister)             00005500STBLI B         A      00000550005YA2003020320051121        AF  059300
28103189100009678005      1  1 kg                          00000100KG    BP               00000000002YA2002101420051219        A   260372
28103257701009679005      1  30 stk.                       00003000ST    BEGR             00003000003YA2002111120040621        A   259859
28101791895009783010         50 stk.                       00005000STPBH A         A      00000833305YA2002041520100726        AF  260850
28103087799009794020      1  28 stk. (blister) (Paranova)  00002800STBLI B         A      00002800003YL201011012010110120101213AF  083200
28101914997009830005      1  1 eng.spr. a 0,6 ml           00000060MLENS B                00002000002YH2006031320060313        A   062700
28103076499009861005         10 stk. (blister)             00001000STBLI B                00000250005YA2002090220100906        A   250000
28103596603009877005      1  98 stk.                       00009800ST    B         A      00019600004YA2010090620110307        AF  262661
28101719494009902005         30 stk.                       00003000ST    B         A      00003000003YA1995102320090504        AF  255483
28100484865009905010      100100 x 1,8 ml tubuler          00018000MLTUL B                00000000002YA2009101920101101        A   013281
28103092899009915005      3  3 x 10 stk.                   00003000ST    B                00000000003YA2002120920100125        A   257330
28103092999009921005      3  3 x 10 stk.                   00003000ST    B                00000000003YA2010100420101004        A   257330
28103076499009922010         20 stk. (blister)             00002000STBLI B                00000500005YA2011020720110207        A   250000
28103093099009932005      3  3 x 10 stk.                   00003000ST    B                00000000003YA2004110820100125        A   257330
28103271701009935005      1  100 doser                     00010000DO    B         A      00005000002YZ2006121820110221        AF  012562
28100484865009942005      100100 x 1,8 ml tubuler selvasp. 00018000MLTUL B                00000000002YA2009101920101101        A   013281
28103076599009952010         20 stk. (blister)             00002000STBLI B                00001000005YA2002090220100920        A   250000
28103076599009966005         10 stk. (blister)             00001000STBLI B                00000500005YA2002090220100920        A   250000
28103163100009987005      1  20 stk.                       00002000STTBH B         A      00002000005YT2003052620101227        AF  027501
28101140883009993010         1 spr›jte a 3 g               00000300G OSP B                00000000003YA201012272011022120110307A   254780
28103163100009998010      1  60 stk.                       00006000STTBH B         A      00006000005YT2003052620110307        AF  027501
28103287001010002010         30 stk. (blister)             00003000STBLI B         A      00001500003YL20020513                AF  257309
28103163100010011015      1  100 stk.                      00010000STTBH B         A      00010000005YT2003052620110124        AF  027501
28103163100010020020      1  250 stk.                      00025000STTBH B         A      00025000005YT2006092520100517        AF  027501
28103287101010035010         30 stk. (blister)             00003000STBLI B         A      00003000003YL20020513                AF  257309
28103287201010057005         30 stk. (blister)             00003000STBLI B         A      00004500003YL20020513                AF  257309
28103332201010077005      1  120 doser                     00012000DO    B         A      00000000002YV2002061020110307        AF  010189
28103332201010088015      3  3 x 120 doser                 00036000DO    B         A      00000000002YV201012272011012420110207AF  010189
28101582393010102005      1  1 htgl. a 75 IE (5,5 mikrog.) 00000100STHTG NBS  GYNOBI      00000100002YC20030217                A   262349
28101726694010156005      1  12 stk. (blister)             00001200STBLI B                00000000003YA2006112020071217        A   260278
