28120200293SPRF              Cardiolite                    radiofarm. pr‘p.s‘t PREPSET                           0000000000   260558260558 V09GA01IV                                
28120200393SPRF              TechneScan MAG3               radiofarm. pr‘p.s‘t PREPSET                           0000000000   010324010324 V09CA03IV                                
28120200493SPRF              Metastron                     injektionsv‘ske     INJVSK                            0000000000   255936261783 V10BX01IV                                
28120200893SPRF              Ceretec                       radiofarm. pr‘p.s‘t PREPSET                           0000000000   255936261783 V09AA01IV                                
28120200993SPRF              Neurolite                     radiofarm. pr‘p.s‘t PREPSET                           0000000000   260558260558 V09AA02IV                                
28120201093SPRF              Fluor-18-FDG                  injektionsv‘ske     INJVSK                            0000000000   137700137700 V09IX04IV                                
28120201293SPRF              OctreoScan                    radiofarm. pr‘p.s‘t PREPSET                           0000000000   010324010324 V09IB01IV                                
28120201694SPRF              UltraTag RBC                  radiofarm. pr‘p.s‘t PREPSET                           0000000000   010324010324 V09GA06IV                                
28120201995SPRF              LeukoScan                     pulv.t.inj.v‘ske,oplINJPULO                           0000000000   013971013971 V09HA03IV                                
28120202198SPRF              Neospect                      pulv.t.inj.v‘ske,oplINJPULO       50 mikrogram/ml     0000050000RGM079200109700 V09IA05IV                                
28120202298SPRF              Datscan                       inj.v‘ske, opl›sningINJVSKO       74 MBq/ml           0000074000MBM255936256816 V09AB03IV                                
28120202399SPRF              Stabilised Ceretec            radiofarm. pr‘p.s‘t PREPSET                           0000000000   255936261783 V09AA01IV                                
28120202493SPRF              Thallous (Tl-201) chloride    inj.v‘ske, opl›sningINJVSKO                           0000000000   010324010324 V09GX01IV                                
28120203693SPRF              AdreView, Iobenguane (I-123)  injektionsv‘ske     INJVSK                            0000000000   257059256816 V09IX01IV                                
28120203793SPRF              Sodium Iodide (123-I) GE Healtinjektionsv‘ske     INJVSK                            0000000000   257059261783 V09FX02IV                                
28120205293SPRF              Elumatic III Technetium 99m-TcradionuklidgeneratorGENERAT                           0000000000   079200011414 V09FX01IV                                
28120205593SPRF              Nanocis                       radiofarm. pr‘p.s‘t PREPSET                           0000000000   079200109700 V09DB06IV                                
28120205693SPRF              Vasculocis                    radiofarm. pr‘p.s‘t PREPSET                           0000000000   079200109700 V09GA04IV                                
28120205893SPRF              Pentacis                      radiofarm. pr‘p.s‘t PREPSET                           0000000000   079200109700 V09CA01IV                                
28120206193SPRF              Renocis                       radiofarm. pr‘p.s‘t PREPSET                           0000000000   079200109700 V09CA02IV                                
28120206499SPRF              Pulmotec                      inhalationspulver   INHPUL                            0000000000   258436258436 V09EA02IH                                
28120210193SPRF              Bridatec                      radiofarm. pr‘p.s‘t PREPSET                           0000000000   257226256816 V09DA04IV                                
28120210793SPRF              Maasol                        radiofarm. pr‘p.s‘t PREPSET                           0000000000   257226261783 V09EB01IV                                
28120210893SPRF              Nanocoll                      radiofarm. pr‘p.s‘t PREPSET                           0000000000   257226261783 V09DB01IV                                
28120211093SPRF              Venticoll                     radiofarm. pr‘p.s‘t PREPSET                           0000000000   257226261783 V09EA03IH                                
28120211193SPRF              Gallium (67-Ga) Citrate       injektionsv‘ske     INJVSK                            0000000000   010324010324 V09HX01IV                                
28120211293SPRF              TechneScan HDP                radiofarm. pr‘p.s‘t PREPSET                           0000000000   010324010324 V09BA01IV                                
28120211393SPRF              TechneScan DTPA               radiofarm. pr‘p.s‘t PREPSET                           0000000000   010324010324 V09CA01IV                                
28120211493SPRF              Ultra-Technekow FM            radionuklidgeneratorGENERAT                           0000000000   010324010324 V09FX01IV                                
28120211593SPRF              MIBG (I123)                   injektionsv‘ske     INJVSK                            0000000000   010324010324 V09IX01IV                                
28120211693SPRF              TechneScan DTPA/Aerosol       radiofarm. pr‘p.s‘t PREPSET                           0000000000   010324010324 V09EA01IH                                
28120211893SPRF              KryptoScan                    radionuklidgeneratorGENERAT                           0000000000   010324010324 V09EX01IH                                
28120211993SPRF              Indium (In111) Chloride       radiofarm. m‘rkn.oplPRECURS                           0000000000   010324010324 V09IB  IV                                
28120212093SPRF              Indium (In111) DTPA injection inj.v‘ske, opl›sningINJVSKO                           0000000000   010324010324 V09AX01IT                                
28120212293SPRF              Sodium iodide (I123) injectioninj.v‘ske, opl›sningINJVSKO                           0000000000   010324010324 V09FX02IV                                
28120212393SPRF              Hippuran (I123) injection     injektionsv‘ske     INJVSK                            0000000000   010324010324 V09CX01IV                                
28120212493SPRF              TechneScan DMSA               radiofarm. pr‘p.s‘t PREPSET                           0000000000   010324010324 V09CA02IV                                
28120212593SPRF              Sodium Iodide (I-131) T       kapsler, h†rde      KAPH                              0000000000   010324010324 V10XA01OR                                
28120212693SPRF              TechneScan PYP                radiofarm. pr‘p.s‘t PREPSET                           0000000000   010324010324 V09GA06IV                                
28120213293SPRF              Indium (In-111) Oxine GE Healtradiofarm. m‘rkn.oplPRECURS                           0000000000   255936261783 V09HB01IV                                
28120213493SPRF              Theracap                      kapsler, h†rde      KAPH                              0000000000   255936261783 V10XA01OR                                
28120213693SPRF              SeHCAT                        kapsler             KAP                               0000000000   255936261783 V09DX01OR                                
28120213793SPRF              Drytec TM                     radionuklidgeneratorGENERAT                           0000000000   255936261783 V09FX01IV                                
28120213993SPRF              Chromium (51-Cr) EDTA GE Healtinj.v‘ske, opl›sningINJVSKO                           0000000000   255936261783 V09CX04IV                                
28120214193SPRF              Indium (In-111) Chloride GE   radiofarm. m‘rkn.oplPRECURS                           0000000000   255936261783 V09IB  IV                                
28120214293SPRF              Sodium Chromate (51-Cr) GE Hearadiofarm. m‘rkn.oplPRECURS                           0000000000   255936261783 V09GX03IV                                
28120214393SPRF              Sodium Iodide (131-I) Diag. GEkapsler, h†rde      KAPH                              0000000000   255936261783 V09FX03OR                                
28120214493SPRF              Sodium Iodide (131-I) GE Healtinjektionsv‘ske     INJVSK                            0000000000   255936261783 V09FX03IV                                
28120215193SPRF              (131-I) m-Iodobenzylguanidin Dinjektionsv‘ske     INJVSK                            0000000000   255936261783 V09IX02IV                                
28120215293SPRF              (131-I) m-Iodobenzylguanidin Tinjektionsv‘ske     INJVSK                            0000000000   255936261783 V10XA02IV                                
28120215393SPRF              Teceos                        radiofarm. pr‘p.s‘t PREPSET                           0000000000   079200109700 V09BA04IV                                
28120215493SPRF              Capsion                       kapsler             KAP                               0000000000   079200109700 V10XA01OR                                
28120215593SPRF              Rb-81/Kr-81m til ventilation  radionuklidgeneratorGENERAT                           0000000000   137700137700 V09EX01IH                                
28120215693SPRF              Indium (In111) Oxinate        injektionsv‘ske     INJVSK                            0000000000   010324010324 V09HB01IV                                
28120215993SPRF              TechneScan LyoMAA             radiofarm. pr‘p.s‘t PREPSET                           0000000000   010324010324 V09EB01IV                                
28120216500SPRF              PCA (18F)  Fludeoxyglucose    injektionsv‘ske, i.vINJVIV                            0000000000   010680010680 V09IX04IV                                
28120217096SPRF              Quadramet                     inj.v‘ske, opl›sningINJVSKO                           0000000000   079200011414 V10BX02IV                                
28120218601SPRF              Ytracis                       radiofarm. m‘rkn.oplPRECURS       1850 MBq/ml         0001850000MBM079200011414 V10AA  IPIV                              
28120222302SPRF              Myoview                       radiofarm. pr‘p.s‘t PREPSET       230 mikrogram       0000000000   255936255936 V09GA02IV                                
28120222403SPRF              Fludeoxyglucose IBA           inj.v‘ske, opl›sningINJVSKO       185 MBq/ml          0000185000MBM014030014030 V09IX04IV                                
28120222503SPRF              Zevalin                       radiofarm. pr‘p. infPREPINF       1,6 mg/ml           0000001600MGM012550063200 V10XX02IV                                
28120223005SPRF              Fludeoxyglucose (F-18) Mallincinj.v‘ske, opl›sningINJVSKO       260 MBq/ml          0000260000MBM010324010324 V09IX04IV                                
28120223205SPRF              Fludeoxyglucose (F-18) "Ris›" injektionsv‘ske     INJVSK        400 MBq - 90 GBq    0000000000   255496255496 V09IX04IV                                
28120223305SPRF              Steripet                      inj.v‘ske, opl›sningINJVSKO       250 MBq/ml          0000250000MBM255936255936 V09IX04IV                                
28120223506SPRF              Fludeoxyglucose "OUH"         inj.v‘ske, opl›sningINJVSKO       400 MBq-316 GBq/htgl0000400000MBM257447257447 V09IX04IV                                
28120223607SPRF              Medi-MIBI                     radiofarm. pr‘p.s‘t PREPSET       0,5 mg              0000000500MG 257984257984 V09GA01IV                                
28120223707SPRF              Technescan Sestamibi          radiofarm. pr‘p.s‘t PREPSET       1 mg                0000001000MG 010324010324 V09GA01IV                                
28120224007SPRF              Draxmibi                      radiofarm. pr‘p.s‘t PREPSET       1 mg                0000001000MG 264188264188 V09GA01IV                                
28120224108SPRF              Stamicis                      radiofarm. pr‘p.s‘t PREPSET       1 mg                0000001000MG 079200079200 V09GA01IV                                
28120224208SPRF              Scintimun                     radiofarm. pr‘p.s‘t PREPSET       1 mg                0000001000MG 079200109700 V09HA03IV                                
28120224308SPRF              Moniyot-131 Capsule D         kapsler, h†rde      KAPH          0,37-37 MB          0000000000   952011952011 V09FX03OR                                
28120224408SPRF              Moniyot-131 Capsule T         kapsler, h†rde      KAPH          37-7400 MB          0000000000   952011952011 V10XA01OR                                
28120224508SPRF              Moniyot-131 Oral Solution     oral opl›sning      ORALOPL       14,8-3700 MB        0000000000   952011952011 V10XA01OR                                
28120224609SPRF              Montek                        radionuklidgeneratorGENERAT       10-40 GBq/ml        0000000000   952011952011 V09FX01IV                                
28120224810SPRF              NanoScan                      radiofarm. pr‘p.s‘t PREPSET                           0000000000   261874261874 V09DB01IVSC                              
28123656104SPRF              Yttriga                       radiofarm. m‘rkn.oplPRECURS       0.005-15 mikrogram  0000000000   263196263196 V10AA  NA                                
28124875811SPRF              Tekcis                        radionuklidgeneratorGENERAT                           0000000000   079200079200 V09FX01IVOK                              
