28100000555SPLM         00003Demulcin                      sugetabletter       SUGTAB        4,8 + 25 mg         0000000000   011653011653 R05FA02OR               D20091130Pakning udg†et      
28100016555SPLM         01367Toclase                       tabletter           TAB           25 mg               0000025000MG 051300010511 R05DB05OR               D20050411Pakning udg†et      
28100018755SPLM         00039Klor‘tyl "Dr. Henning"        an‘stesiv‘ske       ANVSK                             0000000000   013300013300 N01BX01                  20020513Pakning udg†et      
28100021355SPLM         00085Penicillin "Leo"              pulv.t.inj.v‘ske,oplINJPULO       1 Mill. IE          0000001000MIU034800034800 J01CE01IMIV              20061231Pakning udg†et      
28100022155SPLM         00087Selenol                       shampoo             SHAM          2,5 %               0000002500PC 255479255479 D11AC03KU                20080324Pakning udg†et      
28100028155SPLM         00128Paludrine                     tabletter           TAB           100 mg              0000100000MG 056100056100 P01BB01OR               D20071217Pakning udg†et      
28100028355SPLM         00130Mysoline                      tabletter           TAB           250 mg              0000250000MG 011565011565 N03AA03OR      J        D20090601Pakning udg†et      
28100031155SPLM         01384Disipal                       tabletter           TAB           50 mg               0000050000MG 027900185600 N04AB02OR               D20050718Pakning udg†et      
28100031755SPLM         00153Albyl                         tabletter           TAB           500 mg              0000500000MG 034800034800 N02BA01OR                20010416Pakning udg†et      
28100032855SPLM         00217Largactil                     tabletter           TAB           10 mg               0000010000MG 257228257228 N05AA01OR               D20070827Pakning udg†et      
28100037755SPLM         00188Pursennid                     overtrukne tabletterTABOTR        12 mg               0000012000MG 011768011768 A06AB06OR               D20061231Pakning udg†et      
28100038455SPLM         00196Codyl                         tabletter           TAB                               0000000000   034800034800 N02BA51OR                20010416Pakning udg†et      
28100040655SPLM         00204Achromycin                    kapsler, h†rde      KAPH          250 mg              0000250000MG 011398234000 J01AA07OR                20000403Pakning udg†et      
28100041555SPLM         00209Varidase                      pul.kutan/intrakav.oPULTOKK                           0000000000   254766254766 B06AA55CAKU              20080714Pakning udg†et      
28100044555SPLM         00254Ketogan                       inj.v‘ske, opl›sningINJVSKO       5 + 25 mg/ml        0000000000   061800061800 N02AG02        J         20041206Pakning udg†et      
28100055455SPLM         00545Nitromex                      resoribl., subling. RESOSUB       0,25 mg             0000000250MG 255237257213 C01DA02SL                20101227Pakning udg†et      
28100058355SPLM         00567Throat                        sugetabletter       SUGTAB                            0000000000   022500022500 R02AD02                  20010205Pakning udg†et      
28100073955SPLM         00684Protaminsulfat "Leo"          inj.v‘ske, opl›sningINJVSKO       10 mg/ml            0000010000MGM034800034800 V03AB14IVSC              20080616Pakning udg†et      
28100074055SPLM         00685Postrin Vet.                  injektionsv‘ske     INJVSK        10 IE/ml            0000010000IUM034800034800QH01BB02                  20011029Pakning udg†et      
28100081155SPLM         00739Pentothal-natrium             injektionssubstans  INJSUB        0,5 g               0000000500G  256231259247 N01AF03IV                20110207Pakning deaktiveret 
28100085855SPLM         00070Avimin Vet.                   inj.v‘ske, opl›sningINJVSKO       100.000 IE/ml       0100000000IUM205600205600QA11CA01IMSC              20071231Pakning udg†et      
28100086455SPLM         00795Idotyl                        brusetabletter      BRUTAB        500 mg              0000500000MG 026100026100 N02BA01OR                20100920Pakning udg†et      
28100087855SPLM         00806Penamycin Vet.                intramamm‘r salve   INTMASA                           0000000000   205600205600QJ51RC08                  20020805Pakning udg†et      
28100098155SPLM         00878Geasalol                      filmovertrukne tabl.TABFILM       333 mg              0000333000MG 027500027500 J01XX05OR               D20041206Pakning udg†et      
28100099755SPLM         00889Irgamid                       ›jensalve           OJSALV        15%                 0000015000PC 011768011768 S01AB03CO                20040719Pakning udg†et      
28100103755SPLM         00925Nepresol                      injektionssubstans  INJSUB        25 mg               0000025000MG 011768011768 C02DB01                  20020819Pakning udg†et      
28100104755SPLM         00946Codyl                         tabletter           TAB           500 + 10 mg         0000000000   240500240500 N02BA51OR               D20070115Pakning udg†et      
28100106255SPLM         00768Thycapzol                     tabletter           TAB           5 mg                0000005000MG 027501027501 H03BB02OR               D20060605Pakning udg†et      
28100114555SPLM         01015Erysorb Vet.                  inj.v‘ske,suspensionINJVSKS                           0000000000   031500011596QI09AB03SC                20100405Pakning udg†et      
28100125755SPLM         00775Peragit                       tabletter           TAB           5 mg                0000005000MG 192000192000 N04AA01OR               D20100405Pakning udg†et      
28100127455SPLM         00922Greenosan                     tabletter           TAB                               0000000000   011374011374 A11AA03                  20000320Pakning udg†et      
28100129174SPLM         03173Stryphnon                     gazebind            GAZEB                             0000000000   011420050300 B02BC05LO                20060410Pakning udg†et      
28100132955SPLM         01162Helvedstensstifter            stift               STIFT                             0000000000   059100059100 D11AF                    20020415Pakning udg†et      
28100136355SPLM         01180Macrodex 60 mg/ml m. Natr.kl  inf.v‘ske, opl›sningINFVSKO                           0000000000   254766254766 B05AA05IV                20120305Pakning deaktiveret 
28100136555SPLM         01181Macrodex 60 mg/ml med Glukos  infusionsv‘ske      INFVSK                            0000000000   012145012196 B05AA05IV                20000918Pakning udg†et      
28100140255SPLM         00933Methotrexate "Wyeth Lederle"  tabletter           TAB           2,5 mg              0000002500MG 256241254817 L04AX03OR                20061106Pakning udg†et      
28100142055SPLM         01215Phenergan                     injektionsv‘ske     INJVSK        25 mg/ml            0000025000MGM012719012719 R06AD02        J         20031222Pakning udg†et      
28100142355SPLM         01215Phenergan                     tabletter           TAB           10 mg               0000010000MG 012719012719 R06AD02OR      J        D20020624Pakning udg†et      
28100148555SPLM         01261Regitin                       inj.v‘ske, opl›sningINJVSKO       10 mg/ml            0000010000MGM011768011768 C04AB01IMIV              20070212Pakning udg†et      
28100151555SPLM         01282Oxytocini Vet. "Rosco"        inj.v‘ske, opl›sningINJVSKO       10 IE/ml            0000010000IUM258503258503QH01BB02IMIV              20100405Pakning udg†et      
28100152155SPLM         00230Penicillin "Rosco"            pulv.t.inj.v‘ske,oplINJPULO       1 Mill. IE          0000001000MIU044500044500 J01CE01                  20020429Pakning udg†et      
28100157755SPLM         00748Abboticin                     filmovertrukne tabl.TABFILM       250 mg              0000250000MG 255247255247 J01FA01OR       G   0148D20051010Pakning deaktiveret 
28100164855SPLM         01349Progynon-depot                injektionsv‘ske     INJVSK        10 mg/ml            0000010000MGM046400063200 G03CA03IM                20070507Pakning udg†et      
28100169955SPLM         00217Largactil                     tabletter           TAB           100 mg              0000100000MG 257228257228 N05AA01OR               D20070827Pakning udg†et      
28100173055SPLM         01359Pankreatin  "Recip"           enterogranulat      ENTGRA                            0000000000   259936254766 A09AA02OR                20090824Pakning udg†et      
28100174856SPLM         01632Atarax                        oral opl›sning      ORALOPL       2 mg/ml             0000002000MGM255816255816 N05BB01OR      J         20061009Pakning deaktiveret 
28100176456SPLM         00116Rocilin                       filmovertrukne tabl.TABFILM       300.000 IE          0300000000IU 044500044500 J01CE02OR                20041231Pakning udg†et      
28100177156SPLM         01580Carbocain                     inj.v‘ske, opl›sningINJVSKO       5 mg/ml             0000005000MGM056100056100 N01BB03PE                20080714Pakning udg†et      
28100180556SPLM         01088Konakion                      dr†ber              DRB           2%                  0000002000PC 062700062700 B02BA01OR                20020318Pakning udg†et      
28100189656SPLM         01653Rovamycin                     tabletter           TAB           750.000 IE          0750000000IU 012719012719 J01FA02OR               D20020916Pakning udg†et      
28100225056SPLM         01671Trilafon                      tabletter           TAB           2 mg                0000002000MG 011716257309 N05AB03OR               D20090907Pakning udg†et      
28100228756SPLM         01224Apresolin                     overtrukne tabletterTABOTR        25 mg               0000025000MG 011768011768 C02DB02OR                20010806Pakning udg†et      
28100233957SPLM         01717Stemetil                      suppositorier       SUP           25 mg               0000025000MG 257228257228 N05AB04PR                20070312Pakning udg†et      
28100237657SPLM         01008Urografin                     inj.v‘ske,opl.,endosINJVOEN       30%                 0000030000PC 046400063200 V08AA01IV                20060508Pakning udg†et      
28100237857SPLM         01713Chlotride                     tabletter           TAB           500 mg              0000500000MG 037800061200 C03AA04OR               D20011029Pakning udg†et      
28100246257SPLM         01671Trilafon                      injektionsv‘ske     INJVSK        5 mg/ml             0000005000MGM011716092000 N05AB03                  20050606Pakning udg†et      
28100247257SPLM         00934Kefamycin Vet.                intramamm‘r susp.   INTMAMS                           0000000000   011698010236QJ51RC                    20001231Pakning udg†et      
28100256458SPLM         01717Stemetil                      tabletter           TAB           25 mg               0000025000MG 257228257228 N05AB04OR               D20070312Pakning udg†et      
28100257458SPLM         01750Plegicil                      tabletter           TAB           10 mg               0000010000MG 254979259282 N05AA04OR               D20111226Pakning udg†et      
28100257658SPLM         01750Plegicil Vet.                 inj.v‘ske, opl›sningINJVSKO       10 mg/ml            0000010000MGM254979263463QN05AA04IMIV              20110307Pakning deaktiveret 
28100262758SPLM         01764Cogentin                      tabletter           TAB           2 mg                0000002000MG 037800061200 N04AC01OR               D20030331Pakning udg†et      
28100268558SPLM         01782Fungizone                     pulv.t.inf.v‘ske,oplINFPULO       50 mg               0000050000MG 249900254856 J02AA01IV                20120402Pakning udg†et      
28100271558SPLM         01787Decadron                      tabletter           TAB           0,5 mg              0000000500MG 037800061200 H02AB02OR               D20030317Pakning udg†et      
28100272158SPLM         00985Xylocain                      opl›sning, vandig   OPLVAND       4%                  0000004000PC 056100056100 N01BB02                  20011001Pakning udg†et      
28100273358SPLM         01792Polaramin                     tabletter           TAB           2 mg                0000002000MG 011716257309 R06AB02OR      J        D20101101Pakning udg†et      
28100280958SPLM         01671Trilafon                      tabletter           TAB           16 mg               0000016000MG 011716257309 N05AB03OR               D20090907Pakning udg†et      
28100281758SPLM         01819Kenalog                       salve               SALV          0,1%                0000000100PC 249900254856 D07AB09KU                20091228Pakning udg†et      
28100281958SPLM         01822Vancocin                      pulv.t.inf.v‘ske,oplINFPULO       500 mg              0000500000MG 058300058300 J01XA01IV                20021223Pakning udg†et      
28100287058SPLM         01880Dichlotride                   tabletter           TAB           25 mg               0000025000MG 037800061200 C03AA03OR               D20031013Pakning udg†et      
28100287758SPLM         01845Vallergan                     tabletter           TAB           10 mg               0000010000MG 012719012719 R06AD01OR      J        D20020304Pakning udg†et      
28100288058SPLM         01844Truxal                        overtrukne tabletterTABOTR        15 mg               0000015000MG 035800035801 N05AF03OR               D20010917Pakning udg†et      
28100288358SPLM         02202Gynergen Comp.                suppositorier       SUP           2 +100 +100 +0,25 mg0000000000   011768011768 N02CA72PR                20050829Pakning udg†et      
28100288758SPLM         00657Sexadien                      vagitorier          VAG           0,1 mg              0000000100MG 034800034800 G03CB01VA                20041231Pakning udg†et      
28100291059SPLM         01861Paraflex                      tabletter           TAB           250 mg              0000250000MG 254940258873 M03BB03OR      J        D20100517Pakning udg†et      
28100291659SPLM         01580Carbocain Dental              injektionsv‘ske     INJVSK        30 mg/ml            0000030000MGM056100056100 N01BB03                  20040705Pakning udg†et      
28100291959SPLM         00217Largactil                     tabletter           TAB           50 mg               0000050000MG 257228257228 N05AA01OR               D20070827Pakning udg†et      
28100295459SPLM         01792Polaramin                     depottabletter      DEPTAB        6 mg                0000006000MG 011716257309 R06AB02OR      J        D20101101Pakning udg†et      
28100303059SPLM         00206Diamox                        injektionssubstans  INJSUB        500 mg              0000500000MG 012565012565 S01EC01IV                20100503Pakning udg†et      
28100307759SPLM         01921Decadron med Neomycin         ›jen- og ›redr†ber  OODRB         1 + 3,5 mg/ml       0000000000   037800061200 S03CA01AUCO              20040830Pakning udg†et      
28100307859SPLM         01787Decadron                      injektionsv‘ske     INJVSK        4 mg/ml             0000004000MGM037800061200 H02AB02                  20020722Pakning udg†et      
28100310059SPLM         02018Genabil Vet.                  inj.v‘ske, opl›sningINJVSKO       100 mg/ml           0000100000MGM149500205600QA05AX90IV                20101227Pakning udg†et      
28100311159SPLM         02052Pacinol                       tabletter           TAB           0,25 mg             0000000250MG 011716092000 N05AB02OR               D20040524Pakning udg†et      
28100312659SPLM         01787Decadron                      ›jen- og ›redrb.,oplOODRBO        1 mg/ml             0000001000MGM037800061200 S03BA01AUCO              20040830Pakning udg†et      
28100314756SPLM         00707Terramycin Vet.               pulver, opl›seligt  PULVOPL       5,5 %               0000005500PC 061800061800QJ01AA06                  20010430Pakning udg†et      
28100316059SPLM         01955Neguvon Vet.                  pulver              PULV                              0000000000   014900056800QP52AB01BDDM              20010709Pakning udg†et      
28100318059SPLM         01671Trilafon                      dr†ber              DRB           3,2 mg/ml           0000003200MGM011716092000 N05AB03OR                20050131Pakning udg†et      
28100319159SPLM         01959Centyl                        tabletter           TAB           2,5 mg              0000002500MG 034800034800 C03AA01OR               D20051231Pakning udg†et      
28100319859SPLM         01965Somadril                      filmovertrukne tabl.TABFILM       350 mg              0000350000MG 255237257213 M03BA02OR      J        D20080602Pakning deaktiveret 
28100320459SPLM         01820Kenalog Comp.                 salve               SALV          1 + 2,5 + 0,25 mg/g 0000000000   249900254856 D07CB01TO                20041122Pakning udg†et      
28100321859SPLM         01968Perlutex                      tabletter           TAB           5 mg                0000005000MG 034800034800 G03DA02OR                20090713Pakning udg†et      
28100322359SPLM         02084Periactin                     tabletter           TAB           4 mg                0000004000MG 037800061200 R06AX02OR      J        D20040329Pakning udg†et      
28100326360SPLM         01995Dobesin                       tabletter           TAB           25 mg               0000025000MG 049400059400 A08AA03OR      J         20040329Pakning udg†et      
28100327060SPLM         02086Nitrong                       depottabletter      DEPTAB        2,6 mg              0000002600MG 024100012080 C01DA02OR                20000403Pakning udg†et      
28100327160SPLM         01989Felidovac PRC Vet.            inj.v‘ske,suspensionINJVSKS                           0000000000   031500059800QI06AA04                  20021231Pakning udg†et      
28100327960SPLM         01996Nozinan                       injektionsv‘ske     INJVSK        25 mg/ml            0000025000MGM257228257228 N05AA02IMIV              20070312Pakning udg†et      
28100328060SPLM         01990Vanquin                       oral suspension     ORALSUS       10 mg/ml            0000010000MGM259936254766 P02CX01OR                20100503Pakning deaktiveret 
28100332960SPLM         01963Nelex                         gel                 GEL           1,8 %               0000001800PC 018200012080 G01AX03                  20000904Pakning udg†et      
28100333160SPLM         01750Plegicil                      mikstur             MIK           5 mg/ml             0000005000MGM011698010236 N05AA04OR                20020304Pakning udg†et      
28100333360SPLM         00218Leostesin                     kutanspray          KUTSPR                            0000000000   034800034800 N01BB02                  20011231Pakning udg†et      
28100338560SPLM         01844Truxal                        overtrukne tabletterTABOTR        100 mg              0000100000MG 035800035801 N05AF03OR               D20010917Pakning udg†et      
28100340060SPLM         02039Brietal                       injektionssubstans  INJSUB        500 mg              0000500000MG 035200058300 N01AF01                  20000124Pakning udg†et      
28100342260SPLM         02116Zarondan                      kapsler, bl›de      KAPB          250 mg              0000250000MG 061800061800 N03AD01OR      J        D20051205Pakning udg†et      
28100342360SPLM         02048Flagyl                        filmovertrukne tabl.TABFILM       200 mg              0000200000MG 257228257228 P01AB01OR               D20120430Pakning udg†et      
28100344260SPLM         01359Pankreatin Rosco              enterotabletter     ENTTAB                            0000000000   044500044500 A09AA02OR               D20041231Pakning udg†et      
28100348960SPLM         02078Vilan                         inj.v‘ske, opl›sningINJVSKO       10 mg/ml            0000010000MGM034200257625 N02AA04IMIVSC  J         20120402Pakning deaktiveret 
28100350760SPLM         02155Glucophage                    filmovertrukne tabl.TABFILM       500 mg              0000500000MG 013763020802 A10BA02OR               D20100308Pakning udg†et      
28100358460SPLM         01398Streptocillin Vet.            intramamm‘r susp.   INTMAMS       25000 IE/ml +50mg/ml0000000000   205600205600QJ51RC23MA                20060703Pakning udg†et      
28100358960SPLM         01938Melleril                      filmovertrukne tabl.TABFILM       50 mg               0000050000MG 011768011768 N05AC02OR               D20050620Pakning udg†et      
28100362561SPLM         01241Formo-Cibazol Vet.            kutanpasta          KUTPAS                            0000000000   012666012666QD06BA90KU                20060522Pakning deaktiveret 
28100369261SPLM         02165Kabikinase                    infusionssubstans   INFSUB        250.000 IE          0250000000IU 041500041500 B01AD01                  20001225Pakning udg†et      
28100370261SPLM         02168Jectofer                      injektionsv‘ske     INJVSK        50 mg/ml            0000050000MGM056100056100 B03AC03                  20020902Pakning udg†et      
28100372861SPLM         02164Otrivin                       n‘sedr†ber, opl›sn. NASDRBO       0,5 mg/ml           0000000500MGM011768011768 R01AA07IN                20110307Pakning udg†et      
28100373861SPLM         02184Fenistil                      dr†ber              DRB           1 mg/ml             0000001000MGM011768011768 R06AB03OR      J         20030721Pakning udg†et      
28100376261SPLM         02191Aldomet                       filmovertrukne tabl.TABFILM       250 mg              0000250000MG 260307260307 C02AB01OR               D20090629Pakning udg†et      
28100376761SPLM         02194Sepan                         tabletter           TAB           5 mg                0000005000MG 031900059900 N07CA02OR      J        D20050214Pakning udg†et      
28100378761SPLM         00116Rocilin                       gran.t.orale drb,oplORAGDRO       500.000 IE/ml       0500000000IUM254766254766 J01CE02OR                20100503Pakning udg†et      
28100382461SPLM         02235Leucovorin                    inj.v‘ske, opl›sningINJVSKO       3 mg/ml             0000003000MGM011398234000 V03AF03IV                20021028Pakning udg†et      
28100385761SPLM         02217Sofra-tulle                   salvekompres        SALVKOM       1%                  0000001000PC 012719012719 D09AA01                  20040510Pakning udg†et      
28100388361SPLM         01907Serenase                      tabletter           TAB           0,5 mg              0000000500MG 059900059900 N05AD01OR               D20051205Pakning udg†et      
28100389061SPLM         02228Streptocillin m.prednisol.Vet.injektionsv‘ske     INJVSK                            0000000000   205600205600QJ01RV01IM                20051219Pakning udg†et      
28100389461SPLM         02229Intralipid                    inf.v‘ske, emulsion INFVSKE       10%                 0000010000PC 012263256331 B05BA02IV                20120305Pakning deaktiveret 
28100389961SPLM         02243Rheomacrodex 100 mg/ml m.Natr.inf.v‘ske, opl›sningINFVSKO                           0000000000   254766254766 B05AA05IV                20101018Pakning deaktiveret 
28100390361SPLM         02027Aldactone                     tabletter           TAB           25 mg               0000025000MG 011667059000 C03DA01OR                20001030Pakning udg†et      
28100394161SPLM         01831Streptipenprokain Rosco Vet.  intramammarier      INTMAM                            0000000000   044500044500QJ51RC23                  20020429Pakning udg†et      
28100396562SPLM         01333Calcipen                      tabletter           TAB           500.000 IE          0500000000IU 034800034800 J01CE02OR                20061204Pakning udg†et      
28100398862SPLM         01929Fulcin                        tabletter           TAB           125 mg              0000125000MG 056100056100 D01BA01OR               D20020401Pakning udg†et      
28100401262SPLM         02545Predniment                    klysma              KLY           0,25 mg/ml          0000000250MGM026000011483 A07EA01PR                20000515Pakning udg†et      
28100402162SPLM         01819Kenalog                       mundhulepasta       MUHUPAS       0,1%                0000000100PC 249900254856 A01AC01OM                20090629Pakning udg†et      
28100405062SPLM         02297Kenalog Comp. med Mycostatin  creme               CREME                             0000000000   249900254856 D07CB01KU                20091005Pakning udg†et      
28100406862SPLM         02288Haemaccel                     infusionsv‘ske      INFVSK                            0000000000   260865260865 B05AA06IV                20120220Pakning udg†et      
28100407262SPLM         02052Pacinol Prolongatum           depottabletter      DEPTAB        1 mg                0000001000MG 011716092000 N05AB02OR               D20040524Pakning udg†et      
28100412762SPLM         01819Kenalog                       creme               CREME         0,1%                0000000100PC 249900254856 D07AB09KU                20091228Pakning udg†et      
28100418162SPLM         02535Streptase                     pulv.t.inf.v‘ske,oplINFPULO       100.000 IE          0100000000IU 011336011554 B01AD01                  20030303Pakning udg†et      
28100418862SPLM         02704Tacryl                        tabletter           TAB           8 mg                0000008000MG 049400059400 R06AD04OR      J        D20040202Pakning udg†et      
28100419262SPLM         00116Rocilin                       filmovertrukne tabl.TABFILM       500.000 IE          0500000000IU 254766254766 J01CE02OR                20100503Pakning udg†et      
28100421962SPLM         02550Link                          tyggetabletter      TYGTAB        700 mg              0000700000MG 255237257213 A02AD01OR               D20120430Pakning deaktiveret 
28100422362SPLM         02534Myocrisin                     inj.v‘ske, opl›sningINJVSKO       20 mg/ml            0000020000MGM257228257228 M01CB01IM                20070924Pakning udg†et      
28100423862SPLM         02554Dehydrobenzperidol            inj.v‘ske, opl›sningINJVSKO       2,5 mg/ml           0000002500MGM255233255233 N01AX01IV                20090921Pakning udg†et      
28100426163SPLM         02556Colimycin                     pulv.t.inj.v‘ske,oplINJPULO       1 Mill. IE          0000001000MIU035800035801 J01XB01IMIV              20060911Pakning udg†et      
28100430363SPLM         02728Surmontil                     tabletter           TAB           25 mg               0000025000MG 257228257228 N06AA06OR               D20091130Pakning udg†et      
28100433163SPLM         02589Mixobar Oesophagus            mikstur, suspension MIKSUS        1 g/ml              0000001000GML012751056200 V08BA01OR                20011224Pakning udg†et      
28100436455SPLM         00775Peragit                       tabletter           TAB           2 mg                0000002000MG 192000192000 N04AA01OR               D20100405Pakning udg†et      
28100437763SPLM         02640Heminevrin                    infusionsv‘ske      INFVSK        8 mg/ml             0000008000MGM056100056100 N05CM02IV      J         20001211Pakning udg†et      
28100439863SPLM         02614Lasix                         tabletter           TAB           40 mg               0000040000MG 257228257228 C03CA01OR               D20091228Pakning udg†et      
28100441063SPLM         02617Indocid                       kapsler             KAP           25 mg               0000025000MG 037800061200 M01AB01OR               D20040524Pakning udg†et      
28100443463SPLM         02297Kenalog Comp. med Mycostatin  salve               SALV                              0000000000   249900254856 D07CB01KU                20091005Pakning udg†et      
28100445163SPLM         02707Kinidin-duretter              depottabletter      DEPTAB        200 mg              0000200000MG 136100136100 C01BA01OR               D20051231Pakning udg†et      
28100445463SPLM         02851Isoptin                       filmovertrukne tabl.TABFILM       40 mg               0000040000MG 010600259172 C08DA01OR               D20080908Pakning udg†et      
28100445763SPLM         02644Ferromyn                      tabletter           TAB           37 mg               0000037000MG 056100056100 B03AA06OR                20001002Pakning udg†et      
28100448764SPLM         02171Celestonvalerat               salve               SALV          0,1%                0000000100PC 011716257309 D07AC01KU                20061231Pakning udg†et      
28100451864SPLM         01895Persantin                     overtrukne tabletterTABOTR        25 mg               0000025000MG 016500205600 B01AC07OR                20010709Pakning udg†et      
28100456864SPLM         02670Concordin                     tabletter           TAB           5 mg                0000005000MG 037800061200 N06AA11OR                20001225Pakning udg†et      
28100457164SPLM         02673Ferridex Vet.                 injektionsv‘ske     INJVSK        8%                  0000008000PC 044500044500QB03AC90                  20011015Pakning udg†et      
28100459064SPLM         02688Retardin                      tabletter           TAB                               0000000000   059900059900 A07DA01                  20010122Pakning udg†et      
28100461564SPLM         02685Serepax                       tabletter           TAB           15 mg               0000015000MG 256241254817 N05BA04OR      J        D20060102Pakning udg†et      
28100461664SPLM         00050Paradryl med Efedrin          oral opl›sning      ORALOPL       4 + 2 + 10 mg/ml    0000000000   026100026100 R05DB20OR      J         20041231Pakning udg†et      
28100462364SPLM         02679Orgametril                    tabletter           TAB           5 mg                0000005000MG 039500951331 G03DC03OR                20091130Pakning deaktiveret 
28100464864SPLM         02550Link                          oral suspension     ORALSUS       150 mg/ml           0000150000MGM255237257213 A02AD01OR                20120109Pakning deaktiveret 
28100467864SPLM         02751Norflex                       tabletter           TAB           100 mg              0000100000MG 043600062500 M03BC01OR               D20021223Pakning udg†et      
28100468064SPLM         02714Keflin                        injektionssubstans  INJSUB        1 g                 0000001000G  035200058300 J01DB03                  20041231Pakning udg†et      
28100468264SPLM         02743Fluanxol Mite                 tabletter           TAB           0,25 mg             0000000250MG 035800035801 N05AF01OR               D20050912Pakning udg†et      
28100469064SPLM         02708Abalgin                       kapsler, h†rde      KAPH          65 mg               0000065000MG 258338258338 N02AC04OR      J        D20101227Pakning udg†et      
28100469364SPLM         00227ABCDin                        tabletter           TAB                               0000000000   026100026100 A11BA  OR               D20041231Pakning udg†et      
28100470365SPLM         00818Pankreon                      afd. enterogran.    AENTGRA       825 mg              0000825000MG 032500011823 A09AA02OR                20010528Pakning udg†et      
28100471265SPLM         02756Inderal                       filmovertrukne tabl.TABFILM       10 mg               0000010000MG 056100056100 C07AA05OR               D20041231Pakning udg†et      
28100472165SPLM         02162Saroten                       tabletter           TAB           50 mg               0000050000MG 035800035801 N06AA09OR               D20050912Pakning udg†et      
28100473165SPLM         02764Garamycin                     injektionsv‘ske     INJVSK        40 mg/ml            0000040000MGM263486951331 J01GB03IMIV              20091130Pakning deaktiveret 
28100473565SPLM         02758Allocodan                     tabletter           TAB           100 mg              0000100000MG 250000250000 M04AA01OR               D20091228Pakning udg†et      
28100473765SPLM         02717Kenalog med Salicylsyre       kutanopl›sning      KUTOPL                            0000000000   249900254856 D07XB02KU                20080519Pakning udg†et      
28100475665SPLM         02644Ferromyn                      saft                SAFT                              0000000000   056100056100 B03AA06OR                20001002Pakning udg†et      
28100476665SPLM         02737Mogadon                       tabletter           TAB           5 mg                0000005000MG 254766254766 N05CD02OR      J        D20100503Pakning udg†et      
28100479565SPLM         02763Kenacutan                     creme               CREME         1 + 7,5 mg/g        0000000000   249900254856 D07BB03KU                20070312Pakning udg†et      
28100480465SPLM         00037Mamyzin Vet.                  pulv.og sol.t.inj.suINJPSS        5 Mill. IE          0000005000MIU205600205600QJ01CE90IMSC              20090921Pakning udg†et      
28100480765SPLM         02736Adurix                        tabletter           TAB           20 mg               0000020000MG 020800020800 C03BA03OR               D20060102Pakning udg†et      
28100481465SPLM         02617Indocid                       suppositorier       SUP           100 mg              0000100000MG 037800061200 M01AB01PR                20050214Pakning udg†et      
28100481765SPLM         02536Ekvacillin                    pulver til inj.v‘sk.INJPUL        2 g                 0000002000G  056100056100 J01CF02                  20040202Pakning udg†et      
28100482165SPLM         02744Duspatalin                    tabletter           TAB           50 mg               0000050000MG 011760011823 A03AA04OR                20000124Pakning udg†et      
28100486865SPLM         02171Celestonvalerat               kutanemulsion       KUTEMUL       0,1%                0000000100PC 011716257309 D07AC01KU                20061231Pakning udg†et      
28100487466SPLM         02524Tetranovin Vet.               intramammarier      INTMAM        100 mg/ml           0000100000MGM205600205600QJ01AA07MA                20041231Pakning udg†et      
28100488065SPLM         02840Oralcon                       tabletter           TAB           50 mg               0000050000MG 012200132300 S01EC02OR                20001231Pakning udg†et      
28100490065SPLM         02015Rontyl med Kaliumklorid       tabletter           TAB                               0000000000   034800034800 C03AB02OR                20001231Pakning udg†et      
28100492665SPLM         02818Buronil                       injektionsv‘ske     INJVSK        25 mg/ml            0000025000MGM255313010530 N05AD03IV                20060605Pakning udg†et      
28100493866SPLM         02208Doktacillin                   pulv.t.inj.v‘ske,oplINJPULO       2 g                 0000002000G  056100056100 J01CA01                  20040202Pakning udg†et      
28100496566SPLM         02822Humegon                       injektionssubstans  INJSUB        75 IE               0000075000IU 039500061600 G03GA02                  20030707Pakning udg†et      
28100496866SPLM         02774Celestonvalerat med Chinoform creme               CREME         1 + 10 mg/g         0000000000   011716092000 D07BC01KU                20050926Pakning udg†et      
28100497366SPLM         02775Locacorten-Vioform            creme               CREME                             0000000000   255247255247 D07BB01KU                20051107Pakning udg†et      
28100498066SPLM         02835Diclocil                      pulver t. oral susp.ORAPULS       12,5 mg/ml          0000012500MGM249900254856 J01CF01OR                20061204Pakning udg†et      
28100503666SPLM         02870Prednisolonacetat Vet Intervetinj.v‘ske,suspensionINJVSKS       10 mg/ml            0000010000MGM031500262114QH02AB06IMIR              20101101Pakning udg†et      
28100503966SPLM         02788Fortral                       injektionsv‘ske     INJVSK        30 mg/ml            0000030000MGM011032011032 N02AD01        J         20040705Pakning udg†et      
28100505166SPLM         02789Confortid                     kapsler, h†rde      KAPH          25 mg               0000025000MG 255237257213 M01AB01OR               D20111226Pakning udg†et      
28100507066SPLM         02852Myambutol                     tabletter           TAB           100 mg              0000100000MG 254766254766 J04AK02OR               D20060424Pakning udg†et      
28100507866SPLM         02910Metformin "Hexal"             filmovertrukne tabl.TABFILM       500 mg              0000500000MG 027501027501 A10BA02OR               D20061120Pakning udg†et      
28100510966SPLM         01972Hygroton                      tabletter           TAB           50 mg               0000050000MG 011768011768 C03BA04OR               D20011126Pakning udg†et      
28100511866SPLM         02708Abalgin Retard                depotkapsler, h†rde DEPKAPH       150 mg              0000150000MG 258338258338 N02AC04OR      J        D20101227Pakning udg†et      
28100512967SPLM         02830Pregnyl                       pulv.og sol.t.inj.opINJPSO        1500 IE             0001500000IU 039500951331 G03GA01IMSC              20010108Pakning deaktiveret 
28100515067SPLM         02535Streptase                     pulv.t.inf.v‘ske,oplINFPULO       750.000 IE          0750000000IU 011336011554 B01AD01                  20030303Pakning udg†et      
28100515567SPLM         00037Mamyzin Vet.                  intramamm‘r susp.   INTMAMS       1 Mill. IE/5 ml     0000001000MIU205600205600QJ51CE90MA                20030303Pakning udg†et      
28100515667SPLM         02197Leocillin m.Dihydrostrepto.Vetintramamm‘r salve   INTMASA                           0000000000   205600205600QJ51RC25                  20030303Pakning udg†et      
28100516467SPLM         02813Yomesan                       tyggetabletter      TYGTAB        500 mg              0000500000MG 253102056800 P02DA01OR               D20090601Pakning udg†et      
28100517967SPLM         02845Aptin                         injektionsv‘ske     INJVSK        1 mg/ml             0000001000MGM056100056100 C07AA01                  20001002Pakning udg†et      
28100519267SPLM         01333Calcipen                      tabletter           TAB           1 Mill. IE          0000001000MIU034800034800 J01CE02OR                20061204Pakning udg†et      
28100519867SPLM         02887Anafranil                     inj.-/inf.vsk.,opl. INVSKO        12,5 mg/ml          0000012500MGM011768011768 N06AA04IMIV              20110110Pakning deaktiveret 
28100523767SPLM         02512Tylan Vet.                    premix t.foderl‘gem.PREFOD        2%                  0000002000PC 234300234300QJ01FA90FO       G   1066 20100322Pakning deaktiveret 
28100524468SPLM         02850Glaupax                       tabletter           TAB           250 mg              0000250000MG 023800023800 S01EC01OR                20001231Pakning udg†et      
28100525367SPLM         02640Heminevrin                    kapsler             KAP           300 mg              0000300000MG 056100056100 N05CM02OR      J        D20051219Pakning udg†et      
28100529467SPLM         02512Tylan Vet.                    injektionsv‘ske     INJVSK        50 mg/ml            0000050000MGM234300234300QJ01FA90                  20001225Pakning udg†et      
28100532667SPLM         01692Leukeran                      tabletter           TAB           2 mg                0000002000MG 059300059300 L01AA02OR                20021223Pakning udg†et      
28100532767SPLM         01692Leukeran                      tabletter           TAB           5 mg                0000005000MG 059300059300 L01AA02OR                20030623Pakning udg†et      
28100532867SPLM         02648Alkeran                       tabletter           TAB           2 mg                0000002000MG 059300059300 L01AA03OR                20021111Pakning udg†et      
28100532967SPLM         02648Alkeran                       tabletter           TAB           5 mg                0000005000MG 059300059300 L01AA03OR                20021111Pakning udg†et      
28100533467SPLM         03014Baycaron                      tabletter           TAB           25 mg               0000025000MG 014900056800 C03BA05OR               D20011231Pakning udg†et      
28100533867SPLM         02839Dumolid                       tabletter           TAB           5 mg                0000005000MG 022500022500 N05CD02OR      J        D20021231Pakning udg†et      
28100534468SPLM         02212Fucidin                       impr‘gneret gaze    IMPGAZE                           0000000000   034800034800 D09AA02LO                20030428Pakning deaktiveret 
28100535968SPLM         02866Clomivid                      tabletter           TAB           50 mg               0000050000MG 056100056100 G03GB02OR                20001127Pakning udg†et      
28100536168SPLM         02084Periactin                     mikstur             MIK           0,4 mg/ml           0000000400MGM037800061200 R06AX02OR      J         20000807Pakning udg†et      
28100538968SPLM         01008Urografin-meglumin            inj.v‘ske, opl›sningINJVSKO       65%                 0000065000PC 046400063200 V08AA01IR                20070507Pakning udg†et      
28100539568SPLM         02208Doktacillin                   pulv.t.inj.v‘ske,oplINJPULO       500 mg              0000500000HT 056100056100 J01CA01                  20040202Pakning udg†et      
28100542768SPLM         02880Fluormetylprednisolon Vet.    injektionsv‘ske     INJVSK        2 mg/ml             0000002000MGM092000156700QH02AB02                  20011001Pakning udg†et      
28100542868SPLM         02862Primperan                     tabletter           TAB           10 mg               0000010000MG 257228257228 A03FA01OR               D20120319Pakning udg†et      
28100545468SPLM         02617Indocid                       kapsler             KAP           50 mg               0000050000MG 037800061200 M01AB01OR               D20040524Pakning udg†et      
28100545868SPLM         02768Aeropax                       oral emulsion       ORALEMU       1%                  0000001000PC 039800254657 A03AX13OR                20120323Pakning udg†et      
28100546068SPLM         00085Penicillin "Leo"              pulv.t.inj.v‘ske,oplINJPULO       5 Mill. IE          0000005000MIU034800034800 J01CE01IMIV              20061231Pakning udg†et      
28100546168SPLM         01222Antistina-privin              ›jendrb., opl›sning OJDRBO        0,25 mg/ml + 5 mg/ml0000000000   011768014058 S01GA51OK       G   0752 20110613Pakning deaktiveret 
28100546568SPLM         02818Buronil                       mikstur             MIK           5 mg/ml             0000005000MGM035800035801 N05AD03OR                20001231Pakning udg†et      
28100546668SPLM         01996Nozinan                       mikstur             MIK           10 mg/ml            0000010000MGM257228257228 N05AA02OR                20091130Pakning udg†et      
28100547068SPLM         02862Primperan                     oral opl›sning      ORALOPL       1 mg/ml             0000001000MGM257228257228 A03FA01OR                20120319Pakning udg†et      
28100547668SPLM         02171Celestonvalerat               kutanopl›sning      KUTOPL        0,1%                0000000100PC 011716092000 D07AC01TO                20031231Pakning udg†et      
28100548668SPLM         02845Aptin                         tabletter           TAB           100 mg              0000100000MG 056100056100 C07AA01OR                20001002Pakning udg†et      
28100550368SPLM         02788Fortral                       tabletter           TAB           50 mg               0000050000MG 011032011032 N02AD01OR      J        D20040927Pakning udg†et      
28100550668SPLM         02860Oxytetral                     filmovertrukne tabl.TABFILM       250 mg              0000250000MG 255237257213 J01AA06OR               D20111017Pakning udg†et      
28100550868SPLM         02945Impugan                       inj.v‘ske, opl›sningINJVSKO       10 mg/ml            0000010000MGM022500022500 C03CA01                  20050509Pakning udg†et      
28100550968SPLM         02945Impugan                       tabletter           TAB           40 mg               0000040000MG 022500022500 C03CA01OR               D20050509Pakning udg†et      
28100551568SPLM         02926Siqualone                     overtrukne tabletterTABOTR        5 mg                0000005000MG 249900254856 N05AB02OR               D20070312Pakning udg†et      
28100551868SPLM         02823Cyklokapron                   injektionsv‘ske     INJVSK        100 mg/ml           0000100000MGM061800013059 B02AA02IV                20061231Pakning udg†et      
28100552669SPLM         02902Lomudal                       inh.pulver i kapslerINHPULK       20 mg               0000020000MG 012719012719 R03BC01IH                20041025Pakning udg†et      
28100553469SPLM         01844Truxal                        overtrukne tabletterTABOTR        25 mg               0000025000MG 035800035801 N05AF03OR               D20010917Pakning udg†et      
28100553669SPLM         03139Nirulid                       tabletter           TAB           5 mg                0000005000MG 037800061200 C03DB01OR               D20050606Pakning udg†et      
28100554869SPLM         02922Questran                      afdelte pulvere     APULV         4 g                 0000004000G  249900254856 C10AC01OR                20090309Pakning udg†et      
28100555169SPLM         03055Soldactone                    injektionssubstans  INJSUB        200 mg              0000200000MG 011667059000 C03DA02                  20001225Pakning udg†et      
28100555269SPLM         02878Adrenalintr†d                 impr‘gneret tr†d    IMPTR                             0000000000   056100056100 A01AD01                  20001002Pakning udg†et      
28100557269SPLM         02918Pavulon                       inj.v‘ske, opl.,i.v.INJVOIV       2 mg/ml             0000002000MGM039500061600 M03AC01IV                20080908Pakning udg†et      
28100557669SPLM         02818Buronil                       tabletter           TAB           5 mg                0000005000MG 035800035801 N05AD03OR                20001231Pakning udg†et      
28100558069SPLM         03006Brufen                        filmovertrukne tabl.TABFILM       200 mg              0000200000MG 010600055600 M01AE01OR               D20070827Pakning udg†et      
28100558669SPLM         02934Keflex                        kapsler             KAP           250 mg              0000250000MG 035200058300 J01DB01OR                20001002Pakning udg†et      
28100559569SPLM         02855Mestoranum                    tabletter           TAB           25 mg               0000025000MG 046400063200 G03BB01OR                20041011Pakning udg†et      
28100559769SPLM         00153Albyl, Svage                  tabletter           TAB           150 mg              0000150000MG 034800034800 N02BA01OR                20010416Pakning udg†et      
28100561269SPLM         02896Sinquan                       kapsler, h†rde      KAPH          10 mg               0000010000MG 061800061800 N06AA12OR               D20100614Pakning deaktiveret 
28100561469SPLM         02899Corticoderm                   creme               CREME         0,1 %               0000000100PC 011325038500 D07AB07                  20001113Pakning udg†et      
28100562369SPLM         02536Ekvacillin                    tabletter           TAB           500 mg              0000500000ST 056100056100 J01CF02OR                20040202Pakning udg†et      
28100562869SPLM         02756Inderal                       filmovertrukne tabl.TABFILM       80 mg               0000080000MG 056100056100 C07AA05OR               D20041231Pakning udg†et      
28100565369SPLM         02927Ponderal                      tabletter           TAB           20 mg               0000020000MG 047400056000 A08AA02OR      J         20000501Pakning udg†et      
28100567569SPLM         02944Locacorten M. Salicylsyre     salve               SALV                              0000000000   255247255247 D07XB01KU                20051107Pakning udg†et      
28100567669SPLM         03292Clotam                        kapsler             KAP           100 mg              0000100000MG 027501027501 M01AG02OR               D20061231Pakning udg†et      
28100569970SPLM         02911Ketalar                       injektionsv‘ske     INJVSK        10 mg/ml            0000010000MGM061800061800 N01AX03IMIV              20041231Pakning udg†et      
28100570270SPLM         01929Fulcin                        tabletter           TAB           500 mg              0000500000MG 056100056100 D01BA01OR               D20020401Pakning udg†et      
28100570970SPLM         02949Siqualone dekanoat            injektionsv‘ske     INJVSK        25 mg/ml            0000025000MGM249900254856 N05AB02IM                20101227Pakning udg†et      
28100571070SPLM         02900Bricanyl                      tabletter           TAB           5 mg                0000005000MG 056100056100 R03CC03OR               D20020708Pakning udg†et      
28100573270SPLM         02923Betnovat Rektal               salve               SALV          0,5 +25 +1 mg/g     0000000000   254766254766 C05AA05PR                20050718Pakning udg†et      
28100573470SPLM         02787Ripercol Vet.                 injektionsv‘ske     INJVSK        75 mg/ml            0000075000MGM031900205600QP52AE02                  20041231Pakning udg†et      
28100574370SPLM         02982Quitaxon                      tabletter           TAB           10 mg               0000010000MG 062700062700 N06AA12OR                20001231Pakning udg†et      
28100575070SPLM         02788Fortral                       suppositorier       SUP           50 mg               0000050000MG 011032011032 N02AD01PR      J         20041231Pakning udg†et      
28100577970SPLM         02208Doktacillin                   pulv.t.inj.v‘ske,oplINJPULO       1 g                 0000001000HT 056100056100 J01CA01                  20040202Pakning udg†et      
28100578370SPLM         03101Benestermycin Vet.            intramamm‘r susp.   INTMAMS                           0000000000   205600205600QJ51RC25MA                20020902Pakning deaktiveret 
28100579270SPLM         02970Sulfotrim                     tabletter           TAB           400+80 mg           0000000000   027500027500 J01EE01OR               D20061231Pakning udg†et      
28100579770SPLM         02845Aptin                         depottabletter(dur.)DEPTABD       200 mg              0000200000MG 056100056100 C07AA01OR                20001002Pakning udg†et      
28100581670SPLM         02955Cytosar                       inj. og inf.substansINSUB         100 mg              0000100000MG 041500041500 L01BC01                  20050103Pakning udg†et      
28100582670SPLM         02940Visken                        tabletter           TAB           5 mg                0000005000MG 011768011768 C07AA03OR               D20011126Pakning udg†et      
28100583270SPLM         02962Apozepam                      injektionsv‘ske     INJVSK        5 mg/ml             0000005000MGM010200022500 N05BA01        J         20001231Pakning udg†et      
28100584270SPLM         01782Fungizone                     sugetabletter       SUGTAB        10 mg               0000010000MG 249900254856 A01AB04OR                20071203Pakning udg†et      
28100586771SPLM         02930Trasicor                      tabletter           TAB           40 mg               0000040000MG 011768011768 C07AA02OR               D20020930Pakning udg†et      
28100587171SPLM         02993Profasi                       pulv.og sol.t.inj.opINJPSO        5.000 IE            0005000000IU 122600010588 G03GA01                  20030623Pakning udg†et      
28100588171SPLM         03132Albumin "Octapharma"          infusionsv‘ske      INFVSK        200 mg/ml           0000200000MGM013107013801 B05AA01IV                20050606Pakning udg†et      
28100589371SPLM         01819Kenalog                       kutanopl›sning      KUTOPL        0,1%                0000000100PC 249900254856 D07AB09KU                20081231Pakning udg†et      
28100589871SPLM         02850Glaupax                       tabletter           TAB           125 mg              0000125000MG 023800023800 S01EC01OR                20001231Pakning udg†et      
28100590471SPLM         02935Ventoline                     tabletter           TAB           2 mg                0000002000MG 059300059300 R03CC02OR               D20030623Pakning udg†et      
28100592371SPLM         02934Keflex                        granulat til miksturGRAMIK        50 mg/ml            0000050000MGM035200058300 J01DB01OR                20011224Pakning udg†et      
28100595271SPLM         03140Solvezink                     brusetabletter      BRUTAB        45 mg               0000045000MG 056100056100 A12CB01OR                20011001Pakning udg†et      
28100597871SPLM         02887Anafranil                     overtrukne tabletterTABOTR        10 mg               0000010000MG 011768011768 N06AA04OR       G   0270D20020722Pakning deaktiveret 
28100599371SPLM         01380Neofyllin Retard              tabletter           TAB           300 mg              0000300000MG 049400059400 R03DA03OR               D20020610Pakning udg†et      
28100599771SPLM         02194Sepan                         tabletter           TAB           25 mg               0000025000MG 258318258318 N07CA02OR      J        D20110808Pakning udg†et      
28100600071SPLM         02980Pilokarpin Isopto             ›jendr†ber          OJDRB         1%                  0000001000PC 012200132300 S01EB01CO                20040412Pakning udg†et      
28100600171SPLM         02980Pilokarpin Isopto             ›jendr†ber          OJDRB         2%                  0000002000PC 012200132300 S01EB01CO                20040412Pakning udg†et      
28100600271SPLM         02980Pilokarpin Isopto             ›jendr†ber          OJDRB         4%                  0000004000PC 012200132300 S01EB01CO                20040412Pakning udg†et      
28100601671SPLM         02982Quitaxon                      tabletter           TAB           25 mg               0000025000MG 062700062700 N06AA12OR                20001231Pakning udg†et      
28100601771SPLM         02982Quitaxon                      tabletter           TAB           50 mg               0000050000MG 062700062700 N06AA12OR                20001231Pakning udg†et      
28100603871SPLM         03034Efrane                        v‘ske til inhal.dampINHDVSK                           0000000000   010600055600 N01AB04IH                20031013Pakning udg†et      
28100604772SPLM         02900Bricanyl                      inhal.spray, susp.  INHSPRS       0,25 mg/dosis       0000000250MGD056100056100 R03AC03IH                20051010Pakning udg†et      
28100604872SPLM         02999Xento Vet. Vaccine            inj.v‘ske,suspensionINJVSKS                           0000000000   031500951387QI09AB12SC                20111226Pakning udg†et      
28100605372SPLM         01375Mycostatin                    creme               CREME         100.000 IE/g        0100000000IUG249900254856 D01AA01KU                20090309Pakning udg†et      
28100606972SPLM         03093Decaris Vet.                  injektionsv‘ske     INJVSK        75 mg/ml            0000075000MGM031900205600QP52AE01                  20041231Pakning udg†et      
28100607872SPLM         03009Cerubidin                     pulver til inj.v‘sk.INJPUL        20 mg               0000020000MG 012719012719 L01DB02                  20041108Pakning udg†et      
28100608072SPLM         03650Durbis                        kapsler, h†rde      KAPH          100 mg              0000100000MG 012719012719 C01BA03OR               D20030526Pakning udg†et      
28100608572SPLM         03105Canesten                      liniment            LIN           1%                  0000001000PC 056800056800 D01AC01KU                20040830Pakning udg†et      
28100609372SPLM         03068Ibaril                        creme               CREME         0,25%               0000000250PC 257228257228 D07AC03KU                20010319Pakning deaktiveret 
28100609872SPLM         02191Aldomet                       filmovertrukne tabl.TABFILM       500 mg              0000500000MG 260307260307 C02AB01OR               D20090629Pakning udg†et      
28100610072SPLM         01646Ultracortenol                 ›jendr†ber, susp.   OJDRBS        0,5%                0000000500PC 011768011768 S01BA04OK                20081231Pakning udg†et      
28100610572SPLM         03008Halothane "Halocarbon"        inhalationsv‘ske    INHVSK                            0000000000   245400057500 N01AB01                  20001231Pakning udg†et      
28100613072SPLM         03026Kinilentin                    depottabletter      DEPTAB        200 mg              0000200000MG 034800034800 C01BA01OR                20010416Pakning udg†et      
28100613472SPLM         20851Vermox Vet.                   granulat            GRA           10%                 0000010000PC 031900205600QP52AC09OR                20031231Pakning udg†et      
28100613672SPLM         01349Progynon                      tabletter           TAB           1 mg                0000001000MG 046400063200 G03CA03OR                20070101Pakning udg†et      
28100613872SPLM         03077Semap                         tabletter           TAB           20 mg               0000020000MG 262365262365 N05AG03OR       G   0660D20101018Pakning udg†et      
28100615572SPLM         02968Atgard Vet.                   granulat            GRA           195 mg/g til hest   0000195000MGG249700205600QP52AB03OR                20001113Pakning udg†et      
28100618972SPLM         02614Lasix                         tabletter           TAB           20 mg               0000020000MG 257228257228 C03CA01OR               D20070409Pakning udg†et      
28100620672SPLM         03198Cyclo-progynon                tabletter           TAB                               0000000000   046400063200 G03FB01OR                20060828Pakning udg†et      
28100622672SPLM         03041AviPro MD LYO                 pulv.t.inj.v‘ske,oplINJPULO                           0000000000   012374062800QI01AD03IMSC              20101227Pakning udg†et      
28100625673SPLM         03072Sinemet 25/250                tabletter           TAB           250 mg + 25 mg      0000000000   256371061200 N04BA02OR               D20110822Pakning udg†et      
28100627873SPLM         00748Abboticin                     gran. til oral susp.ORAGRAS       40 mg/ml            0000040000MGM255247255247 J01FA01OR       G   0146 20120206Pakning deaktiveret 
28100628473SPLM         03134Timacar                       tabletter           TAB           10 mg               0000010000MG 037800061200 C07AA06OR               D20051107Pakning udg†et      
28100628773SPLM         03074Porcovac Plus Vet.            inj.v‘ske,suspensionINJVSKS                           0000000000   031500011596QI09AB02SC                20100712Pakning udg†et      
28100628973SPLM         03122Sotacor                       tabletter           TAB           80 mg               0000080000MG 249900254856 C07AA07OR               D20071203Pakning udg†et      
28100630473SPLM         02851Isoptin                       tabletter           TAB           80 mg               0000080000MG 010600259172 C08DA01OR               D20080908Pakning udg†et      
28100632773SPLM         03199Ceolat                        tyggetabletter      TYGTAB        80 mg               0000080000MG 032500011823 A03AX13OR                20001127Pakning udg†et      
28100632873SPLM         03120Zincfrin                      ›jendrb., opl›sning OJDRBO        1,2 + 2,5 mg/ml     0000000000   012200132300 S01GA55OK                20091019Pakning udg†et      
28100634373SPLM         03052Borgal Mite Vet.              inj.v‘ske, opl›sningINJVSKO       62,5 + 12,5 mg/ml   0000000000   153100258503QJ01EW13IMIVSC            20090518Pakning deaktiveret 
28100634773SPLM         03097Utopar                        injektionsv‘ske     INJVSK        10 mg/ml            0000010000MGM011760011823 G02CA01                  20000904Pakning udg†et      
28100634873SPLM         03097Utopar                        tabletter           TAB           10 mg               0000010000MG 011760011823 G02CA01OR                20000904Pakning udg†et      
28100635473SPLM         03162Naprosyn                      tabletter           TAB           250 mg              0000250000MG 062700062700 M01AE02OR               D20050620Pakning udg†et      
28100635573SPLM         02536Ekvacillin                    pulver til inj.v‘sk.INJPUL        1 g                 0000001000G  056100056100 J01CF02                  20040202Pakning udg†et      
28100635773SPLM         02835Diclocil                      pul.t.inj.+inf.,opl.INPULVO       500 mg              0000500000MG 249900254856 J01CF01IV                20110321Pakning udg†et      
28100635873SPLM         02835Diclocil                      kapsler, h†rde      KAPH          500 mg              0000500000MG 249900254856 J01CF01OR                20070716Pakning udg†et      
28100636173SPLM         03206Orudis                        kapsler, h†rde      KAPH          50 mg               0000050000MG 257228257228 M01AE03OR               D20120416Pakning udg†et      
28100636273SPLM         03102Bristamycin                   tabletter           TAB           250 mg              0000250000MG 017500116100 J01FA01                 D20020304Pakning udg†et      
28100636373SPLM         02945Impugan                       tabletter           TAB           500 mg              0000500000MG 022500022500 C03CA01OR               D20050509Pakning udg†et      
28100636973SPLM         02789Confortid                     kapsler, h†rde      KAPH          50 mg               0000050000MG 255237257213 M01AB01OR               D20081231Pakning udg†et      
28100637673SPLM         02900Bricanyl                      inhalationsv‘ske    INHVSK        10 mg/ml            0000010000MGM056100056100 R03AC03IH                20060703Pakning udg†et      
28100638673SPLM         02930Trasicor                      tabletter           TAB           80 mg               0000080000MG 011768011768 C07AA02OR               D20020930Pakning udg†et      
28100639273SPLM         02856Rimactan                      syrup               SYRUP         20 mg/ml            0000020000MGM016000253032 J04AB02OR                20050926Pakning udg†et      
28100640674SPLM         03100Oxytocin Vet. "Leo"           injektionsv‘ske     INJVSK        10 IE/ml            0000010000IUM034800034800QH01BB02                  20020527Pakning udg†et      
28100640874SPLM         00707Terramycin Vet.               inj.v‘ske, opl›sningINJVSKO       100 mg/ml           0000100000MGM259559254780QJ01AA06IMIVSC            20060828Pakning deaktiveret 
28100640974SPLM         03299Peripress                     tabletter           TAB           1 mg                0000001000MG 061800061800 C02CA01OR               D20030512Pakning udg†et      
28100641074SPLM         03299Peripress                     tabletter           TAB           2 mg                0000002000MG 061800061800 C02CA01OR               D20030512Pakning udg†et      
28100641174SPLM         03299Peripress                     tabletter           TAB           5 mg                0000005000MG 061800061800 C02CA01OR               D20030512Pakning udg†et      
28100642574SPLM         03122Sotacor                       injektionsv‘ske     INJVSK        10 mg/ml            0000010000MGM249900254856 C07AA07IV                20070827Pakning udg†et      
28100642669SPLM         03118Vamin Glukos                  infusionsv‘ske      INFVSK                            0000000000   012263256331 B05BA10IV                20111212Pakning udg†et      
28100643174SPLM         03136Immobilon Vet./Revivon Vet.   injektionss‘t       INJSET        0,125+0,4 +0,45mg/ml0000000000   254979259282QN02AE99IMIVSC            20111017Pakning udg†et      
28100644074SPLM         03143Gammaglobulin "Biovitrum"     injektionsv‘ske     INJVSK        16,5%               0000016500PC 013107013107 J06BA01IM                20040315Pakning udg†et      
28100644174SPLM         02240Esucos                        injektionsv‘ske     INJVSK        10 mg/ml            0000010000MGM051300010511 N05AB01                  20020610Pakning udg†et      
28100644374SPLM         03152Ferriphor 10% Vet.            injektionsv‘ske     INJVSK        100 mg/ml           0000100000MGM049800011173QB03AC90                  20001002Pakning udg†et      
28100644574SPLM         03089Tribrissen Vet.               intraruminalt indl‘gIRUIND        1 + 0,2 g           0000000000   031500059800QJ01EW10OR                20091116Pakning udg†et      
28100645174SPLM         03153Berotec 200                   inhalationsaerosol  INHAER        0,2 mg/dosis        0000000200MGD016500205600 R03AC04IH                20001231Pakning udg†et      
28100646074SPLM         03135Rivotril                      konc.t.inj.v‘sk,opl.KONCINJ       1 mg/ml             0000001000MGM062700062700 N03AE01        J         20001231Pakning udg†et      
28100646474SPLM         03289Danocrine                     kapsler             KAP           100 mg              0000100000MG 011032011032 G03XA01OR                20030915Pakning udg†et      
28100647074SPLM         03073Imacillin                     granulat til miksturGRAMIK        25 mg/ml            0000025000MGM056100056100 J01CA04OR                20011029Pakning udg†et      
28100648074SPLM         03155Preconativ                    injektionssubstans  INJSUB                            0000000000   041500041500 B02BD04                  20020304Pakning udg†et      
28100648574SPLM         03598Moduretic                     tabletter           TAB           50 + 5 mg           0000000000   037800061200 C03EA01OR               D20050328Pakning udg†et      
28100648674SPLM         02909Pondocillin                   filmovertrukne tabl.TABFILM       350 mg              0000350000MG 034800034800 J01CA02OR                20061231Pakning udg†et      
28100650374SPLM         03709Dienoestrol "Cilag"           vagitorier          VAG           0,5 mg              0000000500MG 059900059900 G03CB01VA                20000417Pakning udg†et      
28100650874SPLM         03167Loxapac                       tabletter           TAB           25 mg               0000025000MG 011398234000 N05AH01OR               D20020708Pakning udg†et      
28100650974SPLM         03167Loxapac                       tabletter           TAB           50 mg               0000050000MG 011398234000 N05AH01OR               D20020513Pakning udg†et      
28100651174SPLM         03298Albumin "Behring"             inf.v‘ske, opl›sningINFVSKO       20%                 0000020000PC 255285255286 B05AA01IV                20060508Pakning udg†et      
28100651274SPLM         03166Betim                         tabletter           TAB           10 mg               0000010000MG 034800034800 C07AA06OR                20010416Pakning udg†et      
28100652274SPLM         03163Seloken                       tabletter           TAB           50 mg               0000050000MG 056100056100 C07AB02OR               D20081229Pakning udg†et      
28100652374SPLM         03163Seloken                       tabletter           TAB           100 mg              0000100000MG 056100056100 C07AB02OR               D20081229Pakning udg†et      
28100652474SPLM         03157Burinex Med Kaliumklorid      overtrukne tabletterTABOTR        0,5 mg + 573 mg     0000000000   034800034800 C03CB02OR               D20091231Pakning udg†et      
28100652974SPLM         02683Lincocin Vet.                 tabletter           TAB           200 mg              0000200000MG 152100254780QJ01FF02OR                20051231Pakning udg†et      
28100653574SPLM         03079Aldecin Nasal                 n‘seaerosol         NASAER        50 mikg/dosis       0000050000RGD011716092000 R01AD01IN                20001231Pakning udg†et      
28100654174SPLM         03183Linco-spectin Vet.            pulv.t.opl.i drikkevPULOPDR       12,5%               0000012500PC 011698010236QJ01FF52                  20021028Pakning udg†et      
28100655174SPLM         03187Thyrefact/Relefact TRH        injektionsv‘ske     INJVSK        0,2 mg/ml           0000000200MGM012719012719 V04CJ02IV                20060213Pakning udg†et      
28100655274SPLM         03080Kaliumklorid Duretter         depottabletter      DEPTAB        1 g                 0000001000G  136100136100 A12BA01OR               D20050411Pakning udg†et      
28100655674SPLM         02758Allocodan                     tabletter           TAB           300 mg              0000300000MG 250000250000 M04AA01OR               D20091228Pakning udg†et      
28100656074SPLM         03121Apodorm                       tabletter           TAB           2,5 mg              0000002500MG 255237257213 N05CD02OR      J        D20070115Pakning udg†et      
28100656674SPLM         03585Diural                        inj.v‘ske, opl›sningINJVSKO       10 mg/ml            0000010000MGM255237257213 C03CA01IMIV              20081006Pakning deaktiveret 
28100656974SPLM         03180Domnamid                      tabletter           TAB           2 mg                0000002000MG 035800035801 N05CD04OR      J        D20030526Pakning udg†et      
28100657574SPLM         03562Albumin "Novo Nordisk"        infusionsv‘ske      INFVSK        20%                 0000020000PC 011445011445 B05AA01                  20010416Pakning udg†et      
28100658274SPLM         03093Decaris                       tabletter           TAB           50 mg               0000050000MG 059900059900 P02CE01OR                20001231Pakning udg†et      
28100658875SPLM         03191Premarin                      tabletter           TAB           0,625 mg            0000000625MG 237900254817 G03CA57OR                20060227Pakning udg†et      
28100658975SPLM         03191Premarin                      tabletter           TAB           1,25 mg             0000001250MG 237900234000 G03CA57OR                20040301Pakning udg†et      
28100659175SPLM         02902Lomudal                       n‘sespray           NASSPR        2,6 mg/dosis        0000002600MGD026500012719 R01AC01IN                20010820Pakning udg†et      
28100659275SPLM         02900Bricanyl                      tabletter           TAB           2,5 mg              0000002500MG 056100056100 R03CC03OR               D20020708Pakning udg†et      
28100659775SPLM         03189Penglobe                      tabletter           TAB           200 mg              0000200000MG 035800035801 J01CA06OR                20000724Pakning udg†et      
28100659875SPLM         03189Penglobe                      tabletter           TAB           400 mg              0000400000MG 035800035801 J01CA06OR                20000724Pakning udg†et      
28100659975SPLM         03189Penglobe                      tabletter           TAB           800 mg              0000800000MG 035800035801 J01CA06OR                20000724Pakning udg†et      
28100660075SPLM         03188Pevaryl                       creme               CREME         10 mg/g             0000010000MGG258318258318 D01AC03KU                20110711Pakning udg†et      
28100660275SPLM         03188Pevaryl                       vaginalcreme        VAGCREM       10 mg/g             0000010000MGG258318258318 G01AF05VA                20110711Pakning udg†et      
28100660375SPLM         03188Pevaryl                       vagitorier          VAG           50 mg               0000050000MG 059900059900 G01AF05VA                20001231Pakning udg†et      
28100660675SPLM         03089Tribrissen Vet.               pulver              PULV                              0000000000   092000092000QJ01EW10                  20040216Pakning udg†et      
28100661075SPLM         00149Artrizin Vet.                 oralt pulv.,endosis.ORALPUE       1 g                 0000001000G  034800034800QM01AA01OR                20020527Pakning udg†et      
28100661775SPLM         03293Atrovent                      inhalationsaerosol  INHAER        20 mikg/dosis       0000020000RGD016500205600 R03BB01IH                20021223Pakning udg†et      
28100661975SPLM         03195Pentrexyl med Probenecid      pulver til mikstur  PULVMIK                           0000000000   116100116100 J01CA01                  20020304Pakning udg†et      
28100662075SPLM         03554Diproform                     creme               CREME                             0000000000   011716092000 D07BC01                  20011126Pakning udg†et      
28100663775SPLM         03267Distemink Vet.                inhal.spray, emuls. INHSPRE                           0000000000   031600099300QI20CD01MN                20070924Pakning udg†et      
28100664775SPLM         02800Bisolvon                      oral opl›sning      ORALOPL       0,8 mg/ml           0000000800MGM013525205600 R05CB02OR       G   0296 20070326Pakning deaktiveret 
28100665175SPLM         03837Nerisona                      salve               SALV          0,1%                0000000100PC 255707056800 D07AC06KU                20101129Pakning udg†et      
28100665375SPLM         02764Garamycin                     inj.v‘ske, opl›sningINJVSKO       10 mg/ml            0000010000MGM011716257309 J01GB03IMIV              20110124Pakning udg†et      
28100666275SPLM         02027Aldactone                     tabletter           TAB           100 mg              0000100000MG 011667059000 C03DA01OR                20001030Pakning udg†et      
28100666375SPLM         03073Imacillin                     afdelte granulater  AGRAN         125 mg              0000125000MG 056100056100 J01CA04OR                20011029Pakning udg†et      
28100667075SPLM         03268Panacur Vet.                  granulat            GRA           22%                 0000022000PC 031500951387QP52AC13OR                20090112Pakning deaktiveret 
28100668775SPLM         03186AviPro IB H52                 pulv. t.drikv. vac. PULDVAC                           0000000000   012374062800QI01AD07DM                20060227Pakning udg†et      
28100669875SPLM         03602Estrofem Forte                filmovertrukne tabl.TABFILM       4 mg                0000004000MG 039000148100 G03CA03OR                20060717Pakning udg†et      
28100670075SPLM         03601Trisekvens Forte              filmovertrukne tabl.TABFILM                           0000000000   039000148100 G03FB05OR                20060717Pakning udg†et      
28100670675SPLM         03609Clinoril                      tabletter           TAB           100 mg              0000100000MG 037800061200 M01AB02OR               D20041011Pakning udg†et      
28100670775SPLM         03651Monotrim                      tabletter           TAB           100 mg              0000100000MG 027501027501 J01EA01OR               D20081117Pakning udg†et      
28100670975SPLM         02902Lomudal                       inhalationsv‘ske    INHVSK        10 mg/ml            0000010000MGM012719012719 R03BC01IH                20060113Pakning udg†et      
28100671875SPLM         02800Bisolvon                      tabletter           TAB           8 mg                0000008000MG 013525205600 R05CB02OR       G   0297D20070326Pakning deaktiveret 
28100672975SPLM         03578Dygratyl                      tabletter           TAB           0,2 mg              0000000200MG 011760011823 A11CC02OR               D20061231Pakning udg†et      
28100673175SPLM         03259Parlodel                      tabletter           TAB           2,5 mg              0000002500MG 254766254766 N04BC01OR       G   0228D20090126Pakning deaktiveret 
28100673275SPLM         03797Tolvon                        filmovertrukne tabl.TABFILM       10 mg               0000010000MG 039500951331 N06AX03OR               D20120611Pakning udg†et      
28100673575SPLM         01384Disipal                       tabletter           TAB           100 mg              0000100000MG 027900185600 N04AB02OR               D20030804Pakning udg†et      
28100673675SPLM         03250Narcanti                      injektionsv‘ske     INJVSK        0,02 mg/ml          0000000020MGM249900254856 V03AB15IV                20061204Pakning udg†et      
28100675175SPLM         03630Glucos 50 mg/ml+na.chl.9 mg/mlinfusionsv‘ske      INFVSK        9 mg/ml + 50 mg/ml  0000000000   012263012264 B05BB02IV                20061023Pakning udg†et      
28100676775SPLM         02764Garamycin                     ›jendr†ber          OJDRB         0,3 %               0000000300PC 011716257309 S01AA11OK                20090713Pakning udg†et      
28100679375SPLM         03263Calsynar                      injektionsv‘ske     INJVSK        200 IE/ml           0000200000IUM012719012719 H05BA01                  20030818Pakning udg†et      
28100684775SPLM         03265Duroferon Vitamin             depottabletter(dur.)DEPTABD                           0000000000   056100056100 B03AE02OR                20001002Pakning udg†et      
28100685375SPLM         03998Dogmatil                      tabletter           TAB           200 mg              0000200000MG 257228257228 N05AL01OR       G   0236D20120528Pakning deaktiveret 
28100687175SPLM         02756Inderal                       filmovertrukne tabl.TABFILM       160 mg              0000160000MG 056100056100 C07AA05OR               D20020401Pakning udg†et      
28100689076SPLM         03577Aunativ                       injektionsv‘ske     INJVSK        200 IE/ml           0000200000IUM013107013801 J06BB04                  20050509Pakning udg†et      
28100690376SPLM         03277Aethoxysklerol                injektionsv‘ske     INJVSK        20 mg/ml            0000020000MGM033500025500 C05BB02IV                20070409Pakning udg†et      
28100690676SPLM         03272Balancid                      mikstur             MIK                               0000000000   056100056100 A02AD01                  20011126Pakning udg†et      
28100690876SPLM         03272Balancid                      tabletter           TAB           400 mg              0000400000MG 056100056100 A02AD01OR               D20011126Pakning udg†et      
28100691676SPLM         20851Vermox Vet.                   tabletter           TAB           100 mg              0000100000MG 031900205600QP52AC09OR                20031231Pakning udg†et      
28100691876SPLM         20851Vermox Vet.                   pasta               PAS           200 mg/g            0000200000MGG031900205600QP52AC09OR                20031231Pakning udg†et      
28100692176SPLM         02743Fluanxol                      dr†ber              DRB           100 mg/ml           0000100000MGM035800035801 N05AF01OR                20030721Pakning udg†et      
28100692776SPLM         03553Nuelin                        tabletter           TAB           125 mg              0000125000MG 153400062500 R03DA04OR               D20041108Pakning udg†et      
28100699076SPLM         03122Sotacor                       tabletter           TAB           160 mg              0000160000MG 249900254856 C07AA07OR               D20071203Pakning udg†et      
28100699776SPLM         02906Banminth Vet.                 granulat            GRA           767 mg/g (hest)     0000767000MGG259559254780QP52AF02OR                20120323Pakning udg†et      
28100702276SPLM         04056Alminox "DAK"                 mikstur             MIK                               0000000000   020800020800 A02AD01OR                20020624Pakning udg†et      
28100704376SPLM         04084Askorbinsyre "SAD"            injektionsv‘ske     INJVSK        100 mg/ml           0000100000MGM159500159500 A11GA01IV                20071105Pakning udg†et      
28100704976SPLM         04021Atropin "DAK"                 tabletter           TAB           0,25 mg             0000000250MG 020800020800 A03BA01OR               D20041220Pakning udg†et      
28100705076SPLM         20084Atropin "PS"                  ›jendrb., opl›sning OJDRBO        1%                  0000001000PC 010191010191 S01FA01OK                20120611Pakning udg†et      
28100706676SPLM         04187Benzokain-salol "Medic"       kutansuspension     KUTSUS        20 + 40 mg/g        0000000000   192000192000 D04AB04KU                20080714Pakning udg†et      
28100707676SPLM         04057Brintoverilte "DAK"           konc. t. kutanopl.  KONKUTO       30 mg/g             0000030000MGG020800020802 A01AB02KUOM              20090810Pakning udg†et      
28100709276SPLM         02708Abalgin                       filmovertrukne tabl.TABFILM       65 mg               0000065000MG 258338258338 N02AC04OR      J        D20110905Pakning udg†et      
28100709576SPLM         04043Digoxin "DAK"                 inj.v‘ske, opl›sningINJVSKO       0,25 mg/ml          0000000250MGM020800020800 C01AA05                  20050704Pakning udg†et      
28100710076SPLM         04061Dihydroergotamin "ERA"        tabletter           TAB           1 mg                0000001000MG 012154012154 N02CA01OR               D20040301Pakning udg†et      
28100712076SPLM         04051Ergotamin "DAK"               suppositorier       SUP           2 mg                0000002000MG 020800020800 N02CA02PR                20000724Pakning udg†et      
28100714776SPLM         04074Figen "ERA"                   oral opl›sning      ORALOPL       100 mg/g + 150 mg/g 0000000000   255694255694 A06AB06OR                20051107Pakning udg†et      
28100722576SPLM         04122Kinidin "DAK"                 tabletter           TAB           200 mg              0000200000MG 020800020800 C01BA01OR                20001231Pakning udg†et      
28100722976SPLM         04123Kinin "DAK"                   tabletter           TAB           250 mg              0000250000MG 020800020800 P01BC01OR               D20011029Pakning udg†et      
28100724076SPLM         04128Kloramfenikol "DAK"           filmovertrukne tabl.TABFILM       250 mg              0000250000MG 020800020800 J01BA01OR                20010402Pakning udg†et      
28100724676SPLM         04130Klorhexidin "Galderma"        creme               CREME         1%                  0000001000PC 012238012238 D08AC02KULO              20051219Pakning udg†et      
28100724876SPLM         04131Klorokinfosfat "DAK"          filmovertrukne tabl.TABFILM       250 mg              0000250000MG 020800020800 P01BA01OR               D20050912Pakning udg†et      
28100730276SPLM         04156Lidokain-adrenalin "DAK"      injektionsv‘ske     INJVSK        5 MG/ML             0000005000MGM056100056100 N01BB52                  20001002Pakning udg†et      
28100730376SPLM         04156Lidokain-adrenalin "DAK"      injektionsv‘ske     INJVSK        10 MG/ML            0000010000MGM056100056100 N01BB52                  20001002Pakning udg†et      
28100731176SPLM         04160Magnesia "DAK"                mikstur             MIK           50 mg/ml            0000050000MGM020800020800 A02AA04OR                20010402Pakning udg†et      
28100731276SPLM         04160Magnesia "DAK"                tabletter           TAB           500 mg              0000500000MG 020800020800 A02AA04OR               D20050606Pakning udg†et      
28100731776SPLM         04163Magnyl Svage "DAK"            tabletter           TAB           150 mg              0000150000MG 020800020800 N02BA01OR               D20051121Pakning udg†et      
28100733776SPLM         04170Mepyramin "Galderma"          creme               CREME         2 %                 0000002000PC 012238012238 D04AA02KU                20051219Pakning udg†et      
28100734876SPLM         04174Metaoxedrin "Ophtha"          ›jendr†ber          OJDRB         2,5%                0000002500PC 256938256938 S01FB01OK                20111212Pakning udg†et      
28100735276SPLM         04177Metyldopa "DAK"               tabletter           TAB           250 mg              0000250000MG 020800020800 C02AB01OR               D20041220Pakning udg†et      
28100736476SPLM         04333Morfin "DAK"                  suppositorier       SUP           20 mg               0000020000MG 020800020800 N02AA01PR      J         20011112Pakning udg†et      
28100740776SPLM         04233Noretisteron "DAK"            tabletter           TAB           5 mg                0000005000MG 011763011763 G03DC02OR                20101129Pakning udg†et      
28100741076SPLM         04236Noskapin "DAK"                mikstur             MIK           1 mg/ml             0000001000MGM020800020800 R05DA07OR                20010402Pakning udg†et      
28100741476SPLM         04239Opium "PS"                    orale dr†ber, opl›snORALDRO       100 mg/g            0000100000MGG010191010191 A07DA02OR      J         20081117Pakning deaktiveret 
28100741876SPLM         04240Oxytetracyklin "DAK"          tabletter           TAB           250 mg              0000250000MG 010191010191 J01AA06OR               D20031208Pakning udg†et      
28100743576SPLM         04248Pilokarpin "Ophtha"           ›jendr†ber          OJDRB         2%                  0000002000PC 256938256938 S01EB01OK                20111114Pakning deaktiveret 
28100744576SPLM         04253Prednison "DAK"               tabletter           TAB           2,5 mg              0000002500MG 020800020800 H02AB07OR               D20031222Pakning udg†et      
28100745776SPLM         04259Prometazin "ERA"              tabletter           TAB           10 mg               0000010000MG 255694255694 R06AD02OR      J        D20100405Pakning udg†et      
28100746076SPLM         04261Pyridoxin "SAD"               injektionsv‘ske     INJVSK        25 mg/ml            0000025000MGM011347011347 A11HA02IM                20091231Pakning udg†et      
28100750476SPLM         04289Sulfametizol "Ophtha"         tabletter           TAB           100 mg              0000100000MG 011527011527 J01EB02OR               D20040621Pakning udg†et      
28100750776SPLM         04290Sulfametoxazol m.Trimetop. DAKtabletter           TAB                               0000000000   020800020800 J01EE01OR                20001231Pakning udg†et      
28100752076SPLM         04340Teofylamin "Medic"            injektionsv‘ske     INJVSK        22 mg/ml            0000022000MGM192000192000 R03DA05IV                20080714Pakning udg†et      
28100754976SPLM         04307Tolbutamid "DAK"              tabletter           TAB           500 mg              0000500000MG 020800020800 A10BB03OR               D20060102Pakning udg†et      
28100755676SPLM         04343Triamcinolon "DAK"            creme               CREME         0,1 %               0000000100PC 012238012238 D07AB09                  20010611Pakning udg†et      
28100755776SPLM         04343Triamcinolon "DAK"            salve               SALV          0,1 %               0000000100PC 012238012238 D07AB09                  20010611Pakning udg†et      
28100756376SPLM         04315Vepicombin "DAK"              tabletter           TAB           300.000 IE          0300000000IU 020800020800 J01CE02OR                20040816Pakning udg†et      
28100756476SPLM         04315Vepicombin "DAK"              tabletter           TAB           500.000 IE          0500000000IU 020800020800 J01CE02OR                20040816Pakning udg†et      
28100756676SPLM         04315Vepicombin "DAK"              mikstur             MIK           30.000 IE/ml        0030000000IUM020800020800 J01CE02OR                20040816Pakning udg†et      
28100757276SPLM         04320Zink "ERA"                    liniment            LIN           12,5 %              0000012500PC 012154012154 D02AB                    20040301Pakning udg†et      
28100761876SPLM         04036Borsyre Visk›s "DAK"          kutanopl›sning      KUTOPL        2%                  0000002000PC 011763011763 D08AD  KU                20081229Pakning udg†et      
28100771476SPLM         04138Kodimagnyl Ikke-stoppende DAK enterotabletter     ENTTAB                            0000000000   020800020800 N02BA51OR               D20011224Pakning udg†et      
28100773776SPLM         04163Magnyl "DAK"                  enterotabletter     ENTTAB        500 mg              0000500000MG 020800020800 N02BA01OR                20010625Pakning udg†et      
28100777376SPLM         04417Pyrazinamid "Medic"           tabletter           TAB           500 mg              0000500000MG 192000192000 J04AK01OR               D20120416Pakning deaktiveret 
28100778776SPLM         04425Streptipenprokain Vet. "PHS"  injektionsv‘ske     INJVSK        200000 IE+312,5mg/ml0000000000   011557011557QJ01RA01IM                20011210Pakning udg†et      
28100786876SPLM         03222Econ                          tabletter           TAB                               0000000000   023800023800 G03AA05OR                20031208Pakning udg†et      
28100787076SPLM         03224Exlutona                      tabletter           TAB           0,5 mg              0000000500MG 039500061600 G03AC02OR                20021231Pakning udg†et      
28100787576SPLM         03229Gynatrol                      tabletter           TAB                               0000000000   011398234000 G03AA07OR                20030428Pakning udg†et      
28100787876SPLM         03232Microluton                    overtrukne tabletterTABOTR        30 mikg             0000030000RG 046400063200 G03AC03OR                20050620Pakning udg†et      
28100788076SPLM         03234Microval                      tabletter           TAB           30 mikg             0000030000RG 054200234000 G03AC03OR                20000612Pakning udg†et      
28100788276SPLM         03236Neogentrol                    tabletter           TAB                               0000000000   011398234000 G03AA07OR                20021231Pakning udg†et      
28100788376SPLM         03237Neogynon                      overtrukne tabletterTABOTR        0,25 + 0,05 mg      0000000000   258134056800 G03AA07OR                20081201Pakning udg†et      
28100794277SPLM         04458Benzylpenicillinprok. Vet. PHSinjektionsv‘ske     INJVSK        200.000 I.E./ML     0200000000IUM011557011557QJ01CE09                  20011210Pakning udg†et      
28100797877SPLM         04466Virigen                       tabletter           TAB           5 mg                0000005000MG 256939256939 G04BE04OR               D20111226Pakning udg†et      
28100798177SPLM         04330stradiol "DAK"               tabletter           TAB           5 mg                0000005000MG 020800020800 G03CA03OR                20011015Pakning udg†et      
28100798277SPLM         04467stradiol-›striol "DAK"       tabletter           TAB           2 mg - 1 mg         0000002000MG 020800020800 G03CA53OR                20020415Pakning udg†et      
28100819978SPLM         04545Zink-calmitol "DAK"           kutansuspension     KUTSUS                            0000000000   011763011763 D04AX  KU                20081229Pakning udg†et      
28100820078SPLM         04467stradiol-›striol "DAK"       tabletter           TAB           4 mg - 2 mg         0000004000MG 020800020800 G03CA53OR                20001231Pakning udg†et      
28100820378SPLM         20084Atropin "PS"                  ›jendrb., opl›sning OJDRBO        0,5%                0000000500PC 010191010191 S01FA01OK                20120514Pakning udg†et      
28100823178SPLM         04256Progesteron "DAK"             suppositorier       SUP           200 mg              0000200000MG 020800020802 G03DA04PR                20110124Pakning udg†et      
28100826479SPLM         04130Klorhexidin "Galderma"        opl. t. desinfektionOPLDES        0,2%                0000000200PC 012238012238 D08AC02KULO              20051219Pakning udg†et      
28100829279SPLM         04274Salicyl "Galderma"            salve               SALV          5%                  0000005000PC 012238012238 D02AF  KU                20071203Pakning udg†et      
28100829379SPLM         04274Salicyl "Galderma"            salve               SALV          10%                 0000010000PC 012238012238 D02AF  KU                20071203Pakning udg†et      
28100829679SPLM         04615Sterilt Vand "DAK"            opl/fortynd.v‘ske   OPLFORV                           0000000000   020800020800 V07AB                    20000626Pakning udg†et      
28100832880SPLM         04233Noretisteron "DAK"            tabletter           TAB           1 mg                0000001000MG 020800020800 G03DC02OR                20020513Pakning udg†et      
28100833680SPLM         04632Verucid                       gel                 GEL           110+40 mg/g         0000000000   012238012238 D11AF  KU                20110725Pakning udg†et      
28100833880SPLM         08409Human Albumin "SSI"           inf.v‘ske, opl›sningINFVSKO       200 g/l             0000200000GL 048800048800 B05AA01IV                20050509Pakning udg†et      
28100836380SPLM         04670Humant Norm. Immunglobulin SSIinj.v‘ske, opl›sningINJVSKO       160 mg/ml           0000160000MGM048800048800 J06BA01IMSC              20061204Pakning udg†et      
28100839081SPLM         04333Morfin "DAK"                  oral opl›sning      ORALOPL       2 mg/ml             0000002000MGM020800020800 N02AA01OR      J         20050718Pakning udg†et      
28100842683SPLM         08895Micropaque                    oral og rektal susp.ORAREKS       1 g/ml              0000001000GML029000255536 V08BA01ORPR              20090601Pakning deaktiveret 
28100853384SPLM         08895Micropaque                    pulver t. oral susp.ORAPULS       96 %                0000096000PC 011694029000 V08BA01OR                20041231Pakning udg†et      
28100860085SPLM         06797Glukose-kaliumfosfat "SAD"    inf.v‘ske, opl›sningINFVSKO       3,4 + 275 mg/ml     0000000000   011347011347 B05BB02IV                20080324Pakning deaktiveret 
28100862285SPLM         04788Alk 619 Gr›n‘rt               opl.t.prikt.(solup.)OPLPS         1:20 W/V            0000000050WV 012400012400 V04CL  ID                20081215Pakning udg†et      
28100862385SPLM         04789Alk 605 Banan                 opl.t.prikt.(solup.)OPLPS         1:20 W/V            0000000050WV 012400012400 V04CL  ID                20081215Pakning udg†et      
28100862485SPLM         04790Alk 618 Gr›n b›nne            opl.t.prikt.(solup.)OPLPS         1:20 W/V            0000000050WV 012400012400 V04CL  ID                20081215Pakning udg†et      
28100862685SPLM         04792Alk 623 Jordb‘r               opl.t.prikt.(solup.)OPLPS         1:20 W/V            0000000050WV 012400012400 V04CL  ID                20081215Pakning udg†et      
28100862785SPLM         04793Alk 626 Kartoffel Med Skr‘l   opl.t.prikt.(solup.)OPLPS         1:20 W/V            0000000050WV 012400012400 V04CL  ID                20071008Pakning udg†et      
28100862985SPLM         04795Alk 658 ’ble                  opl.t.prikt.(solup.)OPLPS         1:20 W/V            0000000050WV 012400012400 V04CL  ID                20081215Pakning udg†et      
28100863185SPLM         04797Alk 702 ’ggeblomme            opl.t.prikt.(solup.)OPLPS         1:100 W/V           0000000010WV 012400012400 V04CL  ID                20081215Pakning udg†et      
28100863585SPLM         04801Alk 723 Makrel                opl.t.prikt.(solup.)OPLPS         1:20 W/V            0000000050WV 012400012400 V04CL  ID                20081215Pakning udg†et      
28100863685SPLM         04802Alk 724 R›dsp‘tte             opl.t.prikt.(solup.)OPLPS         1:20 W/V            0000000050WV 012400012400 V04CL  ID                20120402Pakning udg†et      
28100864285SPLM         04808Alk 746 Kalvek›d              opl.t.prikt.(solup.)OPLPS         1:20 W/V            0000000050WV 012400012400 V04CL  ID                20081215Pakning udg†et      
28100864385SPLM         04809Alk 748 Lammek›d              opl.t.prikt.(solup.)OPLPS         1:20 W/V            0000000050WV 012400012400 V04CL  ID                20111226Pakning udg†et      
28100864485SPLM         04810Alk 749 Oksek›d               opl.t.prikt.(solup.)OPLPS         1:20 W/V            0000000050WV 012400012400 V04CL  ID                20111226Pakning udg†et      
28100864885SPLM         04814Alk 764 Mandel                opl.t.prikt.(solup.)OPLPS         1:20 W/V            0000000050WV 012400012400 V04CL  ID                20071008Pakning udg†et      
28100864985SPLM         04815Alk 768 Bygkorn               opl.t.prikt.(solup.)OPLPS         1:20 W/V            0000000050WV 012400012400 V04CL  ID                20081215Pakning udg†et      
28100865085SPLM         04816Alk 769 Havrekorn             opl.t.prikt.(solup.)OPLPS         1:20 W/V            0000000050WV 012400012400 V04CL  ID                20081215Pakning udg†et      
28100865185SPLM         04817Alk 773 Majskorn              opl.t.prikt.(solup.)OPLPS         1:20 W/V            0000000050WV 012400012400 V04CL  ID                20081215Pakning udg†et      
28100865285SPLM         04818Alk 775 Ris                   opl.t.prikt.(solup.)OPLPS         1:20 W/V            0000000050WV 012400012400 V04CL  ID                20081215Pakning udg†et      
28100865785SPLM         04823Alk 782 Bygmel                opl.t.prikt.(solup.)OPLPS         1:20 W/V            0000000050WV 012400012400 V04CL  ID                20081215Pakning udg†et      
28100865885SPLM         04824Alk 791 Cacao                 opl.t.prikt.(solup.)OPLPS         1:20 W/V            0000000050WV 012400012400 V04CL  ID                20071008Pakning udg†et      
28100867585SPLM         04832Alk 152 Ulmus Glabra          opl.t.prikt.(solup.)OPLPS         1:100 W/V           0000000010WV 012400012400 V04CL  ID                20081215Pakning udg†et      
28100868485SPLM         04837Alk 343 Plantago Major        opl.t.prikt.(solup.)OPLPS         1:100 W/V           0000000010WV 012400012400 V04CL  ID                20081215Pakning udg†et      
28100872285SPLM         04849Alk 408 Aspergillus Niger     opl.t.prikt.(solup.)OPLPS         1:20 W/V            0000000050WV 012400012400 V04CL                    20011126Pakning udg†et      
28100872585SPLM         04850Alk 411 Aureobasid. Pullulans opl.t.prikt.(solup.)OPLPS         1:20 W/V            0000000050WV 012400012400 V04CL  ID                20081215Pakning udg†et      
28100872885SPLM         04851Alk 412 Botrytis Cinerea      opl.t.prikt.(solup.)OPLPS         1:20 W/V            0000000050WV 012400012400 V04CL                    20011126Pakning udg†et      
28100873185SPLM         04852Alk 413 Candida Albicans      opl.t.prikt.(solup.)OPLPS         1:20 W/V            0000000050WV 012400012400 V04CL                    20011126Pakning udg†et      
28100874285SPLM         04855Alk 424 Mucor Racemosus       opl.t.prikt.(solup.)OPLPS         1:20 W/V            0000000050WV 012400012400 V04CL                    20011126Pakning udg†et      
28100875485SPLM         04859Alk 436 Phoma Herbarum        opl.t.prikt.(solup.)OPLPS         1:20 W/V            0000000050WV 012400012400 V04CL                    20011126Pakning udg†et      
28100875785SPLM         04860Alk 437 Rhizopus Nigricans    opl.t.prikt.(solup.)OPLPS         1:20 W/V            0000000050WV 012400012400 V04CL                    20011126Pakning udg†et      
