28103023098000005005         20 stk. (blister)             00002000STBLI B         A      00000200002YA2000112720050523        AF  059900
28103010998000024005      1  5 stk. (blister)              00000500STBLI B                00000000003YA2002091620071231        A   059800
28103010998000037010      10 10 x 5 stk. (blister)         00005000STBLI B                00000000003YA2002120920071231        A   059800
28103089999000048005         10 ml                         00001000ML    HF               00001250002YT2000011020001211        A   020800
28103104999000054005         6 engangsspr›jter a 0,3 ml    00000180MLENS B                00002400002YH2000040320050815        A   062700
28101897297000125005         28 stk. (blister)             00002800STBLI B         A      00001400003YA1997111720070618        AF  056100
28101781795000142010      1  1 htgl.                       00000100HTHTG B                00000050003YC20030203                A   022500
28103105099000145005         6 engangsspr›jter a 0,3 ml    00000180MLENS B                00003600002YH2000040320050815        A   062700
28103087699000159005         28 stk. (blister)             00002800STBLI B         A      00001400003YL2000032020070702        AF  058300
28103064599000164005      1  10 ml                         00001000MLDBH B                00000000003YA2005101020040802        A   205600
28103087899000184005      1  28 stk. (blister)             00002800STBLI B         A      00004200003YL2002042920080505        AF  058300
28101258786000186005      1  500 IE                        00050000IU    B                00000023803YK20010122                A   135400
28100675575000189010      30 30 x 100 ml minibag plus      00300000MLPLP B                00000300001YB20000626                A   135400
28103087999000193005      1  28 stk. (blister)             00002800STBLI B         A      00005600003YL2003102720060102        A   058300
28101032379000195005      1  1000 ml                       00100000MLPFL BP               00000000003YA200001102007032620080421A   012666
28103087799000198005      1  28 stk. (blister)             00002800STBLI B         A      00002800003YL2000032020080421        AF  058300
28103064599000209010      1  32 ml                         00003200ML    B                00000000003YA2001021920040802        A   205600
28103003898000223005         1 htgl. a 0,9 ml              00000090MLHTG BEGR             00000004102YH2000040320080519        A   011483
28103064599000225015      1  100 ml                        00010000MLDBH B                00000000003YA2001021920040802        A   205600
28103141100000237005         1 htgl. a 5 ml                00000500MLHTG BEGR             00000022702YH2000040320080616        A   011483
28101401390000240015      1  50 ml                         00005000MLFLA B         A      00005000003YA2005070420040621        AF  257309
2810172829400026100500517724 24 spr›jter a 5 g             00002400STIMS BP               00000000002YA2000032020070409        A   063100
28103090199000272005         100 doser                     00010000DOPBH B         A      00005000002YZ200804212008051920080602AF  250000
2810159779400027701000523512 12 x 100 ml                   00120000MLHTG BP               00000000002YK2000020720070409        A   063100
28100746876000279005         10 ml (bott.pk.)              00001000ML    HF        V PKRKO00000000002YK1999122720080211        A   256938
28103121699000283005      5  5 amp. x 1 ml                 00000500MLAMP B         A      00015151505YA200611062008021120080616AF  010189
28101258786000288010      1  1000 IE                       00100000IU    B                00000047603YK20010122                A   135400
28103060799000290005      1  1 stk. (0,36 ml)              00000100STCAM NBS  GYNOBA      00000400003YH2001031920050117        AF  061600
28103235701000316005      1  1 stk. a  0,72 ml             00000100STCAM NBS  GYNOBA      00000800003YH2001031920050117        AF  061600
28103090099000328005      1  100 doser                     00010000DODSP B         A      00002500002YA2008051920080630        AF  250000
28103090099000339010      2  200 doser (2x100)             00020000DOPBH B         A      00005000002YA2008061620080616        AF  250000
28103008298000373015      1  6 stk. (blister)              00000600STBLI B         A      00000600003YB2002061020050718        AF  061200
28103169100000421005         28 stk. (blister)             00002800STBLI B         A      00002800003YA2001021920070101        AF  056100
28101337988000443005         30 stk. (blister)             00003000STBLI B         A      00001000005YA2002051320030331        AF  061800
28101401390000448020      1  100 ml                        00010000MLFLA B         A      00010000003YA20080128                A   257309
28101027479000467005         30 stk. (blister)             00003000STBLI B         A      00003000004YA2000090420050411        AF  061800
28101195584000469005      1  30 stk. (blister)             00003000STBLI B         A      00003000004YA2001102920050411        AF  061800
28103020598000475005      1  6 ml                          00000600MLDBH HF        V PALKO00000000030MA2006032720060327        A   254766
28101177084000484005      1  100 ml                        00010000MLHTG BP               00000000003YA200006122005121920080421A   012666
28101457491000493005      1  1 dosis + 1 solvens           00000100DS    B                00000000003YK2001100120070101        A   255801
28101027479000514010         100 stk. (blister)            00010000STBLI B         A      00010000004YA2000090420050411        AF  061800
28101170783000516005      1  5 kg                          00000500KG    BP               00000000003YA200004172006120420080421A   012666
28101195584000525010      1  100 stk. (blister)            00010000STBLI B         A      00010000004YA2001082020050411        AF  061800
28103169100000534010         100 stk.                      00010000STPBH B         A      00010000003YA2001021920070101        AF  056100
28103170100000548005      1  5 ml                          00000500MLFLA HA        V PALKO00000000002YB2001041620050314        AF  011768
28103222101000552005      2  2 engangsspr›jter             00000200STENS B                00000200003YA2008042120080421        A   061800
28101958997000555005         60 stk.                       00006000STPBH B         A      00000300002YB2001101520060213        A   059900
28101170783000561015      1  25 kg                         00002500KG    BP               00000000003YA200004172007031220080421A   012666
28103170200000565005      1  20 x 0,4 ml                   00002000STEND HA        V PALKO00000000002YB2001041620050314        AF  011768
28103170200000573010      1  60 x 0,4 ml                   00006000STEND HA        V PALKO00000000002YB2002021820050314        AF  011768
28100742176000576005         100 stk.                      00010000STGLA B                00003500005YA1999122720070409        A   011763
28101959097000598005         60 stk.                       00006000STPBH B         A      00000500002YB2002012120080519        AF  059900
28100690976000609005         30 stk. (blister)             00003000STBLI B         A      00002000005YA2001043020020610        AF  061800
28101897297000612010         100 stk.                      00010000STGLA B         A      00005000002YA1997111720071105        AF  056100
28100691076000622005      1  30 stk. (blister)             00003000STBLI B         A      00004000005YA2000122520031013        AF  061800
28101543293000626005         1 x 100 ml                    00010000ML    B                00000000005YA19991227                A   135400
28100389461000629005      12 12 x 500 ml                   00600000MLPOS B                00000600002YB20010305                A   256331
28100413062000641005      10 10 x 100 ml                   00100000MLPOS B                00000100002YB20010305                A   256331
28101333588000646005         30 stk.                       00003000ST    B         A      00006000004YB1991010120050523        AF  061800
28100413062000652010      10 10 x 250 ml                   00250000MLPOS B                00000250002YB20010305                A   256331
28100413062000663015      12 12 x 500 ml                   00600000MLPOS B                00000600002YB20010305                A   256331
28101337988000664010         100 stk. (blister)            00010000STBLI B         A      00003333305YA2000122520030721        AF  061800
28100690976000675010         100 stk. (blister)            00010000STBLI B         A      00006666705YA2000122520030721        AF  061800
28100691076000686010      1  100 stk. (blister)            00010000STBLI B         A      00013333305YA2001043020030721        AF  061800
28103065199000701005         1 x 15 g                      00001500G     B                00000000018MB2000111320060911        A   059300
28103222001000784005      2  2 engangsspr›jter             00000200STENS B                00000100003YA2001121020070507        A   061800
28101475291000799005      1  70 doser (10 ml)              00007000DOGFL HF        V PALRI00001750003YA2006032720060327        A   254766
28100107155000801005         125 ml                        00012500MLFLA HA               00000416703YB2001020520060410        A   258318
28103123099000814005         60 stk. (blister)             00006000STBLI BEGR             00003000002YT20010219                A   059300
28103117299000815005      1  125 ml                        00012500MLFLA HA               00000208403YA2001010820040510        A   257879
28103023098000861010         500 stk.                      00050000STPBH B         A      00005000002YA2002010720040510        AF  059900
28100718376000875005         10 ml                         00001000ML    HA        V PPSOE00001000003YA20000807                A   012238
28101497692000884010         500 stk.                      00050000STPBH B         A      00010000002YA2002010720040830        A   059900
28101543293000890010         1 x 250 ml                    00025000MLHTG B                00000000005YA20020121                A   135400
28101062381000891010         60 stk. (blister)             00006000STBLI B                00003000004YA2001082020070212        A   257780
28100718376000892010         30 ml                         00003000ML    HA        V PPSOE00003000003YA20000724                A   012238
28101497792000895015      1  500 stk.                      00050000STPBH B         A      00020000002YA2008040720080407        A   059900
2810149339200089701000091410 10 x 5000 doser               05000000DOHTG BP               00000000002YK2000040320080211        A   059800
28100718476000898005         10 ml                         00001000ML    HA        V PPSOE00001000003YA20000918                A   012238
28100718476000909010         30 ml                         00003000ML    HA        V PPSOE00003000003YA20000918                A   012238
28103108599000957005      1  1 tokammerampul               00000100AMTAM BEGR             00000750003YK2001012220080324        A   061800
28101295187001004010      25 25 x 0,2 ml                   00000500MLENS B                00002500003YA2000062620071022        A   061800
28101124183001008005         100 stk.                      00010000ST    B         S SPAST00001666705YB1984102220050117        AF  011768
28101212185001009005         5 amp. x 4 ml                 00002000MLAMP B         A      00001000005YA2001021920051024        A   034800
28103132300001025005      1  28 stk. (blister)             00002800STBLI B         A      00000466703YA2001010820080114        AF  056100
28101295287001029010      25 25 x 0,2 ml                   00000500MLENS B                00005000003YA2000062620071022        A   061800
28101124283001115005      1  100 stk.                      00010000ST    B         S SPAST00003333305YB1984102220050117        AF  011768
28101394190001123010      1  100 stk.                      00010000ST    B         A      00005000005YL1995013020050328        AF  259172
28103039498001167005      1  1 stk. a 0,5 ml               00000050MLFIN NBS  GYNOBA      00000100002YL2007050720050214        A   061600
28101866396001191010      1  100 stk. (blister)            00010000STBLI B         A      00003000003YA2000082120071203        AF  011593
28103127099001194005      1  10 stk. (blister)             00001000STBLI B                00001000003YT2001030520060102        A   061800
28103106799001213005      1  28 stk. (blister)             00002800STBLI B         A      00002800003YB20001030                A   011823
28103295501001225005         30 stk. (blister)             00003000STBLI B         S CHOL 00024000003YA2002042920050801        AF  061800
28103295501001239010         100 stk. (blister)            00010000STBLI B         S CHOL 00080000003YA2002042920050801        AF  061800
28100439863001295005         100 stk. (blister)            00010000STBLI B         A      00010000005YA2001051420071203        AF  257842
28103322401001296005      1  50 stk. (blister)             00005000STBLI HA               00002500005YB20030317                A   012780
28101866496001304010         100 stk. (blister)            00010000STBLI B         A      00006000003YA2000071020071203        AF  011593
28103040998001316005         10 stk. (blister)             00001000STBLI A                00000500003YA2000040320000821        A   255483
2810183429600131701500133150 2 x 25 x 50 ml                00250000MLHTG B                00000000003YV2000032020070924        A   255536
28103106799001324010      1  98 stk. (blister)             00009800STBLI B         A      00009800003YB20001030                AF  011823
28103138700001326010      1  12 g                          00001200G TUB B         A      00000000003YA2007111920080114        AF  255483
28103144900001337015      10 10 x 30 ml                    00030000MLHTG A                00000000003YA2000121120070716        A   056800
28101834296001342025001351   2 x 10 x 100 ml               00200000MLHTG B                00000000003YV2000032020070924        A   255536
28103040998001344010         30 stk. (blister)             00003000STBLI A                00001500003YA2006082820060522        A   255483
28103040998001350015         100 stk. (blister)            00010000STBLI A                00005000003YA2006082820060522        A   255483
28103736904001362005      1  5 ml                          00000500MLFLA B         A      00000000002YK20080128                A   011768
28103148900001394005      1  14 stk. (blister)             00001400STBLI B         A      00000933303YV2000091820050314        AF  056100
28103039498001399010      5  5 stk. a 0,5 ml               00000250MLFIN NBS  GYNOBA      00000500002YL2007042320050214        A   061600
28103148900001408010      1  28 stk. (blister)             00002800STBLI B         A      00001866703YV2000100220050314        AF  056100
28103148900001417015      1  56 stk. (blister)             00005600STBLI B         A      00003733303YV2000101620050314        AF  056100
28103149000001450005      1  14 stk. (blister)             00001400STBLI B         A      00001866703YV2000091820050314        AF  056100
28103149000001463010      1  28 stk. (blister)             00002800STBLI B         A      00003733303YV2000100220050314        AF  056100
28103061999001490005         5 x 3 ml                      00001500MLAMP B         A      00003750018MH2002040120051024        A   039000
28101705394001503005         5 x 750 mg monovial           00000500HT    B                00000125002YA19951009                A   059300
28103149000001505015      1  56 stk. (blister)             00005600STBLI B         A      00007466703YV2000101620050314        AF  056100
28101092381001511005      5  5 amp. a 1 ml                 00000500MLAMP B         A      00015151503YA2008012820080128        AF  059900
28103168300001512005      1  100 stk. (blister)            00010000STBLI B                00004000005YA2003081820071203        A   257842
28103148900001527020      1  100 stk.                      00010000ST    B         A      00006666703YV2000091820050314        AF  056100
28103149000001549020      1  100 stk.                      00010000ST    B         A      00013333303YV2000091820050314        AF  056100
28103088399001588005      4  4 x 1026 ml (4 x 900 kcal)    00410400MLPOS B                00000410401YB2001043020010611        A   256331
28103111199001599000      5  5 x 5 ml                      00002500MLAMP B                00000500003YC2001020520010723        A   253040
28101053180001602005         5 x 1,5 g monovial            00000500HT    B                00000250002YA19951009                A   059300
28103088399001605010      4  4 x 1540 ml (4 x 1400 kcal)   00616000MLPOS B                00000616001YB20010514                A   256331
28103088399001622025      2  2 x 2566 ml (2 x 2300 kcal)   00513200MLPOS B                00000513201YB20010806                A   256331
28101362889001628005         50 stk.                       00005000ST    A         A      00001666701YA1990092420010709        AF  257309
28101535392001695005         30 stk. (blister)             00003000STBLI B         A      00002000003YA2001070920050509        AF  250000
28103124999001696005      5  5 x 1000 doser                00500000DOHTG BP               00000000033WH2005071820061204        A   257309
28101535392001706005         100 stk. (blister)            00010000STBLI B         A      00006666603YA2001070920080630        AF  250000
2810190549700175500500214112 12 x 10 ml                    00012000MLIMS BP               00000000024MA2000080720051219        A   258684
28103124999001762010      5  5 x 5000 doser                02500000DOHTG BP               00000000033WH2005071820061204        A   257309
28101740094001788010         100 ml                        00010000MLPFL B         A      00000666703YA2006032720080630        AF  010189
28101567393001815005      1  10 stk. (blister)             00001000STBLI B         A      00000500003YB2008032420080602        AF  250000
28103028198001817005      1  1 x 7,49 g (applikatorer)     00000749G OSP BP               00000000002YV2008063020060703        A   258684
28101905497001869010002164150150 x 10 ml                   00150000MLIMS BP               00000000024MA2000080720051219        A   258684
28101002855001874005         10 amp. a 1 ml                00001000MLAMP B         A      00001000003YK2001021920070101        A   011768
28103026698001878010         15 ml (3 x 5 ml)              00001500MLDBH B         A      00007500002YA2001012220021014        A   132300
28103146400001905005         30 stk.                       00003000ST    B         A      00000020002YA2001080620050718        A   059300
28103134200001906005      15 15 x 500 ml                   00750000MLPOS B                00000750003YA2007031220070312        A   256331
28103091299001916005      5  5 x 1250 ml                   00625000MLPLP B                00000625002YC20021125                A   257071
28103091399001918005      5  5 x 1250 ml                   00625000MLPLP B                00000625002YC20021125                A   257071
28101567393001926010      1  50 stk. (blister)             00005000STBLI B         A      00002500003YB2008032420080324        AF  250000
28101567493001937005         5 stk. (blister)              00000500STBLI B         A      00000500003YB2000111320060424        AF  250000
28103056698001938010      1  100 stk. (blister)            00010000STBLI B         A      00000500003YA2007121720080630        AF  257418
28101567493001950010         10 stk. (blister)             00001000STBLI B         A      00001000003YB2000111320080602        AF  250000
28101567493001959015      1  50 stk. (blister)             00005000STBLI B         A      00005000003YB2008012820080630        AF  250000
281035930030019940050196905  5 x 10 g                      00005000G ENS BP               00000000002YB2006022720070101        A   205600
28101446091002004005      1  60 stk. (blister)             00006000STBLI B         A      00007500003YA2003051220050606        A   148800
28103110799002019015      5  5 x 10 ml                     00005000MLAMP A                00001666703YL2003120820071231        A   257623
28103091299002073010      5  5 x 1875 ml                   00937500MLPLP B                00000937502YC20021125                A   257071
28103091299002082015      5  5 x 2500 ml                   01250000MLPLP B                00001250002YC2002112520001225        A   257071
28103110799002085005      10 10 x 1 ml                     00001000MLAMP A                00000333303YL2007022620071231        A   257623
28103091399002095010      5  5 x 1875 ml                   00937500MLPLP B                00000937502YC20021125                A   257071
28100673375002105020      1  1 htgl. a 10 ml               00001000MLHTG B         A      00013333303YL1983101020040510        A   035801
28103091399002106015      5  5 x 2500 ml                   01250000MLPLP B                00001250002YC2002112520001225        A   257071
28103091499002119005      5  5 x 1875 ml                   00937500MLPOS B                00000937502YC20030217                A   257071
28103110799002124010      5  5 x 3 ml                      00001500MLAMP A                00000500003YL2007091020071231        A   257623
28103035398002127005         30 stk.                       00003000STBOX B                00000000003YT2000082120071231        A   059800
28103206300002140005      30 30 x 0,6 mg                   00001800MGEND HF        V PKEKO00000000002YC2003020320060227        A   011768
28101851196002145005      1  10 stk. (blister)             00001000STBLI B                00000000002YB20011015                A   063100
28103030998002149010      1  5 g                           00000500G TUB HX        V PHERL00000000003YA2002081920020107        A   250000
28101863996002185005      1  250 ml                        00025000MLGFL BPK              00000000005YB2003070720080310        A   254780
28103146600002193005      1  40 g                          00004000G     B                00000060003YB2001112620050509        A   254766
28103149400002194005      4  4 x 1440 ml (4 x 1000 kcal)   00576000MLPOS B                00000576002YB20010709                A   256331
28103036498002208005         10 ml                         00001000MLHTG B         A      00002500002YH2002042920051024        A   039000
28101850996002211005      1  10 stk. (blister)             00001000STBLI B                00000000002YB20011015                A   063100
28103145300002230005         3 x 28 stk. (blister)         00008400STBLI B                00008400005YA200107232008031020080519A   010189
28101851096002244005      1  10 stk. (blister)             00001000STBLI B                00000000002YB20011015                A   063100
28103110599002245005      10 10 x 5 ml                     00005000MLAMP A                00000333303YL2003120820071231        A   257623
28103146500002250005      1  100 stk.                      00010000ST    B         A      00062500005YA2007120320071203        AF  020802
28101533892002265010         120 g                         00012000G TUB B         A      00000000002YA2001031920061009        A   034800
28103146500002271010      1  200 stk.                      00020000ST    B         A      00125000005YA20010108                A   020802
28101533892002276005         60 g                          00006000G TUB B         A      00000000002YA2003052620060102        A   034800
28103176100002294005      1  28 stk. (blister)             00002800STBLI B         A      00001120002YL2001030520050912        A   061200
28103123799002312010      1  15 g                          00001500G     HF        V PHUDS00001500003YT2000122520070730        A   011768
28103357602002320005      1  12 stk. (blister)             00001200STBLI B                00000075005YT2004020220050829        A   059300
28103153100002325005      1  50 stk. (blister)             00005000STBLI NBS  DERM A      00001666703YL2001082020060828        AF  255483
28103176100002328010      1  98 stk. (blister)             00009800STBLI B         A      00003920002YL2001030520050912        AF  061200
28101940497002332010      1  1 x 50 ml                     00005000MLHTG BP               00000000002YK2007071620080211        A   059800
28103068299002342005      1  1 x 1000 IE                   00100000IUHTG BEGR             00000200023MH20001225                A   258374
28103153200002350005      1  50 stk. (blister)             00005000STBLI NBS  DERM A      00003333303YL2004081620080616        AF  255483
28103068199002356005      1  1 x 500 IE                    00050000IUHTG BEGR             00000100023MH20001225                A   258374
28103055899002367005      1  1 x 250 IE                    00025000IUHTG BEGR             00000050023MH20020722                A   258374
28103158700002391005         3 x 21 stk. (blister)         00006300STBLI B                00008400003YC2001030520040927        A   056800
28103158600002413005      3  3 x 28 stk. (blister)         00008400STBLI B                00008400003YC2008022520080225        A   056800
28100552969002422005      1  20 stk. (blister)             00002000STBLI B                00001000003YT20010903                A   012238
28101940597002432005      1  1 x 50 ml                     00005000MLHTG BP               00000000002YK2004080220080211        A   059800
28103106899002439015      4  4 x 2500 ml (system)          01000000ML    B                00001000018MA20011224                A   181800
28103106899002458025      2  2 x 5000 ml (system)          01000000MLPOS B                00001000018MA20011126                A   181800
28103106899002491005      4  4 x 2000 ml (gemini)          00800000MLPOS B                00000800018MA20000724                A   181800
28103106899002502010      4  4 x 2500 ml (gemini)          01000000MLPOS B                00001000018MA20000724                A   181800
28103150800002520005      1  30 stk.                       00003000ST    BEGR             00001875002YB20010723                A   254856
28103123799002534005      1  5 g                           00000500G     HF        V PHUDS00000500003YT2000122520060605        A   011768
28103150900002540005      1  30 stk.                       00003000ST    BEGR             00003000002YB20010723                A   254856
28101327388002547005         30 stk. (blister)             00003000STBLI B         A      00003000003YA2000072420050411        A   061800
28103107299002557015      4  4 x 2500 ml (system)          01000000ML    B                00001000018MA20011224                A   181800
28103107299002579025      2  2 x 5000 ml (system)          01000000MLPOS B                00001000018MA20011126                A   181800
28100918977002600005         100 ml                        00010000ML    BP               00000000002YK1984111920080211        A   059800
28103107299002612005      4  4 x 2000 ml (gemini)          00800000MLPOS B                00000800018MA20000724                A   181800
28103080799002616005         1 htgl.                       00000100HTHTG NBS  OFTALA      00000000003YC2000090420050214        A   011768
28103107299002623010      4  4 x 2500 ml (gemini)          01000000MLPOS B                00001000018MA20000724                A   181800
28101327388002627010         100 stk. (blister)            00010000STBLI B         A      00010000003YA2000080720050411        A   061800
28101444291002675005      6  6 x 36 g                      00021600G     HF               00000000002YA19930215                A   073800
28103062299002754005         204 stk. (blister)            00020400STBLI HF               00000680002YC2001090320070730        A   011768
28101565393002780005         120 ml                        00012000MLPFL B         A      00000000002YB2000090420041220        A   034800
28101020079002793010      1  1500 g                        00150000G DSE BP               00000000004YA2001040220080505        A   254780
28103134600002830005         5 ml                          00000500MLDBH B         A      00002500018MB2000103020060717        A   012009
28101756595002831005      10 10 x 0,25 ml (2.500 IE)       00001000STENS B                00000714302YB2001031920071231        A   034800
28103135000002853005      1  1 stk.                        00000100STHTG NBS  DVNOP       00000000003YF2000071020080114        A   258152
28103038198002989005      10 10 x 250 ml                   00250000MLPOS B                00000250002YB20010319                A   256331
28101947997002993005      1  50 tubuler a 1,7 ml           00005000STFIN B                00000000002YC2001010820050606        A   256897
28103038198003001010      12 12 x 500 ml                   00600000MLPOS B                00000600002YB20010319                A   256331
28103290501003009005      1  28 stk. (blister)             00002800STBLI B         A      00002800003YA2002080520050606        AF  061200
281019479970030160100030494  4 x 50 tubuler a 1,7 ml       00020000STTUL B                00000000002YC2001031920050606        A   256897
281019478970030220100030824  4 x 50 tubuler a 1,7 ml       00020000STTUL B                00000000002YC2001031920050606        A   256897
28103290501003023010      1  98 stk. (blister)             00009800STBLI B         A      00009800003YA2002080520050606        AF  061200
281019479970030330150030608  8 x 50 tubuler a 1,7 ml       00040000STTUL B                00000000002YC2001031920050606        A   256897
28101929897003036005      10 10 x 1 dose                   00001000DOHTG BP               00000000002YH2005041120070409        A   063100
281019478970030470150030938  8 x 50 tubuler a 1,7 ml       00040000STTUL B                00000000002YC2001031920050606        A   256897
28103131000003051010         20 stk. (blister)             00002000STBLI HA        V PKRON00000333303YA2000122520030818        A   256647
28103034298003064005      1  50 stk. (blister)             00005000STBLI B         A      00000833303YB2001041620030512        AF  255816
28101947897003071005      1  50 tubuler a 1,7 ml           00005000STFIN B                00000000002YC2001010820050606        A   256897
28103034298003078015      1  100 stk. (blister)            00010000STBLI B         A      00001666703YB20040412                A   255816
28100669675003079005         15 stk.                       00001500ST    B         A      00001500005YA1978072420050523        A   059900
28101129683003080005      1  1 x 5,0 g                     00000500G HTG B                00000000003YH200405242007091020080630A   135400
28103115499003087010      1  6 stk. (blister)              00000600STBLI B         A      00000600000XT2007050720080630        AF  010189
28101129683003091010      1  1 x 10,0 g                    00001000G HTG B                00000000003YH200805192008051920080630A   135400
28103034198003099005      2  2 s‘t                         00000200SEHTG BEGR             00000000018MK2006021320060213        A   255693
28101543393003108005         28 stk. (blister)             00002800STBLI B                00000000002YA2001052820071231        A   001200
28103070199003112005      1  100 stk. (blister)            00010000STBLI B         A      00003333303YB2001030520030512        AF  255816
28101875097003115005      1  2 kg                          00000200KGPOS PRMIX            00000000002YA2000082120060703        A   234300
28103070199003123025      1  200 stk. (blister)            00020000STBLI B         A      00006666703YB2000122520030623        A   255816
28103070299003140005      1  100 stk. (blister)            00010000STBLI B         A      00005000003YB20050314                A   255816
28103070399003158010      1  100 stk. (blister)            00010000STBLI B         A      00006666703YB2001021920030512        AF  255816
28103332601003164005      1  1 stk. (blister)              00000100STBLI B                00000000030MH20040301                A   011415
28103070399003173010      1  200 stk. (blister)            00020000STBLI B         A      00013333303YB2000122520030512        AF  255816
28103332701003175005      1  1 stk. (blister)              00000100STBLI B                00000000030MH20040301                A   011415
28103035498003189005      1  1 x 100 ml                    00010000MLHTG BP               00000000002YT2001021920050103        A   099300
28101958897003192005      1  1 x 10 ml                     00001000MLHTG B                00000000003YH2000103020050606        A   063100
28103109899003195005      4  4 x 0,4 ml                    00000160MLFIN BEGR             00000888902YH20010709                A   255791
28103144100003208005      4  4 x 0,375 ml                  00000150MLFIN BEGR             00001333302YH20010709                A   255791
28103028498003214005         28 stk. (blister)             00002800STBLI B         A      00002800002YA2000112720070101        A   056100
28103261601003230010      4  4 x 0,5 ml                    00000200MLFIN BEGR             00001777802YH20010709                A   255791
28103261701003252005      4  4 x 0,3 ml                    00000120MLFIN BEGR             00002666702YH20010709                A   255791
28103261801003274010      4  4 x 0,4 ml                    00000160MLFIN BEGR             00003555602YH20010709                A   255791
28103028498003279010         100 stk.                      00010000STPBH B         A      00010000002YA2000101620070101        A   056100
28103261901003296005      4  4 x 0,5 ml                    00000200MLFIN BEGR             00004444402YH20010709                A   255791
28103144900003298010      10 10 x 15 ml                    00015000ML    A                00000000003YA2003091520070716        A   056800
28103141000003310005      1  120 doser                     00012000DO    B         A      00003000002YT2001040220050509        AF  056100
28103130899003312005      2  2 x 5000 ml                   01000000MLPOS B                00001000002YA20040105                A   181800
28103262001003318010      4  4 x 0,3 ml                    00000120MLFIN BEGR             00005333302YH20010709                A   255791
28101543593003320005         28 stk. (blister)             00002800STBLI B                00000000002YA2000112720071231        A   001200
28103179600003325005      1  120 doser                     00012000DOPIH B         A      00003000002YT2002091620050509        AF  056100
28103262101003340010      4  4 x 0,4 ml                    00000160MLFIN BEGR             00007111102YH20010709                A   255791
28101543793003342000         28 stk. (blister)             00002800STBLI B                00000000002YA2000112720071231        A   001200
28103250401003353005      1  100 stk. (blister)            00010000STBLI BEGR             00003333302YL2002052720030331        A   254817
28101935097003355005      1  15 ml                         00001500MLSPB HF        V PHUDS00001500003YA2002020420070730        A   011768
28103262201003362005      4  4 x 0,5 ml                    00000200MLFIN BEGR             00008888902YH20010709                A   255791
28103262301003386005      4  4 x 0,3 ml                    00000120MLFIN BEGR             00013333302YH20010709                A   255791
28103262401003395005      1  1 x 0,6 ml                    00000060MLFIN BEGR             00006666702YH20021223                A   255791
28103052198003423005      1  28 stk. (blister)             00002800STBLI B         A      00001400003YA2000112720060731        A   058300
28101197884003455005      1  60 stk. (blister)             00006000STBLI A         A      00001500003YL2001100120050411        A   061800
28101197884003469010         100 stk. (blister)            00010000STBLI A         A      00002500003YL2001100120050411        A   061800
28103115799003493005         1 x 250 ml                    00025000MLFLA AP4              00000333304YT20011112                A   148800
28101783895003578005      1  28 stk. (blister) (Orifarm)   00002800STBLI B         A      00002800003YL2000121120080602        AF  010189
28103115899003593005      1  1 x 120 ml                    00012000MLFLA AP4              00001600002YT20011112                A   148800
28101436491003660005      1  30 stk. (blister)             00003000STBLI B         A      00003000005YA2007082720071203        AF  083200
28103002998003687005         100 stk.                      00010000STPBH BEGR             00000000003YT2001070920070507        A   010530
28101783795003722010      1  56 stk. (blister) (Orifarm)   00005600STBLI B         A      00004200003YL2007073020080505        AF  010189
28101783695003733010      1  28 stk. (blister) (Orifarm)   00002800STBLI B         A      00001400003YL2007042320080602        AF  010189
28103143900003746005         30 g                          00003000G TUB B         A      00003000002YA2000091820080407        AF  012562
28101896497003751005         20 ml (10 doser)              00002000MLHTG BP               00000000002YH2001012220080421        A   001200
28103223300003755005      1  200 doser (10 ml)             00020000DO    B         A      00003333302YA2001021920060731        A   205600
28103143900003769010         60 g                          00006000G TUB B         A      00006000002YA2000100220080616        AF  012562
28103081899003775010      3  3 x 1,5 mg                    00000450MGHAM BEGR             00000032103YK2001101520050214        A   257228
28103089399003809005      1  28 stk. (blister)             00002800STBLI B         A      00002800003YA2000112720060731        A   058300
28101783595003860015      1  28 stk. (blister) (Paranova)  00002800STBLI B         A      00000700002YL2005081520080519        AF  083200
28103153300003861005      56 56 amp. a 5 ml                00028000MLAMP B                00005600003YH2001090320060102        A   011768
28103697504003862005      3  3 x 60 doser                  00018000DO    B         A      00004500002YT200506202008050520080519AF  083200
28101715494003869005         10 stk (blister)              00001000STBLI B                00001000003YA20010205                A   257309
28101318387003898005      6  5.000 IE x 6, eng.sp. a 0,5 ml00000300MLENS B                00003000018MH20020218                A   059900
28101318387003910010      6  6.000 IE x 6, eng.sp. a 0,6 ml00000360MLENS B                00003600018MH20020218                A   059900
28103139399003916005      2  360 doser (2x180)             00036000DO    B         A      00003150002YB2001020520080630        AF  083200
28101318387003932015      6  8.000 IE x 6, eng.sp. a 0,8 ml00000480MLENS B                00004800018MH20020218        20080616A   059900
28101010979003939005         20 stk.                       00002000ST    B         A      00001000005YA1979082020050509        AF  011768
28101141783003954005         20 stk. (blister)             00002000STBLI B                00000666703YA1998040620080324        A   257213
28101906197003964005         1 x 10 chip (blister)         00001000STBLI HA               00000083302YV20020204                A   012262
28103172500003974005      5  5 x 60 ml                     00030000MLFLA BEGR             00003000002YK2001061120010903        A   055600
28103221701003983005      1  30 stk. (blister)             00003000STBLI HA        V PANGP00004500003YA2007032620080324        AF  255483
28101010979003988010         100 stk.                      00010000ST    B         A      00005000005YA1979082020050509        AF  011768
28103221701003995010      1  100 stk. (blister)            00010000STBLI HA        V PANGP00015000003YA2007032620080616        AF  255483
28101109682004002010         10 amp. a 5 ml                00005000MLAMP A                00001000004YA1984031220010723        A   011768
28103160100004003010      4  4 x 50 ml                     00020000MLHTG BPK              00000000003YA2000100220070409        A   063100
28103221601004006005         30 stk. (blister)             00003000STBLI HA        V PANGP00002250003YA2001052820050815        AF  255483
28101141783004010015         100 stk. (blister)            00010000STBLI B                00003333303YA2001082020080324        A   257213
28103174300004014005         250 ml                        00025000MLGFL B         A      00001500003YA2001090320070101        A   011768
28103221601004017010      1  100 stk. (blister)            00010000STBLI HA        V PANGP00007500003YA2007110520071105        AF  255483
28103158800004041010      1  18 stk. (blister)             00001800STBLI B         A      00001800003YA200803242008032420080616AF  010189
28101115082004045015      1  100 stk.                      00010000STDSE B         A      00005000005YA2008012820080128        AF  256939
28103056798004059005      1  70 stk. (blister)             00007000STBLI B         A      00000700003YA2007121720080630        AF  257418
28103214600004086005      1  7. stk. (blister)             00000700STBLI B         A      00000350003YA2003101320041122        A   061800
28103152400004096005      1  2 pipetter a 3,0 ml           00000200STBLI HV               00000000002YA20050926                V   185900
28103093700004113005      4  4 pipetter a 60 mg            00000400STENP HV               00000000002YA20040202                V   185900
28103093700004115005      1  2 pipetter a 0,6 ml           00000200STENP HV               00000000002YA20050926                V   185900
28103044498004118010      1  200 stk.                      00020000STDSE B         A      00003333303YA2007060420070604        AF  256647
28103152200004126005      1  2 pipetter a 0,6 ml           00000200ST    HV               00000000002YA20050926                V   185900
28103182700004129005      1  30 stk. (blister)             00003000STBLI A         A      00003000005YA2001040220080211        AF  010189
28103152200004137005      4  4 pipetter a 12 mg            00000400STEND HV               00000000002YA20040202                V   185900
28103019598004146005      1  30 stk.                       00003000STTBH B         A      00001000003YA2006102320061023        A   259743
28103152300004159005      1  2 pipetter a 1,5 ml           00000200ST    HV               00000000002YA20050926                V   185900
28103152300004165005      4  4 pipetter a 30 mg            00000400STEND HV               00000000002YA20040202                V   185900
28103019598004171010      1  100 stk.                      00010000STTBH B         A      00003333303YA2006102320061023        AF  259743
28103164000004172005      1  1 htgl. a 25 doser            00002500DOHTG BP               00000000018MK2005121920070101        A   205600
28103019698004182005      1  30 stk.                       00003000STTBH B         A      00002000003YA2006121820061218        A   259743
28101328288004184005      1  1 htgl. (1 mg)                00000100HTHTG BEGR             00000000002YK2007040920070409        A   011768
28103152400004187005      4  4 pipetter a 60 mg            00000400STEND HV               00000000002YA20040202                V   185900
28103019698004193010      1  100 stk.                      00010000STTBH B         A      00006666703YA2006121820061218        AF  259743
28103182700004196010      1  100 stk. (blister)            00010000STBLI A         A      00010000005YA2001040220080211        AF  010189
28101115082004205005         250 stk.                      00025000STDSE B         A      00012500005YA2001020520060717        AF  256939
28103019798004207005      1  30 stk.                       00003000STTBH B         A      00004000003YA2007073020070730        A   259743
28101062281004213020         250 stk.                      00025000STDSE B         A      00008333305YA2001020520080630        AF  256939
28103019798004215010      1  100 stk.                      00010000STTBH B         A      00013333303YA2007073020071105        AF  259743
28101115082004222010         30 stk. (blister)             00003000STBLI B         A      00001500005YA2001020520070129        AF  256939
28101783595004231010      1  28 stk. (blister) (Orifarm)   00002800STBLI B         A      00000700002YL2007040920080616        AF  010189
28101115082004233015         50 stk.                       00005000STDSE B         A      00002500005YA2001020520050411        AF  256939
28103170800004236005      1  30 stk. (blister)             00003000STBLI B         A      00001500002YB2006082820080505        AF  255483
28101940097004241005      1  100 stk.                      00010000STBOX NBS  NEUPSA      00003333305YA2001010820080630        AF  257213
28101062281004244005         30 stk. (blister)             00003000STBLI B         A      00001000005YA2001020520080630        AF  256939
28101256286004247010      1  5000 g                        00500000G     BP               00000000004YB2000122520050103        A   063100
28101062281004255010      1  50 stk. (blister)             00005000STBLI B         A      00001666705YA2008040720080630        AF  256939
28103037098004258005      1  1 stk.                        00000100ST    B                00000100002YK2003070720030915        A   254766
28103296001004259005      1  14 stk. (blister)             00001400STBLI B         A      00000700004YT2002102820060313        A   061800
28101062281004266015         100 stk.                      00010000STDSE B         A      00003333305YA2001020520080630        AF  256939
28103938106004270005      1  100 stk. (blister)            00010000STBLI B         A      00015000003YA2008022520080505        AF  083200
28103183600004277005         100 stk. (blister)            00010000STBLI B         A      00007500003YA2007012920070924        AF  010189
28103180400004282005      1  120 doser                     00012000DOTRB B         A      00003000001YB2001021920050829        A   059300
28103170800004292010      1  60 stk. (blister)             00006000STBLI B         A      00003000002YB2006082820060828        AF  255483
28103180500004293005      1  120 doser                     00012000DOTRB B         A      00003000001YB2001021920050829        A   059300
28101947297004294005      1  1 x 200 ml                    00020000MLHTG BP               00000000002YB2001040220050425        A   011596
28103120999004298005         10 stk. (blister)             00001000STBLI B         A      00001000002YV2001041620040816        A   257309
28103167800004301005         66 ml                         00006600MLGFL B         A      00003300002YB2001051420011112        A   061600
28103170800004303015      1  180 stk. (blister)            00018000STBLI B         A      00009000002YB2006082820060911        AF  255483
28103182500004316010      25 25 x 1 ml                     00002500MLHTG B                00000000003YK2001112620070521        A   059300
28103037098004327005      1  6 x 1 stk.                    00000600ST    B                00000600002YK2003070720030915        A   254766
28101318187004338005      6  1.000 IE x 6, eng.sp. a 0,5 ml00000300MLENS B                00000600018MH20010917                A   059900
28103218401004345005         5 x 0,5 ml                    00000250MLFIN BEGR             00000428630MK20011112                A   255791
28103206600004352005      1  1 stk.                        00000100STHTG A                00000050002YA2002091620041025        A   061800
28103037198004360005      1  1 stk.                        00000100ST    B                00000200002YK2008021120080211        A   254766
28101318287004364005      6  2.000 IE x 6, eng.sp. a 0,5 ml00000300MLENS B                00001200018MH20010917                A   059900
28103218501004367005         5 x 0,5 ml                    00000250MLFIN BEGR             00000685730MK20011112                A   255791
28103037198004369005         6 x 1 stk.                    00000600ST    B                00001200002YK2008021120080211        A   254766
28103120999004370010         30 stk. (blister)             00003000STBLI B         A      00003000002YV2001041620040816        A   257309
28101318387004372020      6  4.000 IE x 6, eng.sp. a 0,4 ml00000240MLENS B                00002400018MH20010709                A   059900
28101358789004374005         10 stk.                       00001000ST    A                00000250003YA1991100719950410        A   059300
28101318387004375025      6  3.000 IE x 6, eng.sp. a 0,3 ml00000180MLENS B                00001800018MH20010917                A   059900
28103120999004378015         100 stk. (blister)            00010000STBLI B         A      00010000002YV2001040220040816        AF  257309
28101318387004383030      6  10.000 IE x 6, eng.sp. a 1 ml 00000600MLENS B                00006000018MH20010528                A   059900
28103037298004385005         1 stk.                        00000100ST    B                00000400002YK2003060920030915        A   254766
28101061081004386010         50 stk.                       00005000STPBH B         A      00001666705YA2001041620050829        AF  020802
28103037298004391010         6 x 1 stk.                    00000600ST    B                00002400002YK2003060920030915        A   254766
28103406702004434005      1  16 stk. (blister)             00001600STBLI B                00000000005YA2003111020080505        A   254780
28103163900004456005         50 ml (25 doser)              00005000MLHTG BP               00000000018MK2001090320080421        A   001200
28103169700004458005      1  3,5 g                         00000350G TUB B                00000000002YT2002101420071217        A   132300
28101061181004480015         50 stk.                       00005000STPBH B         A      00002500005YA2001041620050328        AF  020802
28101061181004488025         200 stk.                      00020000STPBH B         A      00010000005YA2001041620051010        AF  020802
28100417072004498005         90 ml                         00009000MLGFL B         A      00000300003YA2001062520050425        A   034800
28103182400004502005      1  1 x 0,5 ml                    00000050MLFIN B                00000000003YK20020610                A   059300
28103170700004560005         30 stk. (blister)             00003000STBLI B         A      00001500002YT2006073120080630        AF  253032
28101317587004569005         10 stk. (blister)             00001000STBLI HX        V PKRON00000166705YA20011001                A   020802
28100726476004573005      1  10 stk. (blister)             00001000STBLI HX               00000166722MB20011001                A   020802
28101688594004586005         90 stk. (blister)             00009000STBLI B         A      00018000003YV2001051420060313        AF  257842
28101192084004612005         25 g                          00002500G TUB B         A      00000000002YA2002031820080324        A   257213
28103182600004613005      1  1 ml                          00000100MLFIN B                00000000003YK2001082020080630        A   059300
28103189000004619005         5 ml                          00000500ML    B         A      00000000003YA200107092008050520080602AF  010189
28103167200004642025      6  6 x 7 stk. (blister)          00004200STBLI BEGR             00000000002YB20010430                A   037000
28103167200004643015      5  5 x 7 stk. (blister)          00003500STBLI BEGR             00000000002YB20010430                A   037000
28103167200004653010      4  4 x 7 stk. (blister)          00002800STBLI BEGR             00000000002YB20010430                A   037000
28103801177004655010      100100 stk. a 0,35 ml i endosisbe00003500MLEND HA        V PALKO00000000003YA1988020120060508        A   257842
28103164400004659005         40 stk.                       00004000STTBH HF               00000666703YA2001020520040105        A   192000
28103164400004676015         200 stk.                      00020000STTBH HF               00003333303YA2001020520040105        A   192000
28101032379004685015      1  5000 ml                       00500000MLPBH BP               00000000003YA200104302006121820080421A   012666
28103164400004687010         100 stk.                      00010000STTBH HF               00001666703YA2001020520040105        A   192000
28103206100004690005      1  50 stk. (blister)             00005000STBLI B         S EPIL 00000833303YA2008060220080602        AF  061800
28103166400004699005      28 28 x 0,67 ml                  00001876MLFIN BEGR             00002800018MH20040927                A   255791
28103406702004712010      1  80 stk. (blister)             00008000STBLI B                00000000005YA2003111020080505        A   254780
28103178900004736005         30 stk.                       00003000ST    BEGR             00003000003YT20020218                A   059300
28103159600004738005         180 ml                        00018000MLFLA BEGR             00000900003YA2002080520021014        A   061200
28103065399004746005      5  5 x 3 ml                      00001500MLCAM B         A      00003750003YH2004052420071231        A   257228
28100980278004767005      1  10 stk. (blister)             00001000STBLI B         A      00000250003YA2005060620071217        AF  256939
28101561993004768005         100 ml                        00010000MLPLP BP               00000000028WK20010402                A   257309
2810301849800478500500479924 24 x 10 ml                    00024000MLENS BP               00000000003YC200203042007032620080519A   254780
28100980378004800005      1  10 stk. (blister)             00001000STBLI B         A      00000500003YA200506062007073020080407A   256939
28101030879004811005      10 10 x 100 ml                   00100000MLPLP B                00000333304YA2004080220080324        A   257213
28103208400004823005      1  30 stk.                       00003000STPBH B         A      00000750005YA2002112520070604        AF  012720
28103206100004834010      1  100 stk. (blister)            00010000STBLI B         S EPIL 00001666703YA2008060220080602        AF  061800
28101561993004837010         500 ml                        00050000MLPLP BP               00000000028WK20010402                A   257309
28103520303004841005      1  30 stk. (blister)             00003000STBLI B         A      00003000003YT2007121720080616        AF  012720
28103181700004842005      1  100 stk.                      00010000STPBH B         A      00005000002YB2007110520080602        AF  012720
28103206200004845005      1  100 stk. (blister)            00010000STBLI B         S EPIL 00002222203YA2008060220080602        AF  061800
28103182000004848005      1  100 stk.                      00010000STPBH B         A      00003333303YA2008063020080630        AF  012720
28100533567004855005         24 stk. (blister)             00002400STBLI B         A      00000300005YA2002031820080324        A   257213
28103706904004863005      1  1 ampul                       00000100STAMP BEGR             00000937504YH2005120520051205        A   011768
28103177400004876005      1  20 stk.                       00002000STPBH B         A      00002000003YT2008042120080421        AF  012720
28103212300004880005      1  1 htgl.                       00000100HTHTG B                00000100003YA2003021720080324        A   061800
28100980178004888005         8 stk.                        00000800STBOX B         A      00000200005YA2007032620070326        AF  257213
28103177400004893010         60 stk.                       00006000STPBH B         A      00006000003YT2004110820080310        AF  012720
28103177400004901015      1  100 stk.                      00010000STPBH B         A      00010000003YT2008050520080505        AF  012720
28101783895004903010      1  56 stk. (blister) (Paranova)  00005600STBLI B         A      00005600003YL2007121720080324        AF  083200
28100980178004921010         14 stk.                       00001400STBOX B         A      00000350005YA2007031220080324        A   257213
28101891697004955005      1  10 stk. (blister)             00001000STBLI B         A      00001000003YA2001041620080519        AF  257842
28100980178004976015         30 stk.                       00003000STBOX B         A      00000750005YA2002031820070702        AF  257213
28101891797004981005      1  10 stk. (blister)             00001000STBLI B         A      00001500003YA2001041620080630        AF  257842
28103682004004986005      10 10 x 2 ml                     00002000MLAMP B                00000166702YB2007011520070115        A   257349
28103150300005005005         30 stk. (blister)             00003000STBLI B         A      00001125003YB2001031920040705        A   257625
28101263286005025015         100 stk.                      00010000ST    HF               00004000003YA1988032820040927        A   255483
28103150400005028010      1  30 stk. (blister)             00003000STBLI B         A      00001500003YB20010319                A   257625
28103200300005029005      1  14 stk. (blister)             00001400STBLI B         A      00001866700XV200512192008042120080505AF  010189
28103682004005033010      10 10 x 4 ml                     00004000MLAMP B                00000333302YB2007011520070115        A   257349
28103150300005037010         100 stk. (blister)            00010000STBLI B         A      00003750003YB20010319                A   257625
28103150400005039015      1  100 stk. (blister)            00010000STBLI B         A      00005000003YB20010319                A   257625
28103391802005048010      1  36 stk. (blister)             00003600STBLI HF               00000240003YC2003092920070730        A   011768
28103391802005059005      1  96 stk. (blister)             00009600STBLI HF               00000640003YC2002122320070730        A   011768
28103016298005066005      1  28 stk. a 0,4 ml              00002800STEND B         A      00005600003YV1999020820070101        A   059300
28103391802005070015      1  204 stk. (blister)            00020400STBLI HF               00001360003YC2004021620070730        A   011768
28101673694005108010         90 stk.                       00009000STBOX B         A      00009000004YA1997090820050718        AF  256269
28103148600005123005      1  10 stk. (blister)             00001000STBLI B                00000250005YA2007040920080602        A   255483
28103148700005147005      1  10 stk. (blister)             00001000STBLI B                00000500005YA2007052120070910        A   255483
28101196884005155005         100 stk.                      00010000STGLA B         A      00010000005YA2005081520080616        AF  011763
28103148700005171010      1  20 stk. (blister)             00002000STBLI B                00001000005YA2007012920080602        A   255483
28103200300005186010      1  28 stk. (blister)             00002800STBLI B         A      00003733300XV200803102008031020080421AF  010189
28103200300005197015      1  56 stk. (blister)             00005600STBLI B         A      00007466700XV200805052008050520080519AF  010189
28103200300005206020      1  98 stk. (blister)             00009800STBLI B         A      00013066700XV200803102008032420080505AF  010189
28103200200005217020      1  14 stk (blister)              00001400STBLI B         A      00000933300XL2007060420080519        AF  010189
28101412090005225005      1  15 stk.                       00001500ST    HF        V PURHP00001500003YA2002081920060703        A   059300
28103200200005228005         2 x 14 stk. (blister)         00002800STBLI B         A      00001866700XL200702122008050520080616AF  010189
28103200200005239010      1  56 stk. (blister)             00005600STBLI B         A      00003733300XL200702122008032420080519AF  010189
28103141000005241010      3  3 x 120 doser                 00036000DO    B         A      00009000002YT2001040220050509        AF  056100
28103114099005292005      5  5 x 20 ml                     00010000MLAMP B                00000000002YC2001090320071119        A   257071
28103158900005294005         5 kg                          00000500KG    PRMIX            00000000001YB20010430                A   185900
28103260001005296010      1  100 stk. (blister)            00010000STBLI B         A      00007500003YT2004060720050606        AF  056100
28101839196005336005         10 ml                         00001000MLSPB HF               00000625003YA2001101520060605        A   011768
28103174500005347005      1  6 stk. (blister)              00000600STBLI B         A      00000600003YA2008022520080324        AF  083200
28101212585005355005      12 12 engangspipetter a 0,2 g    00000240G END B                00000000002YT1993011820050425        A   034800
28103260001005357005      1  30 stk. (blister)             00003000STBLI B         A      00002250003YT2004060720050606        AF  056100
28101709294005363005         1 stk.                        00000100STENS A         A      00008372103YA1996010120050214        AF  056100
28103158900005372010         25 kg                         00002500KG    PRMIX            00000000001YB2001043020061106        A   185900
28103285001005380005         2 g                           00000200G     NBS  DERM        00000000001YK2002062420060731        A   013043
28103238101005390005      1  200 doser                     00020000DOAER B         A      00003333303YA2002102820071217        AF  205600
28103171800005480015      1  1 x 5 ml                      00000500MLHTG BEGR             00000000002YF2007073020070730        A   012688
28103223601005481005         3 x 28 stk.                   00008400ST    B         A      00008400003YC2002031820060227        A   056800
28101949797005494010      3  3 x 10 g                      00003000G TUB HF        V PKEKO00000000030MC2008050520080505        A   011685
28101308287005501005      1  14 stk. (blister)             00001400STBLI HF        V PKRAL00001400005YA20010723                A   255816
28103130599005503005      1  28 stk. (blister)             00002800STBLI B         A      00004200003YL2002041520080324        AF  058300
28103208900005507005      1  4 stk. (blister)              00000400STBLI B                00002800003YA2001090320071203        A   061200
28103520303005513010      1  100 stk.                      00010000STPBH B         A      00010000003YT2008022520080519        AF  012720
28103181800005525005      1  100 stk.                      00010000STPBH B         A      00010000002YB2007091020080616        AF  012720
28103130699005526005      1  28 stk. (blister)             00002800STBLI B         A      00005600003YL2003102720060102        A   058300
28103181900005536005      1  100 stk.                      00010000STPBH B         A      00020000002YB2007111920080602        AF  012720
28100787776005538005         63 stk. (3x21)                00006300ST    B                00008400005YT1980010120060227        A   056800
28103182100005555005      1  100 stk.                      00010000STPBH B         A      00006666703YA2007082720070827        AF  012720
28103182200005564005      1  100 stk.                      00010000STPBH B         A      00013333303YA2007082720071105        AF  012720
28103208900005565010      1  12 stk. (blister)             00001200STBLI B                00008400003YA2001090320071203        A   061200
28103183000005567005         80 g (tube)                   00008000G TUB B         A      00004800003YA2001041620080602        AF  083200
28103181200005577005         100 stk. (blister)            00010000STBLI A         A      00001666705YT2001040220080602        AF  012720
28103327901005588005      1  30 stk. (blister)             00003000STBLI B         A      00003000002YB2002062420060731        AF  205600
28103327901005600010      1  30 stk blister + handihaler   00003000STBLI B         A      00003000002YB2002062420060731        A   205600
28103215200005606005      1  1 x 0,5 ml                    00000050MLFIN B                00000000042MH2006010220080310        A   135400
28103118399005615005      1  1 x 5 ml                      00000500MLHTG BEGR             00000000002YA2002021820060102        A   056200
28103164200005624005         30 stk. (blister)             00003000STBLI B         A      00000562503YL2001051420060814        AF  056000
28103129499005635005      1  28 stk. (blister)             00002800STBLI AP4       A      00000186703YT2001090320050606        A   148800
28103212400005639005      1  56 stk. (blister)             00005600STBLI AP4       A      00000364002YC20020819                A   148800
28103164200005641010         60 stk. (blister)             00006000STBLI B         A      00001125003YL2001051420080602        AF  056000
28103115499005645015      1  18 stk. (blister)             00001800STBLI B         A      00001800000XT2008011420080616        AF  010189
28103164200005672020         180 stk. (blister)            00018000STBLI B         A      00003375003YL2001051420061009        AF  056000
28103164200005674015         90 stk. (blister)             00009000STBLI B         A      00001687503YL2001051420080602        AF  056000
28103129499005685010      1  98 stk. (blister)             00009800STBLI AP4       A      00000653303YT2001090320050606        A   148800
28103045698005692005      2  2 x 5000 ml                   01000000MLPLP B                00001000002YB2006013020060130        A   181800
28103129599005700005      1  28 stk. (blister)             00002800STBLI AP4       A      00000373303YT2001122420050606        A   148800
28103129599005711010      1  98 stk. (blister)             00009800STBLI AP4       A      00001306703YT2001122420050606        A   148800
28103129699005722005      1  28 stk. (blister)             00002800STBLI AP4       A      00000746703YT2001122420050606        A   148800
28103129699005733010      1  98 stk. (blister)             00009800STBLI AP4       A      00002613303YT2001122420050606        A   148800
28103212500005741005      1  56 stk. (blister)             00005600STBLI AP4       A      00000728002YC20020819                A   148800
28101033779005749005      1  1 x 1000 doser                00100000DOHTG BP               00000000027MK20010219                A   063100
28103340702005757005         28 stk. (blister)             00002800STBLI B         A      00001400003YA2002080520040510        A   035800
28101033779005763010      1  1 x 5000 doser                00500000DOHTG BP               00000000027MK2001021920031110        A   063100
28103011698005766005      1  1 htgl.                       00000100HTHTG NBS  GYNOBA      00000100002YC20020121                A   255235
28103611203005771005      1  28 stk. (blister)             00002800STBLI B         A      00002800003YA20040927                A   011823
28103131000005775005         10 stk. (blister)             00001000STBLI HX        V PKRON00000166703YA20011001                A   256647
28103041198005776010      1  1000 ml                       00100000MLPFL BP               00000000002YA2001080620060911        A   099300
28103264701005782005         15 stk. (blister)             00001500STBLI A                00000000003YL20020722                A   056800
28103011798005789005      1  1 htgl.                       00000100HTHTG NBS  GYNOBA      00001200002YC20011015                A   255235
28103340702005790010         100 stk.                      00010000STPBH B         A      00005000003YA2002080520041122        A   035800
28101375189005792010      10 10 x 20 ml                    00020000MLHTG B                00000000002YA2004030120060213        A   257309
28101397890005793010         100 stk.                      00010000ST    B         A      00003333305YA1990092420080519        AF  020802
28103220901005806005         1 htgl.                       00000100STHTG A                00000142902YK2001041620080211        A   010189
28103340802005812005         28 stk. (blister)             00002800STBLI B         A      00002800003YA2002080520061009        AF  035800
28100636073005813005      1  10 stk. (blister)             00001000STBLI HX        V PKRON00000166705YA20011001                A   256647
28100907676005814005         10 stk.                       00001000ST    HX        V PKRON00000166705YA20011001                A   256647
28103340802005823010         56 stk. (blister)             00005600STBLI B         A      00005600003YA2002080520061009        AF  035800
28103264701005836010         20 stk. (blister)             00002000STBLI A                00000000003YL20020722                A   056800
28103611203005837010      1  98 stk. (blister)             00009800STBLI B         A      00009800003YA20040927                A   011823
28103340802005845015         100 stk.                      00010000STPBH B         A      00010000003YA2002080520061009        AF  035800
28103340902005867005         28 stk. (blister)             00002800STBLI B         A      00004200003YA2002080520061009        AF  035800
28103005998005868005      1  250 stk.                      00025000STTBH NBS  PAED        00000625002YT2006052220060522        A   010530
28103249501005872005      1  28 stk. (blister)             00002800STBLI B         A      00002800002YL2006082820060828        A   205600
28101333888005884005         8 stk.                        00000800ST    B                00000200003YA1992092119950410        A   062700
28103163500005885005      1  1 htgl.                       00000100STHTG A                00000100003YC20060227                A   058300
28103249501005894010      1  98 stk. (blister)             00009800STBLI B         A      00009800002YL2006082820060828        A   205600
28103244201005899005      1  100 stk.                      00010000STBOX B         A      00002500003YA2002020420080630        AF  257213
28103340902005902010         100 stk.                      00010000STPBH B         A      00015000003YA2002080520061009        AF  035800
28103275101005910005      1  2 x 14 stk. (blister)         00002800STBLI B         A      00002800003YV2001122420060731        A   011768
28103341102005922005         28 stk. (blister)             00002800STBLI B         A      00005600003YA2002080520061009        AF  035800
28103275101005932010      1  7 x 14 stk. (blister)         00009800STBLI B         A      00009800003YV2001122420060731        AF  011768
28103341102005933010         56 stk. (blister)             00005600STBLI B         A      00011200003YA2002080520061009        AF  035800
28103275201005954005         2 x 14 stk. (blister)         00002800STBLI B         A      00005600003YV2001122420070101        AF  011768
28103275201005976010         7 x 14 stk. (blister)         00009800STBLI B         A      00019600003YV2001122420070101        AF  011768
28101557193005984035      6  6 x 500 ml                    00300000MLGFL B                00000000005YL20020218                A   256582
28103244301005988005      1  100 stk.                      00010000STBOX B         A      00004250003YA2006112020080310        AF  257213
28101557293005996030      6  6 x 500 ml                    00300000MLGFL B                00000000005YL20020218                A   256582
28101503492006000005         1,5 ml                        00000150MLHTG BEGR             00000075015MK2001101520050620        A   020800
28103198800006008005      5  5 x 10 ml                     00005000MLFLA A                00000000003YA2008032420080324        A   056800
28103359500006024005      5  5 x 3 ml                      00001500MLFIN B         A      00003750018MK2002040120051024        AF  039000
28101408090006026020      1  1 x 60 ml                     00006000MLFLA A                00000000002YT2002012120071231        A   013934
28101400390006027010      1  1 x 50 ml                     00005000ML    A                00000000002YB20021209                A   013934
28101932597006038005         20 stk. (blister)             00002000STBLI A         A      00000333302YA2001100120020429        A   020800
28101867496006046010      1  250 ml                        00025000ML    BP               00000000002YK2001041620060410        A   259129
28103005898006049005      1  266 g                         00026600G PBH NBS  PAED        00001330002YK20060522                A   010530
28101896997006069005      1  60 ml                         00006000MLPFL B         A      00006000003YA2001051420080211        AF  010189
28103199000006079005         10 ml                         00001000MLHTG BEGR             00000140002YH2002080520071119        A   061200
28103143900006087015         90 g (3x30)                   00009000G TUB B         A      00009000002YA2001051420080630        AF  012562
28101870997006091005      1  60 g                          00006000G TUB B         A      00006000003YA2001051420080602        AF  010189
28103310301006102005         5 x 3 ml                      00001500MLFIN B         A      00003750002YH2001111220051024        AF  039000
28101503492006111010         3 ml                          00000300MLHTG BEGR             00000150015MK2001101520030901        A   020800
28103198900006115005         10 ml                         00001000MLHTG BEGR             00000100002YH2002080520071119        A   061200
28101400390006116015      1  1 x 100 ml                    00010000MLHTG A                00000000002YB20021209                A   013934
28103131000006121015         60 stk. (blister)             00006000STBLI HA        V PKRON00001000003YA2001100120030818        A   256647
28101932597006127010         100 stk. (blister)            00010000STBLI A         A      00001666702YA2001100120020429        A   020800
28103205500006134005         60 ml                         00006000MLFLA B         A      00000400003YA2001061120080616        AF  012562
28101932697006138005         20 stk. (blister)             00002000STBLI A         A      00000666702YA2001100120070924        A   020800
28101932697006149010         100 stk. (blister)            00010000STBLI A         A      00003333302YA2001100120070924        A   020800
28103298101006152005      1  10 stk. (blister)             00001000STBLI A                00001000005YA2002061020030818        A   027501
28101932797006160005         20 stk. (blister)             00002000STBLI A         A      00001000002YA2001100120070924        A   020800
28103226101006168010      1  200 doser                     00020000DO    B         A      00005000002YZ2008040720080407        AF  012562
28101932797006176010         100 stk. (blister)            00010000STBLI A         A      00005000002YA2001100120070924        A   020800
28101932897006182005         20 stk. (blister)             00002000STBLI A         A      00001333302YA2001100120070924        A   020800
28101932897006193010         100 stk. (blister)            00010000STBLI A         A      00006666702YA2001100120070924        A   020800
28103205700006215005      1  200 doser                     00020000DO    B         A      00005000002YA2001101520080519        AF  012562
28103298101006224010      1  100 stk. (blister)            00010000STBLI A                00010000005YA200206102008050520080519A   027501
28103091899006240015      4  4 x 2000 ml Duo B5260VC       00800000ML    B                00000800002YB2003030320040105        A   135400
28103091999006242030      4  4 x 2500 ml Duo B5285VC       01000000ML    B                00001000002YB2003030320040105        A   135400
28103092099006249035      4  4 x 2500 ml B5296RC           01000000ML    B                00001000002YB2003030320040105        A   135400
28103091899006264030      4  4 x 2500 ml B5291RC           01000000ML    B                00001000002YB2003030320040105        A   135400
28103091899006275005      5  5 x 1500 ml Duo B5246C        00750000ML    B                00000750002YB2003030320040105        A   135400
28103091899006281020      4  4 x 2000 ml Duo B5260C        00800000ML    B                00000800002YB2003030320040105        A   135400
28103092099006283040      4  4 x 2500 ml Duo B5287C        01000000ML    B                00001000002YB2003030320040105        A   135400
28103092099006286020      4  4 x 2000 ml Duo B5264C        00800000ML    B                00000800002YB2003030320040105        A   135400
28103091899006292035      4  4 x 2500 ml Duo B5284C        01000000ML    B                00001000002YB2003030320040105        A   135400
28103092099006315005      5  5 x 1500 ml Duo B5248C        00750000ML    B                00000750002YB2003030320040105        A   135400
28103231701006328010      1  30 stk. (blister)             00003000STBLI AP4              00001000003YT2007120320071203        A   010530
28103092099006343015      4  4 x 2000 ml Duo B5264VC       00800000ML    B                00000800002YB2003030320040105        A   135400
28103091899006345040      4  4 x 2500 ml Duo B5284VC       01000000ML    B                00001000002YB2003030320040105        A   135400
28103231801006369010      1  30 stk. (blister)             00003000STBLI AP4              00002000003YT2007120320071203        A   010530
28103091999006375020      4  4 x 2500 ml B5293RC           01000000ML    B                00001000002YB2003030320040105        A   135400
28103091999006384005      5  5 x 1500 ml Duo B5247C        00750000ML    B                00000750002YB2003030320040105        A   135400
28103091999006400015      4  4 x 2000 ml Duo B5262C        00800000ML    B                00000800002YB2003030320040105        A   135400
28103091999006406020      4  4 x 2500 ml Duo B5285C        01000000ML    B                00001000002YB2003030320040105        A   135400
28103231901006413010      1  30 stk. (blister)             00003000STBLI AP4              00003000003YT2007120320071203        A   010530
28103066299006443005         1 x 50 ml                     00005000MLHTG BP               00000000003YA2002041520070101        A   205600
28103232001006455010      1  30 stk. (blister)             00003000STBLI AP4              00004000003YT2007120320071203        A   010530
28103091999006461020      4  4 x 2000 ml Duo B5262VC       00800000ML    B                00000800002YB2003030320040105        A   135400
28101882497006497015      1  90 stk. (blister) (Paranova)  00009000STBLI B         A      00002250005YA2005013120050523        AF  083200
28103232101006499010      1  30 stk. (blister)             00003000STBLI AP4              00006000003YT2007121720071217        A   010530
28103206100006520005         50 stk. (blister)             00005000STBLI B         S EPIL 00000833303YA200110012004112220080602A   061800
28103244401006542005      1  2 stk. (blister)              00000200STBLI B                00000000005YA2003090120080211        A   056800
28103232201006543010      1  30 stk. (blister)             00003000STBLI AP4              00008000003YT2007091020070910        A   010530
28101867496006555005      1  50 ml                         00005000MLHTG BP               00000000002YK2001051420060410        A   259129
28103235201006558005      20 20 x 0,5 ml                   00002000STFIN B                00002000003YA20020429                A   059300
28103244401006559015      1  10 stk. (blister)             00001000STBLI B                00000000005YA2003090120080211        A   056800
28100797877006568005      1  100 stk.                      00010000ST    HF               00003333303YA2008021120080211        A   256939
28103207600006572005      1  50 stk.                       00005000STDSE B         S EPIL 00000833302YB2008031020080630        AF  256939
28101867496006575015      1  500 ml                        00050000MLPBH BP               00000000002YK2007052120070521        A   259129
28103160200006579015      1  60 g                          00006000G     B         A      00000000002YB1992091720080602        AF  034800
28100717276006590010         4 x 7,5 ml                    00003000ML    HF               00000400005YA2001090320040105        A   192000
28100901376006595005      25 25 htgl. a 2 ml               00005000MLHTG B         A      00087500002YA20020204                A   257309
28101720894006603005      1  60 ml                         00006000MLPFL HF               00006000002YB2001090320030915        A   059900
28103207600006606010         100 stk.                      00010000STDSE B         S EPIL 00001666702YB2006100920080616        AF  256939
28103207700006617005         100 stk.                      00010000STDSE B         S EPIL 00002222202YB2001112620080630        AF  256939
28103185700006623005         10 stk. (blister)             00001000STBLI B         A      00000500002YA2001112620080630        AF  013086
28100901376006634010      25 25 htgl. a 1 ml               00002500MLHTG B         A      00043750002YA2004062120020805        A   257309
28103160200006637020      1  120 g                         00012000G     B         A      00000000002YB2001091720080602        AF  034800
28101432791006650005         10 x 5 ml                     00005000ML    A                00001000003YA1993092720000320        A   011768
28103286601006653010      1  100 stk.                      00010000STPBH B         A      00010000003YB2007102220080519        AF  257213
28103286601006678005      1  30 stk. (blister)             00003000STBLI B         A      00003000003YB2008061620080616        AF  257213
28101594294006681005         10 stk.                       00001000ST    HX               00000166703YA20011001                A   256647
28103161500006732005         1 htgl.                       00000100HTHTG BEGR             00000700002YK20011126                A   014011
28101940697006742005      5  5 htgl. + solvens             00000500HSHTG B                00000000024MH2002111120071231        A   059800
28103185700006778010         30 stk. (blister)             00003000STBLI B         A      00001500002YA2001112620061218        AF  013086
28103255801006786010      1  100 stk.                      00010000STTBH B         A      00005000002YA2007100820080602        AF  240500
28103240101006787010      1  100 stk.                      00010000ST    B         A      00005000002YB2007042320080630        AF  256939
28103257301006788005         100 stk. (blister)            00010000STBLI B         A      00005000003YB2001101520080616        AF  256939
28103185700006789015         100 stk. (blister)            00010000STBLI B         A      00005000002YA2001112620080630        AF  013086
28103097299006794005      1  30 stk. (blister)             00003000STBLI B         A      00001500003YT2008031020080519        AF  250000
28101562393006795020      4  4 x 2500 ml kpb9668g duo      01000000ML    B                00001000002YL2002010720040105        A   135400
28103097299006811005      1  100 stk. (blister)            00010000STBLI B         A      00005000003YT2008031020080616        AF  250000
28103097399006819005      1  30 stk. (blister)             00003000STBLI B         A      00003000003YT2008031020080602        AF  250000
28103171500006821005      5  5 x 3 ml penne                00001500MLINP B                00000000002YB2007022620070226        A   258056
28101432891006825005         5 stk.                        00000500ST    A                00000500002YA1993092720000320        A   011768
28103049998006827010      4  4 x 2500 ml StaySafe balance  01000000MLPOS B                00001000002YA20040202                A   011660
28103097399006828010      1  100 stk. (blister)            00010000STBLI B         A      00010000003YT2008031020080310        AF  250000
28103071299006837005      1  7 stk. (blister)              00000700STBLI HF        V PKRAL00000700005YA20020218                A   258318
28103097499006839005      1  30 stk. (blister)             00003000STBLI B         A      00006000003YT2008031020080602        AF  250000
28101256286006847005      1  250 g                         00025000G POS BP               00000000004YB2001100120050103        A   063100
28101029379006848005         100 stk.                      00010000STTBH B         A      00000666703YA2001090320070101        AF  254657
28103049998006849015      4  4 x 3000 ml SleepSafe balance 01200000MLPOS B                00001200002YA20040202                A   011660
28103097499006850005      1  100 stk. (blister)            00010000STBLI B         A      00020000003YT2008031020080421        AF  250000
28103049998006860005      4  4 x 2000 ml StaySafe balance  00800000MLPOS B                00000800002YA20040202                A   011660
28101562393006864015      4  4 x 2500 ml kpb9674g          01000000ML    B                00001000002YL2002010720040105        A   135400
28101029479006865005      1  100 stk.                      00010000STTBH B         A      00002000003YA2004020220070101        AF  254657
28100115155006867005         1 htgl. a 100 ml              00010000MLHTG AP               00000000005YA2002021820080211        A   059800
28100590771006869005      1  10 ml                         00001000MLHTG BPK              00000000005YA2003010620071231        A   059800
2810322150100687000500690610 10 x 2 ml                     00002000MLFIN BP               00000000002YH2005060620080211        A   059800
28103247801006872005         20 stk. (blister)             00002000STBLI A                00002000004YA2004081620080630        A   255483
28101029579006880005      1  100 stk.                      00010000STGLA B         A      00003333303YA2001090320060828        AF  254657
28101536392006890005         10 x 250 ml                   00250000ML    B                00000000005YL1993020119950410        A   056800
28103171600006899005      1  50 stk. (blister)             00005000STBLI B         A      00001666703YB2005050920050509        A   254766
28103284201006914005         28 stk. (blister)             00002800STBLI B         A      00005600003YA2002080520050620        AF  061200
28103050198006915010      4  4 x 2500 ml StaySafe balance  01000000MLPOS B                00001000002YA20040202                A   011660
28103247801006917010         100 stk. (blister)            00010000STBLI A                00010000004YA2001111220080630        A   255483
28103171600006921010      1  100 stk. (blister)            00010000STBLI B         A      00003333303YB2005050920050912        A   254766
28103284201006928010         98 stk. (blister)             00009800STBLI B         A      00019600003YA2002080520050620        AF  061200
28103050198006937005      4  4 x 2000 ml StaySafe balance  00800000MLPOS B                00000800002YA20040202                A   011660
28103050198006948015      4  4 x 3000 ml SleepSafe balance 01200000MLPOS B                00001200002YA20040202                A   011660
28103130799006966005         60 stk. (blister)             00006000STBLI B         A      00003000005YA2001111220061120        AF  254766
28103050098006970010      4  4 x 2500 ml StaySafe balance  01000000MLPOS B                00001000002YA20040202                A   011660
28103194200006985010      5  5 x 10 ml                     00005000MLAMP AP4              00000000003YC2003120820060213        A   257623
28103050098006992005      4  4 x 2000 ml StaySafe balance  00800000MLPOS B                00000800002YA20040202                A   011660
28103050098007003015      4  4 x 3000 ml SleepSafe balance 01200000MLPOS B                00001200002YA20040202                A   011660
28103151500007007005      10 10 x 2 ml                     00002000MLAMP AP4              00000000005YL200501172006021320080505A   257623
28103071299007008010      1  21 stk. (blister)             00002100STBLI HF        V PKRAL00002100005YA20020513                A   258318
28103194300007015010      5  5 x 5 ml                      00002500MLAMP AP4              00000000003YC2003120820060213        A   257623
28103151500007016005      10 10 x 10 ml                    00010000MLAMP AP4              00000000005YL2003120820060213        A   257623
28103183700007029005      1  30 stk. (blister)             00003000STBLI B         A      00004500003YA2005101020080128        AF  010189
28103527303007030005      1  25 stk.                       00002500STTBH B         A      00000125002YA2007073020080602        AF  027501
28103255801007040005      1  30 stk.                       00003000STTBH B         A      00001500002YA2007100820080505        AF  240500
28103255901007051010      1  100 stk.                      00010000STTBH B         A      00010000002YA2007100820080630        AF  256939
28103255901007064005      1  30 stk.                       00003000STTBH B         A      00003000002YA2008032420080630        AF  256939
28100650074007067005      1  50 ml                         00005000ML    BP               00000000003YK2001072320080211        A   059800
28103256001007073010      1  100 stk.                      00010000STTBH B         A      00020000002YA2007100820080602        AF  240500
28101682394007078005         98 stk. (blister)             00009800STBLI A                00009800000 A2001090320080630        A   083200
28103256001007084005      1  30 stk.                       00003000STTBH B         A      00006000002YA2007100820080616        AF  240500
28101133783007088010      6  6 x 1000 ml                   00600000ML    B                00000600002YA1985100719950410        A   256331
28101882597007092015      1  90 stk. (blister) (Paranova)  00009000STBLI B         A      00004500005YA2002021820060508        AF  083200
28100726176007095005         30 stk.                       00003000STPBH A         A      00000750005YA2001091720060213        A   020800
28103240101007098005      1  30 stk.                       00003000ST    B         A      00001500002YB2007060420070604        AF  256939
28103453602007099005      1  28 stk. (blister)             00002800STBLI B         S CHOL 00002800003YV2003060920070101        A   056100
28100327860007104010         100 stk.                      00010000ST    B         A      00000166705YA1978052920060828        A   257842
28103240201007107010         100 stk.                      00010000ST    B         A      00010000002YA2005013120080630        AF  256939
28103527503007109005      1  35 stk.                       00003500STTBH B         A      00000700002YA2007011520080630        AF  027501
28103240201007118005      1  30 stk.                       00003000ST    B         A      00003000002YA2005013120060424        AF  256939
28101013660007120005         30 stk.                       00003000ST    B         A      00000250005YA1979031220070101        A   257842
28103151700007123005      1  180 stk.                      00018000STTBH B                00002250002YB20020107                A   014011
2810104068000712601000711520 20 htgl.                      00002000STHTG BP               00000000003YA2002081920070101        A   205600
28103453602007133010      1  98 stk. (blister)             00009800STBLI B         S CHOL 00009800003YV2003060920070101        AF  056100
2810104068000713700500649810 10 htgl. + solvens            00001000STHTG BP               00000000003YA2002081920070101        A   205600
28101013660007138010         100 stk.                      00010000ST    B         A      00000833305YA1978052920070101        A   257842
28103240301007140005         30 stk.                       00003000ST    B         A      00006000002YA2001100120051010        AF  256939
28103453702007144005      1  28 stk. (blister)             00002800STBLI B         S CHOL 00005600003YV2003060920050425        A   056100
28103453702007155010      1  98 stk. (blister)             00009800STBLI B         S CHOL 00019600003YV2003060920050425        AF  056100
28100650074007156010      1  100 ml                        00010000ML    BP               00000000003YK2001072320080211        A   059800
28100528167007161005         100 stk.                      00010000ST    B         A      00003333305YA1978052920060828        AF  257842
28103257401007165005         100 stk. (blister)            00010000STBLI B         A      00010000003YB2008040720080602        AF  256939
28103453802007166005      1  28 stk. (blister)             00002800STBLI B         S CHOL 00011200003YV2003060920050606        A   056100
28101133883007179015      6  6 x 1000 ml                   00600000ML    B                00000600002YA1985100719950410        A   256331
28103453802007186010      1  98 stk. (blister)             00009800STBLI B         S CHOL 00039200003YV2003060920050606        AF  056100
28101133983007195010         6 x 1000 ml                   00600000ML    B                00000600002YA1985100719950410        A   256331
28103251601007264005         20 stk. (blister)             00002000STBLI A         A      00000666703YL2002061020071203        AF  257625
28103251701007273010         100 stk. (blister)            00010000STBLI A         A      00005000003YL2002061020080519        AF  257625
28101403490007278005         30 stk.                       00003000ST    B         A      00001500003YT1991060320060731        A   011768
28103275901007297020      1  204 stk. (blister)            00020400STBLI HF               00001360030MB2002090220060605        A   011768
28103251601007298010         100 stk. (blister)            00010000STBLI A         A      00003333303YL2002061020080505        AF  257625
28103205300007303005      1  1 x 3 ml                      00000300MLDBH B         A      00003000002YA2002041520050328        A   013805
28103240401007306005      1  250 ml                        00025000MLFLA BP               00000000002YA2001072320060717        A   011596
28103240401007317010      1  1000 ml                       00100000MLFLA BP               00000000002YA2001072320060717        A   011596
28103251701007320005         20 stk. (blister)             00002000STBLI A         A      00001000003YL2002061020080519        AF  257625
28101933797007323005      5  5 x 20 ml                     00010000MLAMP B                00000000003YB20011112                A   256331
28103266201007330005      60 60 x 4 ml                     00024000MLPAM B         A      00001500003YA2002042920080407        AF  010189
28103216200007337005      1  60 mg forfyldt i en 0,3 ml spr00000100STFIN B                00002000002YH20020902                A   258628
28103251801007353005         20 stk. (blister)             00002000STBLI A         A      00001333303YL2002061020080519        AF  257625
28103216400007360005      1  120 mg i forfyldt spr. a 0,5 m00000100STFIN B                00004000002YH20020902                A   258628
28103251801007362010         100 stk. (blister)            00010000STBLI A         A      00006666703YL2002061020080630        AF  257625
28103216300007363005      1  90 mg forfyldt i en 0,3 ml spr00000100STFIN B                00003000002YH20020902                A   258628
28103276001007375020      1  204 stk. (blister)            00020400STBLI HF               00002720002YB2002090220060605        A   011768
28103232401007378005         10 x 300 ml                   00300000MLPOS B                00000500003YL20011112                A   061800
28103232601007424010         30 stk. (blister)             00003000STBLI B                00001500003YA2002012120051010        A   061800
28103231101007434005         1 x 2,5 ml                    00000250ML    B         A      00001250002YK2001111220050411        A   061800
28103270301007448005      10 10 X 5 ML                     00005000MLHTG B                00000005003YC20050815                A   135400
28101697994007462010         250 ml                        00025000MLPFL B                00000000003YA2002010720030512        A   259172
28103271401007494005         6.67 g                        00000667G     BP               00000000002YA2002042920080211        A   056800
28103261201007495005         50 stk.                       00005000STGFL HF               00002500003YA20011112                A   205600
28103234901007497005      1  15 g                          00001500G TUB HF        V PHUDS00001500005YA2006120420071217        A   012562
28103246701007505005      1  30 stk.                       00003000STGLA B         A      00001500002YV2001121020050523        A   061800
28103238401007515005      1  5 ml                          00000500MLFLA B         A      00000000002YA2002122320060227        A   011768
28103291301007516005      1  60 doser (blister)            00006000DOBLI B         A      00003000002YV20030915                A   257309
28101488092007529005      1  1 x 0,5 ml                    00000050MLHTG A                00000000003YK2007031220070312        A   255801
28101791895007535015         100 stk.                      00010000STDSE A         A      00001666705YA2007120320080421        AF  255483
28103291401007538005      1  30 doser                      00003000DOPIH B         A      00003000002YV20031110                A   257309
28103292601007540010      12 12 x 100 ml                   00120000MLHTG B                00000400002YV20030623                A   254856
28103291401007549010      1  60 doser                      00006000DOPIH B         A      00006000002YV20030526                A   257309
28103054998007566005      1  50 stk. (blister)             00005000STBLI A         A      00000833303YC2004030120061009        AF  013086
28103237301007568005      1  10 stk. (blister)             00001000STBLI HF        V PKRAL00001000002YA2007021220080324        A   013086
28103171900007601005         1 x 3,5 mg                    00000350MGHTG BEGR             00000350001YK20011112                A   012689
28103055098007605005      1  50 stk. (blister)             00005000STBLI A         A      00001666703YC2004031520080616        AF  013086
28103237301007616015      1  50 stk. (blister)             00005000STBLI HF        V PKRAL00005000002YA2007021220080324        A   013086
28100950477007625005         10 stk.                       00001000ST    B         A      00000666703YB1978100220070101        A   257842
28103237301007638020      1  90 stk. (blister)             00009000STBLI HF        V PKRAL00009000002YA2007021220080324        A   013086
28103237301007645010      1  20 stk. (blister)             00002000STBLI HF        V PKRAL00002000002YA2007021220080324        A   013086
28103055098007649010      1  100 stk. (blister)            00010000STBLI A         A      00003333303YC2004030120080630        AF  013086
28100503666007657005         50 ml                         00005000MLHTG BPK              00000000005YA2001112620071231        A   059800
28103222201007693005         10 ml                         00001000MLDBH B                00000000002YA2002080520050718        A   132300
28101560493007716010         90 g (3x30)                   00009000G     B         A      00009000005YA1994032820080421        AF  083200
28103231101007721010      3  3 x 2,5 ml                    00000750ML    B         A      00003750002YK2001111220050411        AF  061800
28100524267007732005      1  2 ml                          00000200ML    B                00000000042MK1994050920061204        A   258374
28103271901007735010         30 stk. (blister)             00003000STBLI B         A      00003000003YA2002020420050328        A   255816
28100524267007740010      1  5 ml                          00000500ML    B                00000000042MK1994050920061204        A   258374
28103246901007760005      1  30 stk.                       00003000STGLA B         A      00003000002YV2001121020050523        A   061800
